{
  "_format": "hh-sol-artifact-1",
  "contractName": "Products",
  "sourceName": "contracts/Products.sol",
  "abi": [
    {
      "inputs": [],
      "name": "AccessControlBadConfirmation",
      "type": "error"
    },
    {
      "inputs": [
        {
          "internalType": "address",
          "name": "account",
          "type": "address"
        },
        {
          "internalType": "bytes32",
          "name": "neededRole",
          "type": "bytes32"
        }
      ],
      "name": "AccessControlUnauthorizedAccount",
      "type": "error"
    },
    {
      "anonymous": false,
      "inputs": [
        {
          "indexed": false,
          "internalType": "uint256",
          "name": "productId",
          "type": "uint256"
        },
        {
          "indexed": false,
          "internalType": "uint256",
          "name": "quantity",
          "type": "uint256"
        },
        {
          "indexed": false,
          "internalType": "address",
          "name": "buyer",
          "type": "address"
        }
      ],
      "name": "OrderProduct",
      "type": "event"
    },
    {
      "anonymous": false,
      "inputs": [
        {
          "indexed": true,
          "internalType": "bytes32",
          "name": "role",
          "type": "bytes32"
        },
        {
          "indexed": true,
          "internalType": "bytes32",
          "name": "previousAdminRole",
          "type": "bytes32"
        },
        {
          "indexed": true,
          "internalType": "bytes32",
          "name": "newAdminRole",
          "type": "bytes32"
        }
      ],
      "name": "RoleAdminChanged",
      "type": "event"
    },
    {
      "anonymous": false,
      "inputs": [
        {
          "indexed": true,
          "internalType": "bytes32",
          "name": "role",
          "type": "bytes32"
        },
        {
          "indexed": true,
          "internalType": "address",
          "name": "account",
          "type": "address"
        },
        {
          "indexed": true,
          "internalType": "address",
          "name": "sender",
          "type": "address"
        }
      ],
      "name": "RoleGranted",
      "type": "event"
    },
    {
      "anonymous": false,
      "inputs": [
        {
          "indexed": true,
          "internalType": "bytes32",
          "name": "role",
          "type": "bytes32"
        },
        {
          "indexed": true,
          "internalType": "address",
          "name": "account",
          "type": "address"
        },
        {
          "indexed": true,
          "internalType": "address",
          "name": "sender",
          "type": "address"
        }
      ],
      "name": "RoleRevoked",
      "type": "event"
    },
    {
      "inputs": [],
      "name": "DEFAULT_ADMIN_ROLE",
      "outputs": [
        {
          "internalType": "bytes32",
          "name": "",
          "type": "bytes32"
        }
      ],
      "stateMutability": "view",
      "type": "function"
    },
    {
      "inputs": [
        {
          "internalType": "string",
          "name": "name",
          "type": "string"
        },
        {
          "internalType": "uint256",
          "name": "price",
          "type": "uint256"
        },
        {
          "internalType": "uint256",
          "name": "tax",
          "type": "uint256"
        },
        {
          "internalType": "uint256",
          "name": "quantity",
          "type": "uint256"
        }
      ],
      "name": "addProduct",
      "outputs": [
        {
          "internalType": "uint256",
          "name": "",
          "type": "uint256"
        }
      ],
      "stateMutability": "nonpayable",
      "type": "function"
    },
    {
      "inputs": [],
      "name": "getAllProducts",
      "outputs": [
        {
          "components": [
            {
              "internalType": "uint256",
              "name": "id",
              "type": "uint256"
            },
            {
              "internalType": "string",
              "name": "name",
              "type": "string"
            },
            {
              "internalType": "uint256",
              "name": "quantity",
              "type": "uint256"
            },
            {
              "internalType": "uint256",
              "name": "available",
              "type": "uint256"
            },
            {
              "internalType": "uint256",
              "name": "price",
              "type": "uint256"
            },
            {
              "internalType": "uint256",
              "name": "tax",
              "type": "uint256"
            },
            {
              "internalType": "address",
              "name": "owner",
              "type": "address"
            }
          ],
          "internalType": "struct Products.Product[]",
          "name": "",
          "type": "tuple[]"
        }
      ],
      "stateMutability": "view",
      "type": "function"
    },
    {
      "inputs": [
        {
          "internalType": "uint256",
          "name": "id",
          "type": "uint256"
        }
      ],
      "name": "getProduct",
      "outputs": [
        {
          "components": [
            {
              "internalType": "uint256",
              "name": "id",
              "type": "uint256"
            },
            {
              "internalType": "string",
              "name": "name",
              "type": "string"
            },
            {
              "internalType": "uint256",
              "name": "quantity",
              "type": "uint256"
            },
            {
              "internalType": "uint256",
              "name": "available",
              "type": "uint256"
            },
            {
              "internalType": "uint256",
              "name": "price",
              "type": "uint256"
            },
            {
              "internalType": "uint256",
              "name": "tax",
              "type": "uint256"
            },
            {
              "internalType": "address",
              "name": "owner",
              "type": "address"
            }
          ],
          "internalType": "struct Products.Product",
          "name": "",
          "type": "tuple"
        }
      ],
      "stateMutability": "view",
      "type": "function"
    },
    {
      "inputs": [
        {
          "internalType": "bytes32",
          "name": "role",
          "type": "bytes32"
        }
      ],
      "name": "getRoleAdmin",
      "outputs": [
        {
          "internalType": "bytes32",
          "name": "",
          "type": "bytes32"
        }
      ],
      "stateMutability": "view",
      "type": "function"
    },
    {
      "inputs": [
        {
          "internalType": "bytes32",
          "name": "role",
          "type": "bytes32"
        },
        {
          "internalType": "address",
          "name": "account",
          "type": "address"
        }
      ],
      "name": "grantRole",
      "outputs": [],
      "stateMutability": "nonpayable",
      "type": "function"
    },
    {
      "inputs": [
        {
          "internalType": "bytes32",
          "name": "role",
          "type": "bytes32"
        },
        {
          "internalType": "address",
          "name": "account",
          "type": "address"
        }
      ],
      "name": "hasRole",
      "outputs": [
        {
          "internalType": "bool",
          "name": "",
          "type": "bool"
        }
      ],
      "stateMutability": "view",
      "type": "function"
    },
    {
      "inputs": [
        {
          "internalType": "uint256",
          "name": "id",
          "type": "uint256"
        },
        {
          "internalType": "uint256",
          "name": "qty",
          "type": "uint256"
        }
      ],
      "name": "orderProduct",
      "outputs": [],
      "stateMutability": "nonpayable",
      "type": "function"
    },
    {
      "inputs": [],
      "name": "productIdCounter",
      "outputs": [
        {
          "internalType": "uint256",
          "name": "_value",
          "type": "uint256"
        }
      ],
      "stateMutability": "view",
      "type": "function"
    },
    {
      "inputs": [
        {
          "internalType": "uint256",
          "name": "",
          "type": "uint256"
        }
      ],
      "name": "products",
      "outputs": [
        {
          "internalType": "uint256",
          "name": "id",
          "type": "uint256"
        },
        {
          "internalType": "string",
          "name": "name",
          "type": "string"
        },
        {
          "internalType": "uint256",
          "name": "quantity",
          "type": "uint256"
        },
        {
          "internalType": "uint256",
          "name": "available",
          "type": "uint256"
        },
        {
          "internalType": "uint256",
          "name": "price",
          "type": "uint256"
        },
        {
          "internalType": "uint256",
          "name": "tax",
          "type": "uint256"
        },
        {
          "internalType": "address",
          "name": "owner",
          "type": "address"
        }
      ],
      "stateMutability": "view",
      "type": "function"
    },
    {
      "inputs": [
        {
          "internalType": "uint256",
          "name": "id",
          "type": "uint256"
        },
        {
          "internalType": "uint256",
          "name": "quantity",
          "type": "uint256"
        }
      ],
      "name": "reduceQuantity",
      "outputs": [
        {
          "internalType": "bool",
          "name": "",
          "type": "bool"
        }
      ],
      "stateMutability": "nonpayable",
      "type": "function"
    },
    {
      "inputs": [
        {
          "internalType": "uint256",
          "name": "id",
          "type": "uint256"
        }
      ],
      "name": "removeProduct",
      "outputs": [],
      "stateMutability": "nonpayable",
      "type": "function"
    },
    {
      "inputs": [
        {
          "internalType": "bytes32",
          "name": "role",
          "type": "bytes32"
        },
        {
          "internalType": "address",
          "name": "callerConfirmation",
          "type": "address"
        }
      ],
      "name": "renounceRole",
      "outputs": [],
      "stateMutability": "nonpayable",
      "type": "function"
    },
    {
      "inputs": [
        {
          "internalType": "bytes32",
          "name": "role",
          "type": "bytes32"
        },
        {
          "internalType": "address",
          "name": "account",
          "type": "address"
        }
      ],
      "name": "revokeRole",
      "outputs": [],
      "stateMutability": "nonpayable",
      "type": "function"
    },
    {
      "inputs": [
        {
          "internalType": "bytes4",
          "name": "interfaceId",
          "type": "bytes4"
        }
      ],
      "name": "supportsInterface",
      "outputs": [
        {
          "internalType": "bool",
          "name": "",
          "type": "bool"
        }
      ],
      "stateMutability": "view",
      "type": "function"
    }
  ],
  "bytecode": "0x608060405234801561001057600080fd5b5061201a806100206000396000f3fe608060405234801561001057600080fd5b50600436106100f55760003560e01c80635ee95cae11610097578063b7df2fde11610066578063b7df2fde1461029e578063b9db15b4146102ba578063d547741f146102ea578063ef6bf69714610306576100f5565b80635ee95cae146101fe5780637acc0b201461021a57806391d1485414610250578063a217fddf14610280576100f5565b8063248a9ca3116100d3578063248a9ca3146101785780632f2ff15d146101a8578063342ae8c6146101c457806336568abe146101e2576100f5565b806301ffc9a7146100fa57806302ee3a521461012a578063094455c414610148575b600080fd5b610114600480360381019061010f919061136f565b610336565b60405161012191906113b7565b60405180910390f35b6101326103b0565b60405161013f919061161a565b60405180910390f35b610162600480360381019061015d91906116cd565b6105a8565b60405161016f9190611764565b60405180910390f35b610192600480360381019061018d91906117b5565b610771565b60405161019f91906117f1565b60405180910390f35b6101c260048036038101906101bd9190611838565b610790565b005b6101cc6107b2565b6040516101d99190611764565b60405180910390f35b6101fc60048036038101906101f79190611838565b6107be565b005b61021860048036038101906102139190611878565b610839565b005b610234600480360381019061022f9190611878565b610919565b60405161024797969594939291906118fe565b60405180910390f35b61026a60048036038101906102659190611838565b610a03565b60405161027791906113b7565b60405180910390f35b610288610a6d565b60405161029591906117f1565b60405180910390f35b6102b860048036038101906102b39190611974565b610a74565b005b6102d460048036038101906102cf9190611878565b610b03565b6040516102e19190611a50565b60405180910390f35b61030460048036038101906102ff9190611838565b610c9d565b005b610320600480360381019061031b9190611974565b610cbf565b60405161032d91906113b7565b60405180910390f35b60007f7965db0b000000000000000000000000000000000000000000000000000000007bffffffffffffffffffffffffffffffffffffffffffffffffffffffff1916827bffffffffffffffffffffffffffffffffffffffffffffffffffffffff191614806103a957506103a882610d1f565b5b9050919050565b606060006103be6001610d89565b905060008167ffffffffffffffff8111156103dc576103db611a72565b5b60405190808252806020026020018201604052801561041557816020015b61040261125d565b8152602001906001900390816103fa5790505b50905060005b8281101561059f576000610439826001610d9e90919063ffffffff16565b9050600460008281526020019081526020016000206040518060e00160405290816000820154815260200160018201805461047390611ad0565b80601f016020809104026020016040519081016040528092919081815260200182805461049f90611ad0565b80156104ec5780601f106104c1576101008083540402835291602001916104ec565b820191906000526020600020905b8154815290600101906020018083116104cf57829003601f168201915b50505050508152602001600282015481526020016003820154815260200160048201548152602001600582015481526020016006820160009054906101000a900473ffffffffffffffffffffffffffffffffffffffff1673ffffffffffffffffffffffffffffffffffffffff1673ffffffffffffffffffffffffffffffffffffffff168152505083838151811061058657610585611b01565b5b602002602001018190525050808060010191505061041b565b50809250505090565b60006105b46003610db8565b60006105c06003610dce565b90506105d6816001610ddc90919063ffffffff16565b15610616576040517f08c379a000000000000000000000000000000000000000000000000000000000815260040161060d90611b7c565b60405180910390fd5b6040518060e0016040528082815260200188888080601f016020809104026020016040519081016040528093929190818152602001838380828437600081840152601f19601f820116905080830192505050505050508152602001848152602001848152602001868152602001858152602001610691610df6565b73ffffffffffffffffffffffffffffffffffffffff16815250600460008381526020019081526020016000206000820151816000015560208201518160010190816106dc9190611d48565b5060408201518160020155606082015181600301556080820151816004015560a0820151816005015560c08201518160060160006101000a81548173ffffffffffffffffffffffffffffffffffffffff021916908373ffffffffffffffffffffffffffffffffffffffff160217905550905050610763816001610dfe90919063ffffffff16565b508091505095945050505050565b6000806000838152602001908152602001600020600101549050919050565b61079982610771565b6107a281610e18565b6107ac8383610e2c565b50505050565b60038060000154905081565b6107c6610df6565b73ffffffffffffffffffffffffffffffffffffffff168173ffffffffffffffffffffffffffffffffffffffff161461082a576040517f6697b23200000000000000000000000000000000000000000000000000000000815260040160405180910390fd5b6108348282610f1d565b505050565b61084d816001610ddc90919063ffffffff16565b61088c576040517f08c379a000000000000000000000000000000000000000000000000000000000815260040161088390611e66565b60405180910390fd5b6108a081600161100f90919063ffffffff16565b50600460008281526020019081526020016000206000808201600090556001820160006108cd91906112b0565b60028201600090556003820160009055600482016000905560058201600090556006820160006101000a81549073ffffffffffffffffffffffffffffffffffffffff0219169055505050565b600460205280600052604060002060009150905080600001549080600101805461094290611ad0565b80601f016020809104026020016040519081016040528092919081815260200182805461096e90611ad0565b80156109bb5780601f10610990576101008083540402835291602001916109bb565b820191906000526020600020905b81548152906001019060200180831161099e57829003601f168201915b5050505050908060020154908060030154908060040154908060050154908060060160009054906101000a900473ffffffffffffffffffffffffffffffffffffffff16905087565b600080600084815260200190815260200160002060000160008373ffffffffffffffffffffffffffffffffffffffff1673ffffffffffffffffffffffffffffffffffffffff16815260200190815260200160002060009054906101000a900460ff16905092915050565b6000801b81565b610a7e8282610cbf565b610abd576040517f08c379a0000000000000000000000000000000000000000000000000000000008152600401610ab490611ed2565b60405180910390fd5b7ff87047b45994f601691ec7e2a3804cc46df6926302592575a734a2b1125df0e18282610ae8610df6565b604051610af793929190611ef2565b60405180910390a15050565b610b0b61125d565b610b1f826001610ddc90919063ffffffff16565b610b5e576040517f08c379a0000000000000000000000000000000000000000000000000000000008152600401610b5590611e66565b60405180910390fd5b600460008381526020019081526020016000206040518060e001604052908160008201548152602001600182018054610b9690611ad0565b80601f0160208091040260200160405190810160405280929190818152602001828054610bc290611ad0565b8015610c0f5780601f10610be457610100808354040283529160200191610c0f565b820191906000526020600020905b815481529060010190602001808311610bf257829003601f168201915b50505050508152602001600282015481526020016003820154815260200160048201548152602001600582015481526020016006820160009054906101000a900473ffffffffffffffffffffffffffffffffffffffff1673ffffffffffffffffffffffffffffffffffffffff1673ffffffffffffffffffffffffffffffffffffffff16815250509050919050565b610ca682610771565b610caf81610e18565b610cb98383610f1d565b50505050565b600081600460008581526020019081526020016000206002015410610d145781600460008581526020019081526020016000206002016000828254610d049190611f58565b9250508190555060019050610d19565b600090505b92915050565b60007f01ffc9a7000000000000000000000000000000000000000000000000000000007bffffffffffffffffffffffffffffffffffffffffffffffffffffffff1916827bffffffffffffffffffffffffffffffffffffffffffffffffffffffff1916149050919050565b6000610d9782600001611029565b9050919050565b6000610dad836000018361103a565b60001c905092915050565b6001816000016000828254019250508190555050565b600081600001549050919050565b6000610dee836000018360001b611065565b905092915050565b600032905090565b6000610e10836000018360001b611088565b905092915050565b610e2981610e24610df6565b6110f8565b50565b6000610e388383610a03565b610f1257600160008085815260200190815260200160002060000160008473ffffffffffffffffffffffffffffffffffffffff1673ffffffffffffffffffffffffffffffffffffffff16815260200190815260200160002060006101000a81548160ff021916908315150217905550610eaf610df6565b73ffffffffffffffffffffffffffffffffffffffff168273ffffffffffffffffffffffffffffffffffffffff16847f2f8788117e7eff1d82e926ec794901d17c78024a50270940304540a733656f0d60405160405180910390a460019050610f17565b600090505b92915050565b6000610f298383610a03565b1561100457600080600085815260200190815260200160002060000160008473ffffffffffffffffffffffffffffffffffffffff1673ffffffffffffffffffffffffffffffffffffffff16815260200190815260200160002060006101000a81548160ff021916908315150217905550610fa1610df6565b73ffffffffffffffffffffffffffffffffffffffff168273ffffffffffffffffffffffffffffffffffffffff16847ff6391f5c32d9c69d2a47ea670b442974b53935d1edc7fd64eb21e047a839171b60405160405180910390a460019050611009565b600090505b92915050565b6000611021836000018360001b611149565b905092915050565b600081600001805490509050919050565b600082600001828154811061105257611051611b01565b5b9060005260206000200154905092915050565b600080836001016000848152602001908152602001600020541415905092915050565b60006110948383611065565b6110ed5782600001829080600181540180825580915050600190039060005260206000200160009091909190915055826000018054905083600101600084815260200190815260200160002081905550600190506110f2565b600090505b92915050565b6111028282610a03565b6111455780826040517fe2517d3f00000000000000000000000000000000000000000000000000000000815260040161113c929190611f8c565b60405180910390fd5b5050565b6000808360010160008481526020019081526020016000205490506000811461125157600060018261117b9190611f58565b90506000600186600001805490506111939190611f58565b90508082146112025760008660000182815481106111b4576111b3611b01565b5b90600052602060002001549050808760000184815481106111d8576111d7611b01565b5b90600052602060002001819055508387600101600083815260200190815260200160002081905550505b8560000180548061121657611215611fb5565b5b600190038181906000526020600020016000905590558560010160008681526020019081526020016000206000905560019350505050611257565b60009150505b92915050565b6040518060e00160405280600081526020016060815260200160008152602001600081526020016000815260200160008152602001600073ffffffffffffffffffffffffffffffffffffffff1681525090565b5080546112bc90611ad0565b6000825580601f106112ce57506112ed565b601f0160209004906000526020600020908101906112ec91906112f0565b5b50565b5b808211156113095760008160009055506001016112f1565b5090565b600080fd5b600080fd5b60007fffffffff0000000000000000000000000000000000000000000000000000000082169050919050565b61134c81611317565b811461135757600080fd5b50565b60008135905061136981611343565b92915050565b6000602082840312156113855761138461130d565b5b60006113938482850161135a565b91505092915050565b60008115159050919050565b6113b18161139c565b82525050565b60006020820190506113cc60008301846113a8565b92915050565b600081519050919050565b600082825260208201905092915050565b6000819050602082019050919050565b6000819050919050565b611411816113fe565b82525050565b600081519050919050565b600082825260208201905092915050565b60005b83811015611451578082015181840152602081019050611436565b60008484015250505050565b6000601f19601f8301169050919050565b600061147982611417565b6114838185611422565b9350611493818560208601611433565b61149c8161145d565b840191505092915050565b600073ffffffffffffffffffffffffffffffffffffffff82169050919050565b60006114d2826114a7565b9050919050565b6114e2816114c7565b82525050565b600060e0830160008301516115006000860182611408565b5060208301518482036020860152611518828261146e565b915050604083015161152d6040860182611408565b5060608301516115406060860182611408565b5060808301516115536080860182611408565b5060a083015161156660a0860182611408565b5060c083015161157960c08601826114d9565b508091505092915050565b600061159083836114e8565b905092915050565b6000602082019050919050565b60006115b0826113d2565b6115ba81856113dd565b9350836020820285016115cc856113ee565b8060005b8581101561160857848403895281516115e98582611584565b94506115f483611598565b925060208a019950506001810190506115d0565b50829750879550505050505092915050565b6000602082019050818103600083015261163481846115a5565b905092915050565b600080fd5b600080fd5b600080fd5b60008083601f8401126116615761166061163c565b5b8235905067ffffffffffffffff81111561167e5761167d611641565b5b60208301915083600182028301111561169a57611699611646565b5b9250929050565b6116aa816113fe565b81146116b557600080fd5b50565b6000813590506116c7816116a1565b92915050565b6000806000806000608086880312156116e9576116e861130d565b5b600086013567ffffffffffffffff81111561170757611706611312565b5b6117138882890161164b565b95509550506020611726888289016116b8565b9350506040611737888289016116b8565b9250506060611748888289016116b8565b9150509295509295909350565b61175e816113fe565b82525050565b60006020820190506117796000830184611755565b92915050565b6000819050919050565b6117928161177f565b811461179d57600080fd5b50565b6000813590506117af81611789565b92915050565b6000602082840312156117cb576117ca61130d565b5b60006117d9848285016117a0565b91505092915050565b6117eb8161177f565b82525050565b600060208201905061180660008301846117e2565b92915050565b611815816114c7565b811461182057600080fd5b50565b6000813590506118328161180c565b92915050565b6000806040838503121561184f5761184e61130d565b5b600061185d858286016117a0565b925050602061186e85828601611823565b9150509250929050565b60006020828403121561188e5761188d61130d565b5b600061189c848285016116b8565b91505092915050565b600082825260208201905092915050565b60006118c182611417565b6118cb81856118a5565b93506118db818560208601611433565b6118e48161145d565b840191505092915050565b6118f8816114c7565b82525050565b600060e082019050611913600083018a611755565b818103602083015261192581896118b6565b90506119346040830188611755565b6119416060830187611755565b61194e6080830186611755565b61195b60a0830185611755565b61196860c08301846118ef565b98975050505050505050565b6000806040838503121561198b5761198a61130d565b5b6000611999858286016116b8565b92505060206119aa858286016116b8565b9150509250929050565b600060e0830160008301516119cc6000860182611408565b50602083015184820360208601526119e4828261146e565b91505060408301516119f96040860182611408565b506060830151611a0c6060860182611408565b506080830151611a1f6080860182611408565b5060a0830151611a3260a0860182611408565b5060c0830151611a4560c08601826114d9565b508091505092915050565b60006020820190508181036000830152611a6a81846119b4565b905092915050565b7f4e487b7100000000000000000000000000000000000000000000000000000000600052604160045260246000fd5b7f4e487b7100000000000000000000000000000000000000000000000000000000600052602260045260246000fd5b60006002820490506001821680611ae857607f821691505b602082108103611afb57611afa611aa1565b5b50919050565b7f4e487b7100000000000000000000000000000000000000000000000000000000600052603260045260246000fd5b7f50726f6475637420616c726561647920726567697374657265642e0000000000600082015250565b6000611b66601b836118a5565b9150611b7182611b30565b602082019050919050565b60006020820190508181036000830152611b9581611b59565b9050919050565b60008190508160005260206000209050919050565b60006020601f8301049050919050565b600082821b905092915050565b600060088302611bfe7fffffffffffffffffffffffffffffffffffffffffffffffffffffffffffffffff82611bc1565b611c088683611bc1565b95508019841693508086168417925050509392505050565b6000819050919050565b6000611c45611c40611c3b846113fe565b611c20565b6113fe565b9050919050565b6000819050919050565b611c5f83611c2a565b611c73611c6b82611c4c565b848454611bce565b825550505050565b600090565b611c88611c7b565b611c93818484611c56565b505050565b5b81811015611cb757611cac600082611c80565b600181019050611c99565b5050565b601f821115611cfc57611ccd81611b9c565b611cd684611bb1565b81016020851015611ce5578190505b611cf9611cf185611bb1565b830182611c98565b50505b505050565b600082821c905092915050565b6000611d1f60001984600802611d01565b1980831691505092915050565b6000611d388383611d0e565b9150826002028217905092915050565b611d5182611417565b67ffffffffffffffff811115611d6a57611d69611a72565b5b611d748254611ad0565b611d7f828285611cbb565b600060209050601f831160018114611db25760008415611da0578287015190505b611daa8582611d2c565b865550611e12565b601f198416611dc086611b9c565b60005b82811015611de857848901518255600182019150602085019450602081019050611dc3565b86831015611e055784890151611e01601f891682611d0e565b8355505b6001600288020188555050505b505050505050565b7f4d6174657269616c20646f6573206e6f742065786973742e0000000000000000600082015250565b6000611e506018836118a5565b9150611e5b82611e1a565b602082019050919050565b60006020820190508181036000830152611e7f81611e43565b9050919050565b7f4f7574206f662053746f636b2100000000000000000000000000000000000000600082015250565b6000611ebc600d836118a5565b9150611ec782611e86565b602082019050919050565b60006020820190508181036000830152611eeb81611eaf565b9050919050565b6000606082019050611f076000830186611755565b611f146020830185611755565b611f2160408301846118ef565b949350505050565b7f4e487b7100000000000000000000000000000000000000000000000000000000600052601160045260246000fd5b6000611f63826113fe565b9150611f6e836113fe565b9250828203905081811115611f8657611f85611f29565b5b92915050565b6000604082019050611fa160008301856118ef565b611fae60208301846117e2565b9392505050565b7f4e487b7100000000000000000000000000000000000000000000000000000000600052603160045260246000fdfea2646970667358221220289f7260cf6e1f27803d3d215931cceed965ab75cdd23dff1dd24a1b4217cbb264736f6c63430008180033",
  "linkReferences": {},
  "deployedLinkReferences": {}
}