{
  "_format": "hh-sol-artifact-1",
  "contractName": "RawMaterials",
  "sourceName": "contracts/RawMaterials.sol",
  "abi": [
    {
      "inputs": [],
      "name": "AccessControlBadConfirmation",
      "type": "error"
    },
    {
      "inputs": [
        {
          "internalType": "address",
          "name": "account",
          "type": "address"
        },
        {
          "internalType": "bytes32",
          "name": "neededRole",
          "type": "bytes32"
        }
      ],
      "name": "AccessControlUnauthorizedAccount",
      "type": "error"
    },
    {
      "anonymous": false,
      "inputs": [
        {
          "indexed": true,
          "internalType": "bytes32",
          "name": "role",
          "type": "bytes32"
        },
        {
          "indexed": true,
          "internalType": "bytes32",
          "name": "previousAdminRole",
          "type": "bytes32"
        },
        {
          "indexed": true,
          "internalType": "bytes32",
          "name": "newAdminRole",
          "type": "bytes32"
        }
      ],
      "name": "RoleAdminChanged",
      "type": "event"
    },
    {
      "anonymous": false,
      "inputs": [
        {
          "indexed": true,
          "internalType": "bytes32",
          "name": "role",
          "type": "bytes32"
        },
        {
          "indexed": true,
          "internalType": "address",
          "name": "account",
          "type": "address"
        },
        {
          "indexed": true,
          "internalType": "address",
          "name": "sender",
          "type": "address"
        }
      ],
      "name": "RoleGranted",
      "type": "event"
    },
    {
      "anonymous": false,
      "inputs": [
        {
          "indexed": true,
          "internalType": "bytes32",
          "name": "role",
          "type": "bytes32"
        },
        {
          "indexed": true,
          "internalType": "address",
          "name": "account",
          "type": "address"
        },
        {
          "indexed": true,
          "internalType": "address",
          "name": "sender",
          "type": "address"
        }
      ],
      "name": "RoleRevoked",
      "type": "event"
    },
    {
      "inputs": [],
      "name": "DEFAULT_ADMIN_ROLE",
      "outputs": [
        {
          "internalType": "bytes32",
          "name": "",
          "type": "bytes32"
        }
      ],
      "stateMutability": "view",
      "type": "function"
    },
    {
      "inputs": [
        {
          "internalType": "string",
          "name": "name",
          "type": "string"
        },
        {
          "internalType": "uint256",
          "name": "price",
          "type": "uint256"
        },
        {
          "internalType": "uint256",
          "name": "tax",
          "type": "uint256"
        },
        {
          "internalType": "uint256",
          "name": "quantity",
          "type": "uint256"
        }
      ],
      "name": "addRawMaterial",
      "outputs": [
        {
          "internalType": "uint256",
          "name": "",
          "type": "uint256"
        }
      ],
      "stateMutability": "nonpayable",
      "type": "function"
    },
    {
      "inputs": [],
      "name": "getAllRawMaterials",
      "outputs": [
        {
          "components": [
            {
              "internalType": "uint256",
              "name": "id",
              "type": "uint256"
            },
            {
              "internalType": "string",
              "name": "name",
              "type": "string"
            },
            {
              "internalType": "uint256",
              "name": "quantity",
              "type": "uint256"
            },
            {
              "internalType": "uint256",
              "name": "available",
              "type": "uint256"
            },
            {
              "internalType": "uint256",
              "name": "price",
              "type": "uint256"
            },
            {
              "internalType": "uint256",
              "name": "tax",
              "type": "uint256"
            },
            {
              "internalType": "address",
              "name": "owner",
              "type": "address"
            }
          ],
          "internalType": "struct RawMaterials.RawMaterial[]",
          "name": "",
          "type": "tuple[]"
        }
      ],
      "stateMutability": "view",
      "type": "function"
    },
    {
      "inputs": [
        {
          "internalType": "uint256",
          "name": "id",
          "type": "uint256"
        }
      ],
      "name": "getRawMaterial",
      "outputs": [
        {
          "components": [
            {
              "internalType": "uint256",
              "name": "id",
              "type": "uint256"
            },
            {
              "internalType": "string",
              "name": "name",
              "type": "string"
            },
            {
              "internalType": "uint256",
              "name": "quantity",
              "type": "uint256"
            },
            {
              "internalType": "uint256",
              "name": "available",
              "type": "uint256"
            },
            {
              "internalType": "uint256",
              "name": "price",
              "type": "uint256"
            },
            {
              "internalType": "uint256",
              "name": "tax",
              "type": "uint256"
            },
            {
              "internalType": "address",
              "name": "owner",
              "type": "address"
            }
          ],
          "internalType": "struct RawMaterials.RawMaterial",
          "name": "",
          "type": "tuple"
        }
      ],
      "stateMutability": "view",
      "type": "function"
    },
    {
      "inputs": [
        {
          "internalType": "bytes32",
          "name": "role",
          "type": "bytes32"
        }
      ],
      "name": "getRoleAdmin",
      "outputs": [
        {
          "internalType": "bytes32",
          "name": "",
          "type": "bytes32"
        }
      ],
      "stateMutability": "view",
      "type": "function"
    },
    {
      "inputs": [
        {
          "internalType": "bytes32",
          "name": "role",
          "type": "bytes32"
        },
        {
          "internalType": "address",
          "name": "account",
          "type": "address"
        }
      ],
      "name": "grantRole",
      "outputs": [],
      "stateMutability": "nonpayable",
      "type": "function"
    },
    {
      "inputs": [
        {
          "internalType": "bytes32",
          "name": "role",
          "type": "bytes32"
        },
        {
          "internalType": "address",
          "name": "account",
          "type": "address"
        }
      ],
      "name": "hasRole",
      "outputs": [
        {
          "internalType": "bool",
          "name": "",
          "type": "bool"
        }
      ],
      "stateMutability": "view",
      "type": "function"
    },
    {
      "inputs": [],
      "name": "materialIdCounter",
      "outputs": [
        {
          "internalType": "uint256",
          "name": "_value",
          "type": "uint256"
        }
      ],
      "stateMutability": "view",
      "type": "function"
    },
    {
      "inputs": [
        {
          "internalType": "uint256",
          "name": "",
          "type": "uint256"
        }
      ],
      "name": "materials",
      "outputs": [
        {
          "internalType": "uint256",
          "name": "id",
          "type": "uint256"
        },
        {
          "internalType": "string",
          "name": "name",
          "type": "string"
        },
        {
          "internalType": "uint256",
          "name": "quantity",
          "type": "uint256"
        },
        {
          "internalType": "uint256",
          "name": "available",
          "type": "uint256"
        },
        {
          "internalType": "uint256",
          "name": "price",
          "type": "uint256"
        },
        {
          "internalType": "uint256",
          "name": "tax",
          "type": "uint256"
        },
        {
          "internalType": "address",
          "name": "owner",
          "type": "address"
        }
      ],
      "stateMutability": "view",
      "type": "function"
    },
    {
      "inputs": [
        {
          "internalType": "uint256",
          "name": "id",
          "type": "uint256"
        },
        {
          "internalType": "uint256",
          "name": "quantity",
          "type": "uint256"
        }
      ],
      "name": "reduceQuantity",
      "outputs": [
        {
          "internalType": "bool",
          "name": "",
          "type": "bool"
        }
      ],
      "stateMutability": "nonpayable",
      "type": "function"
    },
    {
      "inputs": [
        {
          "internalType": "uint256",
          "name": "id",
          "type": "uint256"
        }
      ],
      "name": "removeRawMaterial",
      "outputs": [],
      "stateMutability": "nonpayable",
      "type": "function"
    },
    {
      "inputs": [
        {
          "internalType": "bytes32",
          "name": "role",
          "type": "bytes32"
        },
        {
          "internalType": "address",
          "name": "callerConfirmation",
          "type": "address"
        }
      ],
      "name": "renounceRole",
      "outputs": [],
      "stateMutability": "nonpayable",
      "type": "function"
    },
    {
      "inputs": [
        {
          "internalType": "bytes32",
          "name": "role",
          "type": "bytes32"
        },
        {
          "internalType": "address",
          "name": "account",
          "type": "address"
        }
      ],
      "name": "revokeRole",
      "outputs": [],
      "stateMutability": "nonpayable",
      "type": "function"
    },
    {
      "inputs": [
        {
          "internalType": "bytes4",
          "name": "interfaceId",
          "type": "bytes4"
        }
      ],
      "name": "supportsInterface",
      "outputs": [
        {
          "internalType": "bool",
          "name": "",
          "type": "bool"
        }
      ],
      "stateMutability": "view",
      "type": "function"
    }
  ],
  "bytecode": "0x608060405234801561001057600080fd5b50611ec1806100206000396000f3fe608060405234801561001057600080fd5b50600436106100ea5760003560e01c806391d148541161008c578063d547741f11610066578063d547741f14610287578063eedb3348146102a3578063ef6bf697146102c1578063fac0992d146102f1576100ea565b806391d1485414610209578063a217fddf14610239578063c8012aa314610257576100ea565b806336568abe116100c857806336568abe1461016b5780635aff3e82146101875780635cb93e84146101a35780637a8e8526146101d3576100ea565b806301ffc9a7146100ef578063248a9ca31461011f5780632f2ff15d1461014f575b600080fd5b610109600480360381019061010491906112b9565b61030f565b6040516101169190611301565b60405180910390f35b61013960048036038101906101349190611352565b610389565b604051610146919061138e565b60405180910390f35b61016960048036038101906101649190611407565b6103a8565b005b61018560048036038101906101809190611407565b6103ca565b005b6101a1600480360381019061019c919061147d565b610445565b005b6101bd60048036038101906101b8919061147d565b610525565b6040516101ca91906115f4565b60405180910390f35b6101ed60048036038101906101e8919061147d565b6106bf565b604051610200979695949392919061167e565b60405180910390f35b610223600480360381019061021e9190611407565b6107a9565b6040516102309190611301565b60405180910390f35b610241610813565b60405161024e919061138e565b60405180910390f35b610271600480360381019061026c9190611759565b61081a565b60405161027e91906117e1565b60405180910390f35b6102a1600480360381019061029c9190611407565b6109e3565b005b6102ab610a05565b6040516102b891906117e1565b60405180910390f35b6102db60048036038101906102d691906117fc565b610a11565b6040516102e89190611301565b60405180910390f35b6102f9610a71565b604051610306919061199a565b60405180910390f35b60007f7965db0b000000000000000000000000000000000000000000000000000000007bffffffffffffffffffffffffffffffffffffffffffffffffffffffff1916827bffffffffffffffffffffffffffffffffffffffffffffffffffffffff19161480610382575061038182610c69565b5b9050919050565b6000806000838152602001908152602001600020600101549050919050565b6103b182610389565b6103ba81610cd3565b6103c48383610ce7565b50505050565b6103d2610dd8565b73ffffffffffffffffffffffffffffffffffffffff168173ffffffffffffffffffffffffffffffffffffffff1614610436576040517f6697b23200000000000000000000000000000000000000000000000000000000815260040160405180910390fd5b6104408282610de0565b505050565b610459816001610ed290919063ffffffff16565b610498576040517f08c379a000000000000000000000000000000000000000000000000000000000815260040161048f90611a08565b60405180910390fd5b6104ac816001610eec90919063ffffffff16565b50600360008281526020019081526020016000206000808201600090556001820160006104d991906111a7565b60028201600090556003820160009055600482016000905560058201600090556006820160006101000a81549073ffffffffffffffffffffffffffffffffffffffff0219169055505050565b61052d6111e7565b610541826001610ed290919063ffffffff16565b610580576040517f08c379a000000000000000000000000000000000000000000000000000000000815260040161057790611a08565b60405180910390fd5b600360008381526020019081526020016000206040518060e0016040529081600082015481526020016001820180546105b890611a57565b80601f01602080910402602001604051908101604052809291908181526020018280546105e490611a57565b80156106315780601f1061060657610100808354040283529160200191610631565b820191906000526020600020905b81548152906001019060200180831161061457829003601f168201915b50505050508152602001600282015481526020016003820154815260200160048201548152602001600582015481526020016006820160009054906101000a900473ffffffffffffffffffffffffffffffffffffffff1673ffffffffffffffffffffffffffffffffffffffff1673ffffffffffffffffffffffffffffffffffffffff16815250509050919050565b60036020528060005260406000206000915090508060000154908060010180546106e890611a57565b80601f016020809104026020016040519081016040528092919081815260200182805461071490611a57565b80156107615780601f1061073657610100808354040283529160200191610761565b820191906000526020600020905b81548152906001019060200180831161074457829003601f168201915b5050505050908060020154908060030154908060040154908060050154908060060160009054906101000a900473ffffffffffffffffffffffffffffffffffffffff16905087565b600080600084815260200190815260200160002060000160008373ffffffffffffffffffffffffffffffffffffffff1673ffffffffffffffffffffffffffffffffffffffff16815260200190815260200160002060009054906101000a900460ff16905092915050565b6000801b81565b60006108266004610f06565b60006108326004610f1c565b9050610848816001610ed290919063ffffffff16565b15610888576040517f08c379a000000000000000000000000000000000000000000000000000000000815260040161087f90611ad4565b60405180910390fd5b6040518060e0016040528082815260200188888080601f016020809104026020016040519081016040528093929190818152602001838380828437600081840152601f19601f820116905080830192505050505050508152602001848152602001848152602001868152602001858152602001610903610dd8565b73ffffffffffffffffffffffffffffffffffffffff168152506003600083815260200190815260200160002060008201518160000155602082015181600101908161094e9190611ccf565b5060408201518160020155606082015181600301556080820151816004015560a0820151816005015560c08201518160060160006101000a81548173ffffffffffffffffffffffffffffffffffffffff021916908373ffffffffffffffffffffffffffffffffffffffff1602179055509050506109d5816001610f2a90919063ffffffff16565b508091505095945050505050565b6109ec82610389565b6109f581610cd3565b6109ff8383610de0565b50505050565b60048060000154905081565b600081600360008581526020019081526020016000206002015410610a665781600360008581526020019081526020016000206002016000828254610a569190611dd0565b9250508190555060019050610a6b565b600090505b92915050565b60606000610a7f6001610f44565b905060008167ffffffffffffffff811115610a9d57610a9c611af4565b5b604051908082528060200260200182016040528015610ad657816020015b610ac36111e7565b815260200190600190039081610abb5790505b50905060005b82811015610c60576000610afa826001610f5990919063ffffffff16565b9050600360008281526020019081526020016000206040518060e001604052908160008201548152602001600182018054610b3490611a57565b80601f0160208091040260200160405190810160405280929190818152602001828054610b6090611a57565b8015610bad5780601f10610b8257610100808354040283529160200191610bad565b820191906000526020600020905b815481529060010190602001808311610b9057829003601f168201915b50505050508152602001600282015481526020016003820154815260200160048201548152602001600582015481526020016006820160009054906101000a900473ffffffffffffffffffffffffffffffffffffffff1673ffffffffffffffffffffffffffffffffffffffff1673ffffffffffffffffffffffffffffffffffffffff1681525050838381518110610c4757610c46611e04565b5b6020026020010181905250508080600101915050610adc565b50809250505090565b60007f01ffc9a7000000000000000000000000000000000000000000000000000000007bffffffffffffffffffffffffffffffffffffffffffffffffffffffff1916827bffffffffffffffffffffffffffffffffffffffffffffffffffffffff1916149050919050565b610ce481610cdf610dd8565b610f73565b50565b6000610cf383836107a9565b610dcd57600160008085815260200190815260200160002060000160008473ffffffffffffffffffffffffffffffffffffffff1673ffffffffffffffffffffffffffffffffffffffff16815260200190815260200160002060006101000a81548160ff021916908315150217905550610d6a610dd8565b73ffffffffffffffffffffffffffffffffffffffff168273ffffffffffffffffffffffffffffffffffffffff16847f2f8788117e7eff1d82e926ec794901d17c78024a50270940304540a733656f0d60405160405180910390a460019050610dd2565b600090505b92915050565b600032905090565b6000610dec83836107a9565b15610ec757600080600085815260200190815260200160002060000160008473ffffffffffffffffffffffffffffffffffffffff1673ffffffffffffffffffffffffffffffffffffffff16815260200190815260200160002060006101000a81548160ff021916908315150217905550610e64610dd8565b73ffffffffffffffffffffffffffffffffffffffff168273ffffffffffffffffffffffffffffffffffffffff16847ff6391f5c32d9c69d2a47ea670b442974b53935d1edc7fd64eb21e047a839171b60405160405180910390a460019050610ecc565b600090505b92915050565b6000610ee4836000018360001b610fc4565b905092915050565b6000610efe836000018360001b610fe7565b905092915050565b6001816000016000828254019250508190555050565b600081600001549050919050565b6000610f3c836000018360001b6110fb565b905092915050565b6000610f528260000161116b565b9050919050565b6000610f68836000018361117c565b60001c905092915050565b610f7d82826107a9565b610fc05780826040517fe2517d3f000000000000000000000000000000000000000000000000000000008152600401610fb7929190611e33565b60405180910390fd5b5050565b600080836001016000848152602001908152602001600020541415905092915050565b600080836001016000848152602001908152602001600020549050600081146110ef5760006001826110199190611dd0565b90506000600186600001805490506110319190611dd0565b90508082146110a057600086600001828154811061105257611051611e04565b5b906000526020600020015490508087600001848154811061107657611075611e04565b5b90600052602060002001819055508387600101600083815260200190815260200160002081905550505b856000018054806110b4576110b3611e5c565b5b6001900381819060005260206000200160009055905585600101600086815260200190815260200160002060009055600193505050506110f5565b60009150505b92915050565b60006111078383610fc4565b611160578260000182908060018154018082558091505060019003906000526020600020016000909190919091505582600001805490508360010160008481526020019081526020016000208190555060019050611165565b600090505b92915050565b600081600001805490509050919050565b600082600001828154811061119457611193611e04565b5b9060005260206000200154905092915050565b5080546111b390611a57565b6000825580601f106111c557506111e4565b601f0160209004906000526020600020908101906111e3919061123a565b5b50565b6040518060e00160405280600081526020016060815260200160008152602001600081526020016000815260200160008152602001600073ffffffffffffffffffffffffffffffffffffffff1681525090565b5b8082111561125357600081600090555060010161123b565b5090565b600080fd5b600080fd5b60007fffffffff0000000000000000000000000000000000000000000000000000000082169050919050565b61129681611261565b81146112a157600080fd5b50565b6000813590506112b38161128d565b92915050565b6000602082840312156112cf576112ce611257565b5b60006112dd848285016112a4565b91505092915050565b60008115159050919050565b6112fb816112e6565b82525050565b600060208201905061131660008301846112f2565b92915050565b6000819050919050565b61132f8161131c565b811461133a57600080fd5b50565b60008135905061134c81611326565b92915050565b60006020828403121561136857611367611257565b5b60006113768482850161133d565b91505092915050565b6113888161131c565b82525050565b60006020820190506113a3600083018461137f565b92915050565b600073ffffffffffffffffffffffffffffffffffffffff82169050919050565b60006113d4826113a9565b9050919050565b6113e4816113c9565b81146113ef57600080fd5b50565b600081359050611401816113db565b92915050565b6000806040838503121561141e5761141d611257565b5b600061142c8582860161133d565b925050602061143d858286016113f2565b9150509250929050565b6000819050919050565b61145a81611447565b811461146557600080fd5b50565b60008135905061147781611451565b92915050565b60006020828403121561149357611492611257565b5b60006114a184828501611468565b91505092915050565b6114b381611447565b82525050565b600081519050919050565b600082825260208201905092915050565b60005b838110156114f35780820151818401526020810190506114d8565b60008484015250505050565b6000601f19601f8301169050919050565b600061151b826114b9565b61152581856114c4565b93506115358185602086016114d5565b61153e816114ff565b840191505092915050565b611552816113c9565b82525050565b600060e08301600083015161157060008601826114aa565b50602083015184820360208601526115888282611510565b915050604083015161159d60408601826114aa565b5060608301516115b060608601826114aa565b5060808301516115c360808601826114aa565b5060a08301516115d660a08601826114aa565b5060c08301516115e960c0860182611549565b508091505092915050565b6000602082019050818103600083015261160e8184611558565b905092915050565b61161f81611447565b82525050565b600082825260208201905092915050565b6000611641826114b9565b61164b8185611625565b935061165b8185602086016114d5565b611664816114ff565b840191505092915050565b611678816113c9565b82525050565b600060e082019050611693600083018a611616565b81810360208301526116a58189611636565b90506116b46040830188611616565b6116c16060830187611616565b6116ce6080830186611616565b6116db60a0830185611616565b6116e860c083018461166f565b98975050505050505050565b600080fd5b600080fd5b600080fd5b60008083601f840112611719576117186116f4565b5b8235905067ffffffffffffffff811115611736576117356116f9565b5b602083019150836001820283011115611752576117516116fe565b5b9250929050565b60008060008060006080868803121561177557611774611257565b5b600086013567ffffffffffffffff8111156117935761179261125c565b5b61179f88828901611703565b955095505060206117b288828901611468565b93505060406117c388828901611468565b92505060606117d488828901611468565b9150509295509295909350565b60006020820190506117f66000830184611616565b92915050565b6000806040838503121561181357611812611257565b5b600061182185828601611468565b925050602061183285828601611468565b9150509250929050565b600081519050919050565b600082825260208201905092915050565b6000819050602082019050919050565b600060e08301600083015161188060008601826114aa565b50602083015184820360208601526118988282611510565b91505060408301516118ad60408601826114aa565b5060608301516118c060608601826114aa565b5060808301516118d360808601826114aa565b5060a08301516118e660a08601826114aa565b5060c08301516118f960c0860182611549565b508091505092915050565b60006119108383611868565b905092915050565b6000602082019050919050565b60006119308261183c565b61193a8185611847565b93508360208202850161194c85611858565b8060005b8581101561198857848403895281516119698582611904565b945061197483611918565b925060208a01995050600181019050611950565b50829750879550505050505092915050565b600060208201905081810360008301526119b48184611925565b905092915050565b7f4d6174657269616c20646f6573206e6f742065786973742e0000000000000000600082015250565b60006119f2601883611625565b91506119fd826119bc565b602082019050919050565b60006020820190508181036000830152611a21816119e5565b9050919050565b7f4e487b7100000000000000000000000000000000000000000000000000000000600052602260045260246000fd5b60006002820490506001821680611a6f57607f821691505b602082108103611a8257611a81611a28565b5b50919050565b7f4d6174657269616c20616c726561647920726567697374657265642e00000000600082015250565b6000611abe601c83611625565b9150611ac982611a88565b602082019050919050565b60006020820190508181036000830152611aed81611ab1565b9050919050565b7f4e487b7100000000000000000000000000000000000000000000000000000000600052604160045260246000fd5b60008190508160005260206000209050919050565b60006020601f8301049050919050565b600082821b905092915050565b600060088302611b857fffffffffffffffffffffffffffffffffffffffffffffffffffffffffffffffff82611b48565b611b8f8683611b48565b95508019841693508086168417925050509392505050565b6000819050919050565b6000611bcc611bc7611bc284611447565b611ba7565b611447565b9050919050565b6000819050919050565b611be683611bb1565b611bfa611bf282611bd3565b848454611b55565b825550505050565b600090565b611c0f611c02565b611c1a818484611bdd565b505050565b5b81811015611c3e57611c33600082611c07565b600181019050611c20565b5050565b601f821115611c8357611c5481611b23565b611c5d84611b38565b81016020851015611c6c578190505b611c80611c7885611b38565b830182611c1f565b50505b505050565b600082821c905092915050565b6000611ca660001984600802611c88565b1980831691505092915050565b6000611cbf8383611c95565b9150826002028217905092915050565b611cd8826114b9565b67ffffffffffffffff811115611cf157611cf0611af4565b5b611cfb8254611a57565b611d06828285611c42565b600060209050601f831160018114611d395760008415611d27578287015190505b611d318582611cb3565b865550611d99565b601f198416611d4786611b23565b60005b82811015611d6f57848901518255600182019150602085019450602081019050611d4a565b86831015611d8c5784890151611d88601f891682611c95565b8355505b6001600288020188555050505b505050505050565b7f4e487b7100000000000000000000000000000000000000000000000000000000600052601160045260246000fd5b6000611ddb82611447565b9150611de683611447565b9250828203905081811115611dfe57611dfd611da1565b5b92915050565b7f4e487b7100000000000000000000000000000000000000000000000000000000600052603260045260246000fd5b6000604082019050611e48600083018561166f565b611e55602083018461137f565b9392505050565b7f4e487b7100000000000000000000000000000000000000000000000000000000600052603160045260246000fdfea2646970667358221220d0e3f08a5399fc727ec4d5c8a520e5d547651d43cfbc6f40c8331c3a173fae0f64736f6c63430008180033",
  "linkReferences": {},
  "deployedLinkReferences": {}
}