{
  "_format": "hh-sol-artifact-1",
  "contractName": "SupplySphere",
  "sourceName": "contracts/SupplySphere.sol",
  "abi": [
    {
      "inputs": [
        {
          "internalType": "contract IERC20",
          "name": "_paymentToken",
          "type": "address"
        },
        {
          "internalType": "contract Logistics",
          "name": "_logistics",
          "type": "address"
        },
        {
          "internalType": "contract Products",
          "name": "_products",
          "type": "address"
        },
        {
          "internalType": "contract RawMaterials",
          "name": "_rawMaterials",
          "type": "address"
        },
        {
          "internalType": "contract Services",
          "name": "_services",
          "type": "address"
        },
        {
          "internalType": "contract SupplyChain",
          "name": "_supplyChain",
          "type": "address"
        }
      ],
      "stateMutability": "nonpayable",
      "type": "constructor"
    },
    {
      "inputs": [],
      "name": "AccessControlBadConfirmation",
      "type": "error"
    },
    {
      "inputs": [
        {
          "internalType": "address",
          "name": "account",
          "type": "address"
        },
        {
          "internalType": "bytes32",
          "name": "neededRole",
          "type": "bytes32"
        }
      ],
      "name": "AccessControlUnauthorizedAccount",
      "type": "error"
    },
    {
      "anonymous": false,
      "inputs": [
        {
          "indexed": true,
          "internalType": "bytes32",
          "name": "role",
          "type": "bytes32"
        },
        {
          "indexed": true,
          "internalType": "bytes32",
          "name": "previousAdminRole",
          "type": "bytes32"
        },
        {
          "indexed": true,
          "internalType": "bytes32",
          "name": "newAdminRole",
          "type": "bytes32"
        }
      ],
      "name": "RoleAdminChanged",
      "type": "event"
    },
    {
      "anonymous": false,
      "inputs": [
        {
          "indexed": true,
          "internalType": "bytes32",
          "name": "role",
          "type": "bytes32"
        },
        {
          "indexed": true,
          "internalType": "address",
          "name": "account",
          "type": "address"
        },
        {
          "indexed": true,
          "internalType": "address",
          "name": "sender",
          "type": "address"
        }
      ],
      "name": "RoleGranted",
      "type": "event"
    },
    {
      "anonymous": false,
      "inputs": [
        {
          "indexed": true,
          "internalType": "bytes32",
          "name": "role",
          "type": "bytes32"
        },
        {
          "indexed": true,
          "internalType": "address",
          "name": "account",
          "type": "address"
        },
        {
          "indexed": true,
          "internalType": "address",
          "name": "sender",
          "type": "address"
        }
      ],
      "name": "RoleRevoked",
      "type": "event"
    },
    {
      "inputs": [],
      "name": "DEFAULT_ADMIN_ROLE",
      "outputs": [
        {
          "internalType": "bytes32",
          "name": "",
          "type": "bytes32"
        }
      ],
      "stateMutability": "view",
      "type": "function"
    },
    {
      "inputs": [],
      "name": "MANUFACTURER_ROLE",
      "outputs": [
        {
          "internalType": "bytes32",
          "name": "",
          "type": "bytes32"
        }
      ],
      "stateMutability": "view",
      "type": "function"
    },
    {
      "inputs": [],
      "name": "RETAILER_ROLE",
      "outputs": [
        {
          "internalType": "bytes32",
          "name": "",
          "type": "bytes32"
        }
      ],
      "stateMutability": "view",
      "type": "function"
    },
    {
      "inputs": [],
      "name": "SELLER_ROLE",
      "outputs": [
        {
          "internalType": "bytes32",
          "name": "",
          "type": "bytes32"
        }
      ],
      "stateMutability": "view",
      "type": "function"
    },
    {
      "inputs": [],
      "name": "TRANSPORTER_ROLE",
      "outputs": [
        {
          "internalType": "bytes32",
          "name": "",
          "type": "bytes32"
        }
      ],
      "stateMutability": "view",
      "type": "function"
    },
    {
      "inputs": [
        {
          "internalType": "string",
          "name": "name",
          "type": "string"
        },
        {
          "internalType": "uint256",
          "name": "price",
          "type": "uint256"
        }
      ],
      "name": "addLogistic",
      "outputs": [
        {
          "internalType": "uint256",
          "name": "",
          "type": "uint256"
        }
      ],
      "stateMutability": "nonpayable",
      "type": "function"
    },
    {
      "inputs": [
        {
          "internalType": "string",
          "name": "name",
          "type": "string"
        },
        {
          "internalType": "uint256",
          "name": "price",
          "type": "uint256"
        },
        {
          "internalType": "uint256",
          "name": "tax",
          "type": "uint256"
        },
        {
          "internalType": "uint256",
          "name": "quantity",
          "type": "uint256"
        }
      ],
      "name": "addProduct",
      "outputs": [
        {
          "internalType": "uint256",
          "name": "",
          "type": "uint256"
        }
      ],
      "stateMutability": "nonpayable",
      "type": "function"
    },
    {
      "inputs": [
        {
          "internalType": "string",
          "name": "name",
          "type": "string"
        },
        {
          "internalType": "uint256",
          "name": "price",
          "type": "uint256"
        },
        {
          "internalType": "uint256",
          "name": "tax",
          "type": "uint256"
        },
        {
          "internalType": "uint256",
          "name": "quantity",
          "type": "uint256"
        }
      ],
      "name": "addRawMaterial",
      "outputs": [
        {
          "internalType": "uint256",
          "name": "",
          "type": "uint256"
        }
      ],
      "stateMutability": "nonpayable",
      "type": "function"
    },
    {
      "inputs": [
        {
          "internalType": "string",
          "name": "name",
          "type": "string"
        },
        {
          "internalType": "uint256",
          "name": "price",
          "type": "uint256"
        },
        {
          "internalType": "uint256",
          "name": "tax",
          "type": "uint256"
        },
        {
          "internalType": "uint256",
          "name": "quantity",
          "type": "uint256"
        },
        {
          "internalType": "uint256",
          "name": "volume",
          "type": "uint256"
        }
      ],
      "name": "addService",
      "outputs": [
        {
          "internalType": "uint256",
          "name": "",
          "type": "uint256"
        }
      ],
      "stateMutability": "nonpayable",
      "type": "function"
    },
    {
      "inputs": [
        {
          "internalType": "uint256",
          "name": "supplyChainId",
          "type": "uint256"
        },
        {
          "internalType": "uint256",
          "name": "stepId",
          "type": "uint256"
        }
      ],
      "name": "confirmReceiver",
      "outputs": [],
      "stateMutability": "nonpayable",
      "type": "function"
    },
    {
      "inputs": [
        {
          "internalType": "uint256",
          "name": "supplyChainId",
          "type": "uint256"
        },
        {
          "internalType": "uint256",
          "name": "stepId",
          "type": "uint256"
        }
      ],
      "name": "confirmSender",
      "outputs": [],
      "stateMutability": "nonpayable",
      "type": "function"
    },
    {
      "inputs": [
        {
          "internalType": "uint256",
          "name": "supplyChainId",
          "type": "uint256"
        },
        {
          "internalType": "uint256",
          "name": "stepId",
          "type": "uint256"
        }
      ],
      "name": "confirmTransporterDelivered",
      "outputs": [],
      "stateMutability": "nonpayable",
      "type": "function"
    },
    {
      "inputs": [
        {
          "internalType": "uint256",
          "name": "supplyChainId",
          "type": "uint256"
        },
        {
          "internalType": "uint256",
          "name": "stepId",
          "type": "uint256"
        }
      ],
      "name": "confirmTransporterReceived",
      "outputs": [],
      "stateMutability": "nonpayable",
      "type": "function"
    },
    {
      "inputs": [
        {
          "internalType": "string",
          "name": "name",
          "type": "string"
        },
        {
          "internalType": "string",
          "name": "description",
          "type": "string"
        },
        {
          "components": [
            {
              "internalType": "enum SupplyChain.StepType",
              "name": "stepType",
              "type": "uint8"
            },
            {
              "internalType": "uint256",
              "name": "itemId",
              "type": "uint256"
            },
            {
              "internalType": "uint256",
              "name": "logisticsId",
              "type": "uint256"
            },
            {
              "internalType": "uint256",
              "name": "quantity",
              "type": "uint256"
            },
            {
              "internalType": "address",
              "name": "receiver",
              "type": "address"
            }
          ],
          "internalType": "struct SupplyChain.StepInput[]",
          "name": "_steps",
          "type": "tuple[]"
        }
      ],
      "name": "createSupplyChain",
      "outputs": [
        {
          "internalType": "uint256",
          "name": "",
          "type": "uint256"
        }
      ],
      "stateMutability": "nonpayable",
      "type": "function"
    },
    {
      "inputs": [
        {
          "internalType": "uint256",
          "name": "chainId",
          "type": "uint256"
        }
      ],
      "name": "fundChain",
      "outputs": [],
      "stateMutability": "nonpayable",
      "type": "function"
    },
    {
      "inputs": [],
      "name": "getAllLogistics",
      "outputs": [
        {
          "components": [
            {
              "internalType": "uint256",
              "name": "id",
              "type": "uint256"
            },
            {
              "internalType": "string",
              "name": "name",
              "type": "string"
            },
            {
              "internalType": "address",
              "name": "owner",
              "type": "address"
            },
            {
              "internalType": "uint256",
              "name": "price",
              "type": "uint256"
            }
          ],
          "internalType": "struct Logistics.Logistic[]",
          "name": "",
          "type": "tuple[]"
        }
      ],
      "stateMutability": "view",
      "type": "function"
    },
    {
      "inputs": [],
      "name": "getAllProducts",
      "outputs": [
        {
          "components": [
            {
              "internalType": "uint256",
              "name": "id",
              "type": "uint256"
            },
            {
              "internalType": "string",
              "name": "name",
              "type": "string"
            },
            {
              "internalType": "uint256",
              "name": "quantity",
              "type": "uint256"
            },
            {
              "internalType": "uint256",
              "name": "available",
              "type": "uint256"
            },
            {
              "internalType": "uint256",
              "name": "price",
              "type": "uint256"
            },
            {
              "internalType": "uint256",
              "name": "tax",
              "type": "uint256"
            },
            {
              "internalType": "address",
              "name": "owner",
              "type": "address"
            }
          ],
          "internalType": "struct Products.Product[]",
          "name": "",
          "type": "tuple[]"
        }
      ],
      "stateMutability": "view",
      "type": "function"
    },
    {
      "inputs": [],
      "name": "getAllRawMaterials",
      "outputs": [
        {
          "components": [
            {
              "internalType": "uint256",
              "name": "id",
              "type": "uint256"
            },
            {
              "internalType": "string",
              "name": "name",
              "type": "string"
            },
            {
              "internalType": "uint256",
              "name": "quantity",
              "type": "uint256"
            },
            {
              "internalType": "uint256",
              "name": "available",
              "type": "uint256"
            },
            {
              "internalType": "uint256",
              "name": "price",
              "type": "uint256"
            },
            {
              "internalType": "uint256",
              "name": "tax",
              "type": "uint256"
            },
            {
              "internalType": "address",
              "name": "owner",
              "type": "address"
            }
          ],
          "internalType": "struct RawMaterials.RawMaterial[]",
          "name": "",
          "type": "tuple[]"
        }
      ],
      "stateMutability": "view",
      "type": "function"
    },
    {
      "inputs": [],
      "name": "getAllServices",
      "outputs": [
        {
          "components": [
            {
              "internalType": "uint256",
              "name": "id",
              "type": "uint256"
            },
            {
              "internalType": "string",
              "name": "name",
              "type": "string"
            },
            {
              "internalType": "uint256",
              "name": "price",
              "type": "uint256"
            },
            {
              "internalType": "uint256",
              "name": "tax",
              "type": "uint256"
            },
            {
              "internalType": "uint256",
              "name": "quantity",
              "type": "uint256"
            },
            {
              "internalType": "uint256",
              "name": "volume",
              "type": "uint256"
            },
            {
              "internalType": "address",
              "name": "owner",
              "type": "address"
            }
          ],
          "internalType": "struct Services.Service[]",
          "name": "",
          "type": "tuple[]"
        }
      ],
      "stateMutability": "view",
      "type": "function"
    },
    {
      "inputs": [
        {
          "internalType": "uint256",
          "name": "id",
          "type": "uint256"
        }
      ],
      "name": "getLogistic",
      "outputs": [
        {
          "components": [
            {
              "internalType": "uint256",
              "name": "id",
              "type": "uint256"
            },
            {
              "internalType": "string",
              "name": "name",
              "type": "string"
            },
            {
              "internalType": "address",
              "name": "owner",
              "type": "address"
            },
            {
              "internalType": "uint256",
              "name": "price",
              "type": "uint256"
            }
          ],
          "internalType": "struct Logistics.Logistic",
          "name": "",
          "type": "tuple"
        }
      ],
      "stateMutability": "view",
      "type": "function"
    },
    {
      "inputs": [
        {
          "internalType": "uint256",
          "name": "id",
          "type": "uint256"
        }
      ],
      "name": "getProduct",
      "outputs": [
        {
          "components": [
            {
              "internalType": "uint256",
              "name": "id",
              "type": "uint256"
            },
            {
              "internalType": "string",
              "name": "name",
              "type": "string"
            },
            {
              "internalType": "uint256",
              "name": "quantity",
              "type": "uint256"
            },
            {
              "internalType": "uint256",
              "name": "available",
              "type": "uint256"
            },
            {
              "internalType": "uint256",
              "name": "price",
              "type": "uint256"
            },
            {
              "internalType": "uint256",
              "name": "tax",
              "type": "uint256"
            },
            {
              "internalType": "address",
              "name": "owner",
              "type": "address"
            }
          ],
          "internalType": "struct Products.Product",
          "name": "",
          "type": "tuple"
        }
      ],
      "stateMutability": "view",
      "type": "function"
    },
    {
      "inputs": [
        {
          "internalType": "uint256",
          "name": "id",
          "type": "uint256"
        }
      ],
      "name": "getRawMaterial",
      "outputs": [
        {
          "components": [
            {
              "internalType": "uint256",
              "name": "id",
              "type": "uint256"
            },
            {
              "internalType": "string",
              "name": "name",
              "type": "string"
            },
            {
              "internalType": "uint256",
              "name": "quantity",
              "type": "uint256"
            },
            {
              "internalType": "uint256",
              "name": "available",
              "type": "uint256"
            },
            {
              "internalType": "uint256",
              "name": "price",
              "type": "uint256"
            },
            {
              "internalType": "uint256",
              "name": "tax",
              "type": "uint256"
            },
            {
              "internalType": "address",
              "name": "owner",
              "type": "address"
            }
          ],
          "internalType": "struct RawMaterials.RawMaterial",
          "name": "",
          "type": "tuple"
        }
      ],
      "stateMutability": "view",
      "type": "function"
    },
    {
      "inputs": [
        {
          "internalType": "bytes32",
          "name": "role",
          "type": "bytes32"
        }
      ],
      "name": "getRoleAdmin",
      "outputs": [
        {
          "internalType": "bytes32",
          "name": "",
          "type": "bytes32"
        }
      ],
      "stateMutability": "view",
      "type": "function"
    },
    {
      "inputs": [
        {
          "internalType": "uint256",
          "name": "id",
          "type": "uint256"
        }
      ],
      "name": "getService",
      "outputs": [
        {
          "components": [
            {
              "internalType": "uint256",
              "name": "id",
              "type": "uint256"
            },
            {
              "internalType": "string",
              "name": "name",
              "type": "string"
            },
            {
              "internalType": "uint256",
              "name": "price",
              "type": "uint256"
            },
            {
              "internalType": "uint256",
              "name": "tax",
              "type": "uint256"
            },
            {
              "internalType": "uint256",
              "name": "quantity",
              "type": "uint256"
            },
            {
              "internalType": "uint256",
              "name": "volume",
              "type": "uint256"
            },
            {
              "internalType": "address",
              "name": "owner",
              "type": "address"
            }
          ],
          "internalType": "struct Services.Service",
          "name": "",
          "type": "tuple"
        }
      ],
      "stateMutability": "view",
      "type": "function"
    },
    {
      "inputs": [
        {
          "internalType": "uint256",
          "name": "id",
          "type": "uint256"
        }
      ],
      "name": "getSupplyChain",
      "outputs": [
        {
          "components": [
            {
              "internalType": "uint256",
              "name": "id",
              "type": "uint256"
            },
            {
              "internalType": "string",
              "name": "name",
              "type": "string"
            },
            {
              "internalType": "string",
              "name": "description",
              "type": "string"
            },
            {
              "components": [
                {
                  "internalType": "uint256",
                  "name": "stepId",
                  "type": "uint256"
                },
                {
                  "internalType": "enum SupplyChain.StepType",
                  "name": "stepType",
                  "type": "uint8"
                },
                {
                  "internalType": "uint256",
                  "name": "itemId",
                  "type": "uint256"
                },
                {
                  "internalType": "uint256",
                  "name": "logisticsId",
                  "type": "uint256"
                },
                {
                  "internalType": "uint256",
                  "name": "quantity",
                  "type": "uint256"
                },
                {
                  "internalType": "uint256",
                  "name": "logisticsCost",
                  "type": "uint256"
                },
                {
                  "internalType": "uint256",
                  "name": "itemCost",
                  "type": "uint256"
                },
                {
                  "internalType": "uint256",
                  "name": "totalCost",
                  "type": "uint256"
                },
                {
                  "internalType": "address",
                  "name": "sender",
                  "type": "address"
                },
                {
                  "internalType": "address",
                  "name": "transporter",
                  "type": "address"
                },
                {
                  "internalType": "address",
                  "name": "receiver",
                  "type": "address"
                },
                {
                  "internalType": "bool",
                  "name": "senderConfirmed",
                  "type": "bool"
                },
                {
                  "internalType": "bool",
                  "name": "transporterReceived",
                  "type": "bool"
                },
                {
                  "internalType": "bool",
                  "name": "transporterDelivered",
                  "type": "bool"
                },
                {
                  "internalType": "bool",
                  "name": "receiverConfirmed",
                  "type": "bool"
                }
              ],
              "internalType": "struct SupplyChain.Step[]",
              "name": "steps",
              "type": "tuple[]"
            },
            {
              "internalType": "uint256",
              "name": "totalFundedAmount",
              "type": "uint256"
            },
            {
              "internalType": "address",
              "name": "owner",
              "type": "address"
            },
            {
              "internalType": "bool",
              "name": "isFunded",
              "type": "bool"
            },
            {
              "internalType": "bool",
              "name": "isActive",
              "type": "bool"
            }
          ],
          "internalType": "struct SupplyChain.Chain",
          "name": "",
          "type": "tuple"
        }
      ],
      "stateMutability": "view",
      "type": "function"
    },
    {
      "inputs": [
        {
          "internalType": "bytes32",
          "name": "role",
          "type": "bytes32"
        },
        {
          "internalType": "address",
          "name": "account",
          "type": "address"
        }
      ],
      "name": "grantRole",
      "outputs": [],
      "stateMutability": "nonpayable",
      "type": "function"
    },
    {
      "inputs": [
        {
          "internalType": "bytes32",
          "name": "role",
          "type": "bytes32"
        },
        {
          "internalType": "address",
          "name": "account",
          "type": "address"
        }
      ],
      "name": "hasRole",
      "outputs": [
        {
          "internalType": "bool",
          "name": "",
          "type": "bool"
        }
      ],
      "stateMutability": "view",
      "type": "function"
    },
    {
      "inputs": [
        {
          "internalType": "uint256",
          "name": "id",
          "type": "uint256"
        },
        {
          "internalType": "uint256",
          "name": "quantity",
          "type": "uint256"
        }
      ],
      "name": "orderProduct",
      "outputs": [],
      "stateMutability": "nonpayable",
      "type": "function"
    },
    {
      "inputs": [],
      "name": "paymentToken",
      "outputs": [
        {
          "internalType": "contract IERC20",
          "name": "",
          "type": "address"
        }
      ],
      "stateMutability": "view",
      "type": "function"
    },
    {
      "inputs": [
        {
          "internalType": "bytes32",
          "name": "role",
          "type": "bytes32"
        }
      ],
      "name": "registerUser",
      "outputs": [
        {
          "internalType": "bool",
          "name": "",
          "type": "bool"
        }
      ],
      "stateMutability": "nonpayable",
      "type": "function"
    },
    {
      "inputs": [
        {
          "internalType": "uint256",
          "name": "id",
          "type": "uint256"
        }
      ],
      "name": "removeLogistic",
      "outputs": [],
      "stateMutability": "nonpayable",
      "type": "function"
    },
    {
      "inputs": [
        {
          "internalType": "uint256",
          "name": "id",
          "type": "uint256"
        }
      ],
      "name": "removeProduct",
      "outputs": [],
      "stateMutability": "nonpayable",
      "type": "function"
    },
    {
      "inputs": [
        {
          "internalType": "uint256",
          "name": "id",
          "type": "uint256"
        }
      ],
      "name": "removeRawMaterial",
      "outputs": [],
      "stateMutability": "nonpayable",
      "type": "function"
    },
    {
      "inputs": [
        {
          "internalType": "uint256",
          "name": "id",
          "type": "uint256"
        }
      ],
      "name": "removeService",
      "outputs": [],
      "stateMutability": "nonpayable",
      "type": "function"
    },
    {
      "inputs": [
        {
          "internalType": "bytes32",
          "name": "role",
          "type": "bytes32"
        },
        {
          "internalType": "address",
          "name": "callerConfirmation",
          "type": "address"
        }
      ],
      "name": "renounceRole",
      "outputs": [],
      "stateMutability": "nonpayable",
      "type": "function"
    },
    {
      "inputs": [
        {
          "internalType": "bytes32",
          "name": "role",
          "type": "bytes32"
        },
        {
          "internalType": "address",
          "name": "account",
          "type": "address"
        }
      ],
      "name": "revokeRole",
      "outputs": [],
      "stateMutability": "nonpayable",
      "type": "function"
    },
    {
      "inputs": [
        {
          "internalType": "bytes4",
          "name": "interfaceId",
          "type": "bytes4"
        }
      ],
      "name": "supportsInterface",
      "outputs": [
        {
          "internalType": "bool",
          "name": "",
          "type": "bool"
        }
      ],
      "stateMutability": "view",
      "type": "function"
    }
  ],
  "bytecode": "0x60806040523480156200001157600080fd5b506040516200572b3803806200572b83398181016040528101906200003791906200053a565b6200005b6000801b6200004f620001ee60201b60201c565b620001f660201b60201c565b5085600660006101000a81548173ffffffffffffffffffffffffffffffffffffffff021916908373ffffffffffffffffffffffffffffffffffffffff16021790555084600160006101000a81548173ffffffffffffffffffffffffffffffffffffffff021916908373ffffffffffffffffffffffffffffffffffffffff16021790555083600260006101000a81548173ffffffffffffffffffffffffffffffffffffffff021916908373ffffffffffffffffffffffffffffffffffffffff16021790555082600360006101000a81548173ffffffffffffffffffffffffffffffffffffffff021916908373ffffffffffffffffffffffffffffffffffffffff16021790555081600460006101000a81548173ffffffffffffffffffffffffffffffffffffffff021916908373ffffffffffffffffffffffffffffffffffffffff16021790555080600560006101000a81548173ffffffffffffffffffffffffffffffffffffffff021916908373ffffffffffffffffffffffffffffffffffffffff160217905550505050505050620005d6565b600032905090565b60006200020a8383620002f960201b60201c565b620002ee57600160008085815260200190815260200160002060000160008473ffffffffffffffffffffffffffffffffffffffff1673ffffffffffffffffffffffffffffffffffffffff16815260200190815260200160002060006101000a81548160ff0219169083151502179055506200028a620001ee60201b60201c565b73ffffffffffffffffffffffffffffffffffffffff168273ffffffffffffffffffffffffffffffffffffffff16847f2f8788117e7eff1d82e926ec794901d17c78024a50270940304540a733656f0d60405160405180910390a460019050620002f3565b600090505b92915050565b600080600084815260200190815260200160002060000160008373ffffffffffffffffffffffffffffffffffffffff1673ffffffffffffffffffffffffffffffffffffffff16815260200190815260200160002060009054906101000a900460ff16905092915050565b600080fd5b600073ffffffffffffffffffffffffffffffffffffffff82169050919050565b6000620003958262000368565b9050919050565b6000620003a98262000388565b9050919050565b620003bb816200039c565b8114620003c757600080fd5b50565b600081519050620003db81620003b0565b92915050565b6000620003ee8262000388565b9050919050565b6200040081620003e1565b81146200040c57600080fd5b50565b6000815190506200042081620003f5565b92915050565b6000620004338262000388565b9050919050565b620004458162000426565b81146200045157600080fd5b50565b60008151905062000465816200043a565b92915050565b6000620004788262000388565b9050919050565b6200048a816200046b565b81146200049657600080fd5b50565b600081519050620004aa816200047f565b92915050565b6000620004bd8262000388565b9050919050565b620004cf81620004b0565b8114620004db57600080fd5b50565b600081519050620004ef81620004c4565b92915050565b6000620005028262000388565b9050919050565b6200051481620004f5565b81146200052057600080fd5b50565b600081519050620005348162000509565b92915050565b60008060008060008060c087890312156200055a576200055962000363565b5b60006200056a89828a01620003ca565b96505060206200057d89828a016200040f565b95505060406200059089828a0162000454565b9450506060620005a389828a0162000499565b9350506080620005b689828a01620004de565b92505060a0620005c989828a0162000523565b9150509295509295509295565b61514580620005e66000396000f3fe608060405234801561001057600080fd5b50600436106102275760003560e01c80635cb93e8411610130578063b05b10e9116100b8578063d547741f1161007c578063d547741f146106c0578063dbe4613d146106dc578063ef0e239b146106fa578063fab4f7e71461072a578063fac0992d1461074657610227565b8063b05b10e91461060a578063b752653014610628578063b7df2fde14610644578063b9db15b414610660578063c8012aa31461069057610227565b80638b72f52c116100ff5780638b72f52c1461056657806391d1485414610582578063965288b0146105b25780639b66b139146105d0578063a217fddf146105ec57610227565b80635cb93e84146104e25780635ee95cae146105125780637c0bded01461052e5780637c1df52e1461054a57610227565b8063248a9ca3116101b357806336568abe1161018257806336568abe1461042c5780634caa94d2146104485780634eabbe771461047857806359b281a6146104965780635aff3e82146104c657610227565b8063248a9ca3146103925780632dc03259146103c25780632f2ff15d146103f25780633013ce291461040e57610227565b806313ded4c4116101fa57806313ded4c4146102da57806320fe1b361461030a5780632115e7bf1461033a57806321ba76161461035857806321fe0f301461037457610227565b806301ffc9a71461022c57806302223c201461025c57806302ee3a521461028c578063094455c4146102aa575b600080fd5b61024660048036038101906102419190612761565b610764565b60405161025391906127a9565b60405180910390f35b6102766004803603810190610271919061285f565b6107de565b6040516102839190612908565b60405180910390f35b6102946108bf565b6040516102a19190612b61565b60405180910390f35b6102c460048036038101906102bf9190612b83565b61095c565b6040516102d19190612908565b60405180910390f35b6102f460048036038101906102ef9190612c0b565b610a3a565b6040516103019190612c9b565b60405180910390f35b610324600480360381019061031f9190612c0b565b610aea565b6040516103319190612fe6565b60405180910390f35b610342610b9a565b60405161034f9190613021565b60405180910390f35b610372600480360381019061036d919061303c565b610bbe565b005b61037c610cca565b60405161038991906131da565b60405180910390f35b6103ac60048036038101906103a79190613228565b610d67565b6040516103b99190613021565b60405180910390f35b6103dc60048036038101906103d79190613228565b610d86565b6040516103e991906127a9565b60405180910390f35b61040c60048036038101906104079190613281565b610da0565b005b610416610dc2565b6040516104239190613320565b60405180910390f35b61044660048036038101906104419190613281565b610de8565b005b610462600480360381019061045d919061333b565b610e63565b60405161046f9190612908565b60405180910390f35b610480610f3b565b60405161048d9190613021565b60405180910390f35b6104b060048036038101906104ab9190613649565b610f5f565b6040516104bd9190612908565b60405180910390f35b6104e060048036038101906104db9190612c0b565b611037565b005b6104fc60048036038101906104f79190612c0b565b6110f2565b604051610509919061378c565b60405180910390f35b61052c60048036038101906105279190612c0b565b6111a2565b005b6105486004803603810190610543919061303c565b61125d565b005b610564600480360381019061055f9190612c0b565b61146e565b005b610580600480360381019061057b9190612c0b565b611529565b005b61059c60048036038101906105979190613281565b6118af565b6040516105a991906127a9565b60405180910390f35b6105ba611919565b6040516105c79190613021565b60405180910390f35b6105ea60048036038101906105e59190612c0b565b61193d565b005b6105f46119f8565b6040516106019190613021565b60405180910390f35b6106126119ff565b60405161061f91906138d3565b60405180910390f35b610642600480360381019061063d919061303c565b611a9c565b005b61065e6004803603810190610659919061303c565b611b5a565b005b61067a60048036038101906106759190612c0b565b611c18565b6040516106879190613991565b60405180910390f35b6106aa60048036038101906106a59190612b83565b611cc8565b6040516106b79190612908565b60405180910390f35b6106da60048036038101906106d59190613281565b611da6565b005b6106e4611dc8565b6040516106f19190613021565b60405180910390f35b610714600480360381019061070f9190612c0b565b611dec565b6040516107219190613a4f565b60405180910390f35b610744600480360381019061073f919061303c565b611e9c565b005b61074e611f5a565b60405161075b9190613bcf565b60405180910390f35b60007f7965db0b000000000000000000000000000000000000000000000000000000007bffffffffffffffffffffffffffffffffffffffffffffffffffffffff1916827bffffffffffffffffffffffffffffffffffffffffffffffffffffffff191614806107d757506107d682611ff7565b5b9050919050565b60007f43f25613eb2f15fb17222a5d424ca2655743e71265d98e4b93c05e5fb589ecde61080a81612061565b600460009054906101000a900473ffffffffffffffffffffffffffffffffffffffff1673ffffffffffffffffffffffffffffffffffffffff166302223c208989898989896040518763ffffffff1660e01b815260040161086f96959493929190613c2f565b6020604051808303816000875af115801561088e573d6000803e3d6000fd5b505050506040513d601f19601f820116820180604052508101906108b29190613ca0565b9150509695505050505050565b6060600260009054906101000a900473ffffffffffffffffffffffffffffffffffffffff1673ffffffffffffffffffffffffffffffffffffffff166302ee3a526040518163ffffffff1660e01b8152600401600060405180830381865afa15801561092e573d6000803e3d6000fd5b505050506040513d6000823e3d601f19601f820116820180604052508101906109579190613f03565b905090565b60007feefb95e842a3287179d933b4460be539a1d5af11aa8b325bb45c5c8dc92de4ed61098881612061565b600260009054906101000a900473ffffffffffffffffffffffffffffffffffffffff1673ffffffffffffffffffffffffffffffffffffffff1663094455c488888888886040518663ffffffff1660e01b81526004016109eb959493929190613f4c565b6020604051808303816000875af1158015610a0a573d6000803e3d6000fd5b505050506040513d601f19601f82011682018060405250810190610a2e9190613ca0565b91505095945050505050565b610a4261255f565b600160009054906101000a900473ffffffffffffffffffffffffffffffffffffffff1673ffffffffffffffffffffffffffffffffffffffff166313ded4c4836040518263ffffffff1660e01b8152600401610a9d9190612908565b600060405180830381865afa158015610aba573d6000803e3d6000fd5b505050506040513d6000823e3d601f19601f82011682018060405250810190610ae3919061402e565b9050919050565b610af261259d565b600560009054906101000a900473ffffffffffffffffffffffffffffffffffffffff1673ffffffffffffffffffffffffffffffffffffffff166320fe1b36836040518263ffffffff1660e01b8152600401610b4d9190612908565b600060405180830381865afa158015610b6a573d6000803e3d6000fd5b505050506040513d6000823e3d601f19601f82011682018060405250810190610b9391906143ff565b9050919050565b7f2a5f906c256a5d799494fcd066e1f6c077689de1cdb65052a1624de4bace99bf81565b610bef7f43f25613eb2f15fb17222a5d424ca2655743e71265d98e4b93c05e5fb589ecde610bea612075565b6118af565b610c3757610bfb612075565b6040517fe2517d3f000000000000000000000000000000000000000000000000000000008152600401610c2e919061447d565b60405180910390fd5b600560009054906101000a900473ffffffffffffffffffffffffffffffffffffffff1673ffffffffffffffffffffffffffffffffffffffff16639b74b77583836040518363ffffffff1660e01b8152600401610c949291906144a4565b600060405180830381600087803b158015610cae57600080fd5b505af1158015610cc2573d6000803e3d6000fd5b505050505050565b6060600460009054906101000a900473ffffffffffffffffffffffffffffffffffffffff1673ffffffffffffffffffffffffffffffffffffffff166321fe0f306040518163ffffffff1660e01b8152600401600060405180830381865afa158015610d39573d6000803e3d6000fd5b505050506040513d6000823e3d601f19601f82011682018060405250810190610d62919061467e565b905090565b6000806000838152602001908152602001600020600101549050919050565b6000610d9982610d94612075565b61207d565b9050919050565b610da982610d67565b610db281612061565b610dbc838361207d565b50505050565b600660009054906101000a900473ffffffffffffffffffffffffffffffffffffffff1681565b610df0612075565b73ffffffffffffffffffffffffffffffffffffffff168173ffffffffffffffffffffffffffffffffffffffff1614610e54576040517f6697b23200000000000000000000000000000000000000000000000000000000815260040160405180910390fd5b610e5e828261216e565b505050565b60007fddaa901e2fe3bda354fe0ede2785152d5c109282a613fe024a056a3e66c41bb3610e8f81612061565b600160009054906101000a900473ffffffffffffffffffffffffffffffffffffffff1673ffffffffffffffffffffffffffffffffffffffff166356a379d58686866040518463ffffffff1660e01b8152600401610eee939291906146c7565b6020604051808303816000875af1158015610f0d573d6000803e3d6000fd5b505050506040513d601f19601f82011682018060405250810190610f319190613ca0565b9150509392505050565b7fddaa901e2fe3bda354fe0ede2785152d5c109282a613fe024a056a3e66c41bb381565b60007feefb95e842a3287179d933b4460be539a1d5af11aa8b325bb45c5c8dc92de4ed610f8b81612061565b600560009054906101000a900473ffffffffffffffffffffffffffffffffffffffff1673ffffffffffffffffffffffffffffffffffffffff166359b281a68686866040518463ffffffff1660e01b8152600401610fea93929190614849565b6020604051808303816000875af1158015611009573d6000803e3d6000fd5b505050506040513d601f19601f8201168201806040525081019061102d9190613ca0565b9150509392505050565b7f43f25613eb2f15fb17222a5d424ca2655743e71265d98e4b93c05e5fb589ecde61106181612061565b600360009054906101000a900473ffffffffffffffffffffffffffffffffffffffff1673ffffffffffffffffffffffffffffffffffffffff16635aff3e82836040518263ffffffff1660e01b81526004016110bc9190612908565b600060405180830381600087803b1580156110d657600080fd5b505af11580156110ea573d6000803e3d6000fd5b505050505050565b6110fa6125fc565b600360009054906101000a900473ffffffffffffffffffffffffffffffffffffffff1673ffffffffffffffffffffffffffffffffffffffff16635cb93e84836040518263ffffffff1660e01b81526004016111559190612908565b600060405180830381865afa158015611172573d6000803e3d6000fd5b505050506040513d6000823e3d601f19601f8201168201806040525081019061119b9190614965565b9050919050565b7feefb95e842a3287179d933b4460be539a1d5af11aa8b325bb45c5c8dc92de4ed6111cc81612061565b600260009054906101000a900473ffffffffffffffffffffffffffffffffffffffff1673ffffffffffffffffffffffffffffffffffffffff16635ee95cae836040518263ffffffff1660e01b81526004016112279190612908565b600060405180830381600087803b15801561124157600080fd5b505af1158015611255573d6000803e3d6000fd5b505050505050565b61128e7f43f25613eb2f15fb17222a5d424ca2655743e71265d98e4b93c05e5fb589ecde611289612075565b6118af565b806112c657506112c57feefb95e842a3287179d933b4460be539a1d5af11aa8b325bb45c5c8dc92de4ed6112c0612075565b6118af565b5b61130e576112d2612075565b6040517fe2517d3f000000000000000000000000000000000000000000000000000000008152600401611305919061447d565b60405180910390fd5b600560009054906101000a900473ffffffffffffffffffffffffffffffffffffffff1673ffffffffffffffffffffffffffffffffffffffff166391c5bdee83836040518363ffffffff1660e01b815260040161136b9291906144a4565b600060405180830381600087803b15801561138557600080fd5b505af1158015611399573d6000803e3d6000fd5b505050506000600560009054906101000a900473ffffffffffffffffffffffffffffffffffffffff1673ffffffffffffffffffffffffffffffffffffffff166320fe1b36846040518263ffffffff1660e01b81526004016113fa9190612908565b600060405180830381865afa158015611417573d6000803e3d6000fd5b505050506040513d6000823e3d601f19601f8201168201806040525081019061144091906143ff565b606001518281518110611456576114556149ae565b5b6020026020010151905061146981612260565b505050565b7fddaa901e2fe3bda354fe0ede2785152d5c109282a613fe024a056a3e66c41bb361149881612061565b600160009054906101000a900473ffffffffffffffffffffffffffffffffffffffff1673ffffffffffffffffffffffffffffffffffffffff16637c1df52e836040518263ffffffff1660e01b81526004016114f39190612908565b600060405180830381600087803b15801561150d57600080fd5b505af1158015611521573d6000803e3d6000fd5b505050505050565b6000600560009054906101000a900473ffffffffffffffffffffffffffffffffffffffff1673ffffffffffffffffffffffffffffffffffffffff166320fe1b36836040518263ffffffff1660e01b81526004016115869190612908565b600060405180830381865afa1580156115a3573d6000803e3d6000fd5b505050506040513d6000823e3d601f19601f820116820180604052508101906115cc91906143ff565b90506115d6612075565b73ffffffffffffffffffffffffffffffffffffffff168160a0015173ffffffffffffffffffffffffffffffffffffffff1614611647576040517f08c379a000000000000000000000000000000000000000000000000000000000815260040161163e90614a29565b60405180910390fd5b8060800151600660009054906101000a900473ffffffffffffffffffffffffffffffffffffffff1673ffffffffffffffffffffffffffffffffffffffff1663dd62ed3e611692612075565b306040518363ffffffff1660e01b81526004016116b0929190614a49565b602060405180830381865afa1580156116cd573d6000803e3d6000fd5b505050506040513d601f19601f820116820180604052508101906116f19190613ca0565b1015611732576040517f08c379a000000000000000000000000000000000000000000000000000000000815260040161172990614abe565b60405180910390fd5b600660009054906101000a900473ffffffffffffffffffffffffffffffffffffffff1673ffffffffffffffffffffffffffffffffffffffff166323b872dd611778612075565b3084608001516040518463ffffffff1660e01b815260040161179c93929190614ade565b6020604051808303816000875af11580156117bb573d6000803e3d6000fd5b505050506040513d601f19601f820116820180604052508101906117df9190614b15565b61181e576040517f08c379a000000000000000000000000000000000000000000000000000000000815260040161181590614b8e565b60405180910390fd5b600560009054906101000a900473ffffffffffffffffffffffffffffffffffffffff1673ffffffffffffffffffffffffffffffffffffffff16639994580b836040518263ffffffff1660e01b81526004016118799190612908565b600060405180830381600087803b15801561189357600080fd5b505af11580156118a7573d6000803e3d6000fd5b505050505050565b600080600084815260200190815260200160002060000160008373ffffffffffffffffffffffffffffffffffffffff1673ffffffffffffffffffffffffffffffffffffffff16815260200190815260200160002060009054906101000a900460ff16905092915050565b7feefb95e842a3287179d933b4460be539a1d5af11aa8b325bb45c5c8dc92de4ed81565b7f43f25613eb2f15fb17222a5d424ca2655743e71265d98e4b93c05e5fb589ecde61196781612061565b600460009054906101000a900473ffffffffffffffffffffffffffffffffffffffff1673ffffffffffffffffffffffffffffffffffffffff16639b66b139836040518263ffffffff1660e01b81526004016119c29190612908565b600060405180830381600087803b1580156119dc57600080fd5b505af11580156119f0573d6000803e3d6000fd5b505050505050565b6000801b81565b6060600160009054906101000a900473ffffffffffffffffffffffffffffffffffffffff1673ffffffffffffffffffffffffffffffffffffffff1663b05b10e96040518163ffffffff1660e01b8152600401600060405180830381865afa158015611a6e573d6000803e3d6000fd5b505050506040513d6000823e3d601f19601f82011682018060405250810190611a979190614c8f565b905090565b7fddaa901e2fe3bda354fe0ede2785152d5c109282a613fe024a056a3e66c41bb3611ac681612061565b600560009054906101000a900473ffffffffffffffffffffffffffffffffffffffff1673ffffffffffffffffffffffffffffffffffffffff166384a3492584846040518363ffffffff1660e01b8152600401611b239291906144a4565b600060405180830381600087803b158015611b3d57600080fd5b505af1158015611b51573d6000803e3d6000fd5b50505050505050565b7f2a5f906c256a5d799494fcd066e1f6c077689de1cdb65052a1624de4bace99bf611b8481612061565b600260009054906101000a900473ffffffffffffffffffffffffffffffffffffffff1673ffffffffffffffffffffffffffffffffffffffff1663b7df2fde84846040518363ffffffff1660e01b8152600401611be19291906144a4565b600060405180830381600087803b158015611bfb57600080fd5b505af1158015611c0f573d6000803e3d6000fd5b50505050505050565b611c2061264f565b600260009054906101000a900473ffffffffffffffffffffffffffffffffffffffff1673ffffffffffffffffffffffffffffffffffffffff1663b9db15b4836040518263ffffffff1660e01b8152600401611c7b9190612908565b600060405180830381865afa158015611c98573d6000803e3d6000fd5b505050506040513d6000823e3d601f19601f82011682018060405250810190611cc19190614cd8565b9050919050565b60007f43f25613eb2f15fb17222a5d424ca2655743e71265d98e4b93c05e5fb589ecde611cf481612061565b600360009054906101000a900473ffffffffffffffffffffffffffffffffffffffff1673ffffffffffffffffffffffffffffffffffffffff1663c8012aa388888888886040518663ffffffff1660e01b8152600401611d57959493929190613f4c565b6020604051808303816000875af1158015611d76573d6000803e3d6000fd5b505050506040513d601f19601f82011682018060405250810190611d9a9190613ca0565b91505095945050505050565b611daf82610d67565b611db881612061565b611dc2838361216e565b50505050565b7f43f25613eb2f15fb17222a5d424ca2655743e71265d98e4b93c05e5fb589ecde81565b611df46126a2565b600460009054906101000a900473ffffffffffffffffffffffffffffffffffffffff1673ffffffffffffffffffffffffffffffffffffffff1663ef0e239b836040518263ffffffff1660e01b8152600401611e4f9190612908565b600060405180830381865afa158015611e6c573d6000803e3d6000fd5b505050506040513d6000823e3d601f19601f82011682018060405250810190611e959190614d21565b9050919050565b7fddaa901e2fe3bda354fe0ede2785152d5c109282a613fe024a056a3e66c41bb3611ec681612061565b600560009054906101000a900473ffffffffffffffffffffffffffffffffffffffff1673ffffffffffffffffffffffffffffffffffffffff1663ede208fd84846040518363ffffffff1660e01b8152600401611f239291906144a4565b600060405180830381600087803b158015611f3d57600080fd5b505af1158015611f51573d6000803e3d6000fd5b50505050505050565b6060600360009054906101000a900473ffffffffffffffffffffffffffffffffffffffff1673ffffffffffffffffffffffffffffffffffffffff1663fac0992d6040518163ffffffff1660e01b8152600401600060405180830381865afa158015611fc9573d6000803e3d6000fd5b505050506040513d6000823e3d601f19601f82011682018060405250810190611ff29190614e4b565b905090565b60007f01ffc9a7000000000000000000000000000000000000000000000000000000007bffffffffffffffffffffffffffffffffffffffffffffffffffffffff1916827bffffffffffffffffffffffffffffffffffffffffffffffffffffffff1916149050919050565b6120728161206d612075565b61250e565b50565b600032905090565b600061208983836118af565b61216357600160008085815260200190815260200160002060000160008473ffffffffffffffffffffffffffffffffffffffff1673ffffffffffffffffffffffffffffffffffffffff16815260200190815260200160002060006101000a81548160ff021916908315150217905550612100612075565b73ffffffffffffffffffffffffffffffffffffffff168273ffffffffffffffffffffffffffffffffffffffff16847f2f8788117e7eff1d82e926ec794901d17c78024a50270940304540a733656f0d60405160405180910390a460019050612168565b600090505b92915050565b600061217a83836118af565b1561225557600080600085815260200190815260200160002060000160008473ffffffffffffffffffffffffffffffffffffffff1673ffffffffffffffffffffffffffffffffffffffff16815260200190815260200160002060006101000a81548160ff0219169083151502179055506121f2612075565b73ffffffffffffffffffffffffffffffffffffffff168273ffffffffffffffffffffffffffffffffffffffff16847ff6391f5c32d9c69d2a47ea670b442974b53935d1edc7fd64eb21e047a839171b60405160405180910390a46001905061225a565b600090505b92915050565b600560009054906101000a900473ffffffffffffffffffffffffffffffffffffffff1673ffffffffffffffffffffffffffffffffffffffff16637f0aa9c9826040518263ffffffff1660e01b81526004016122bb9190614fc9565b602060405180830381865afa1580156122d8573d6000803e3d6000fd5b505050506040513d601f19601f820116820180604052508101906122fc9190614b15565b61233b576040517f08c379a000000000000000000000000000000000000000000000000000000000815260040161233290615031565b60405180910390fd5b600660009054906101000a900473ffffffffffffffffffffffffffffffffffffffff1673ffffffffffffffffffffffffffffffffffffffff1663a9059cbb8261012001518360a001516040518363ffffffff1660e01b81526004016123a1929190615051565b6020604051808303816000875af11580156123c0573d6000803e3d6000fd5b505050506040513d601f19601f820116820180604052508101906123e49190614b15565b612423576040517f08c379a000000000000000000000000000000000000000000000000000000000815260040161241a906150c6565b60405180910390fd5b600660009054906101000a900473ffffffffffffffffffffffffffffffffffffffff1673ffffffffffffffffffffffffffffffffffffffff1663a9059cbb8261010001518360c001516040518363ffffffff1660e01b8152600401612489929190615051565b6020604051808303816000875af11580156124a8573d6000803e3d6000fd5b505050506040513d601f19601f820116820180604052508101906124cc9190614b15565b61250b576040517f08c379a0000000000000000000000000000000000000000000000000000000008152600401612502906150c6565b60405180910390fd5b50565b61251882826118af565b61255b5780826040517fe2517d3f0000000000000000000000000000000000000000000000000000000081526004016125529291906150e6565b60405180910390fd5b5050565b60405180608001604052806000815260200160608152602001600073ffffffffffffffffffffffffffffffffffffffff168152602001600081525090565b6040518061010001604052806000815260200160608152602001606081526020016060815260200160008152602001600073ffffffffffffffffffffffffffffffffffffffff1681526020016000151581526020016000151581525090565b6040518060e00160405280600081526020016060815260200160008152602001600081526020016000815260200160008152602001600073ffffffffffffffffffffffffffffffffffffffff1681525090565b6040518060e00160405280600081526020016060815260200160008152602001600081526020016000815260200160008152602001600073ffffffffffffffffffffffffffffffffffffffff1681525090565b6040518060e00160405280600081526020016060815260200160008152602001600081526020016000815260200160008152602001600073ffffffffffffffffffffffffffffffffffffffff1681525090565b6000604051905090565b600080fd5b600080fd5b60007fffffffff0000000000000000000000000000000000000000000000000000000082169050919050565b61273e81612709565b811461274957600080fd5b50565b60008135905061275b81612735565b92915050565b600060208284031215612777576127766126ff565b5b60006127858482850161274c565b91505092915050565b60008115159050919050565b6127a38161278e565b82525050565b60006020820190506127be600083018461279a565b92915050565b600080fd5b600080fd5b600080fd5b60008083601f8401126127e9576127e86127c4565b5b8235905067ffffffffffffffff811115612806576128056127c9565b5b602083019150836001820283011115612822576128216127ce565b5b9250929050565b6000819050919050565b61283c81612829565b811461284757600080fd5b50565b60008135905061285981612833565b92915050565b60008060008060008060a0878903121561287c5761287b6126ff565b5b600087013567ffffffffffffffff81111561289a57612899612704565b5b6128a689828a016127d3565b965096505060206128b989828a0161284a565b94505060406128ca89828a0161284a565b93505060606128db89828a0161284a565b92505060806128ec89828a0161284a565b9150509295509295509295565b61290281612829565b82525050565b600060208201905061291d60008301846128f9565b92915050565b600081519050919050565b600082825260208201905092915050565b6000819050602082019050919050565b61295881612829565b82525050565b600081519050919050565b600082825260208201905092915050565b60005b8381101561299857808201518184015260208101905061297d565b60008484015250505050565b6000601f19601f8301169050919050565b60006129c08261295e565b6129ca8185612969565b93506129da81856020860161297a565b6129e3816129a4565b840191505092915050565b600073ffffffffffffffffffffffffffffffffffffffff82169050919050565b6000612a19826129ee565b9050919050565b612a2981612a0e565b82525050565b600060e083016000830151612a47600086018261294f565b5060208301518482036020860152612a5f82826129b5565b9150506040830151612a74604086018261294f565b506060830151612a87606086018261294f565b506080830151612a9a608086018261294f565b5060a0830151612aad60a086018261294f565b5060c0830151612ac060c0860182612a20565b508091505092915050565b6000612ad78383612a2f565b905092915050565b6000602082019050919050565b6000612af782612923565b612b01818561292e565b935083602082028501612b138561293f565b8060005b85811015612b4f5784840389528151612b308582612acb565b9450612b3b83612adf565b925060208a01995050600181019050612b17565b50829750879550505050505092915050565b60006020820190508181036000830152612b7b8184612aec565b905092915050565b600080600080600060808688031215612b9f57612b9e6126ff565b5b600086013567ffffffffffffffff811115612bbd57612bbc612704565b5b612bc9888289016127d3565b95509550506020612bdc8882890161284a565b9350506040612bed8882890161284a565b9250506060612bfe8882890161284a565b9150509295509295909350565b600060208284031215612c2157612c206126ff565b5b6000612c2f8482850161284a565b91505092915050565b6000608083016000830151612c50600086018261294f565b5060208301518482036020860152612c6882826129b5565b9150506040830151612c7d6040860182612a20565b506060830151612c90606086018261294f565b508091505092915050565b60006020820190508181036000830152612cb58184612c38565b905092915050565b600081519050919050565b600082825260208201905092915050565b6000819050602082019050919050565b7f4e487b7100000000000000000000000000000000000000000000000000000000600052602160045260246000fd5b60028110612d2957612d28612ce9565b5b50565b6000819050612d3a82612d18565b919050565b6000612d4a82612d2c565b9050919050565b612d5a81612d3f565b82525050565b612d698161278e565b82525050565b6101e082016000820151612d86600085018261294f565b506020820151612d996020850182612d51565b506040820151612dac604085018261294f565b506060820151612dbf606085018261294f565b506080820151612dd2608085018261294f565b5060a0820151612de560a085018261294f565b5060c0820151612df860c085018261294f565b5060e0820151612e0b60e085018261294f565b50610100820151612e20610100850182612a20565b50610120820151612e35610120850182612a20565b50610140820151612e4a610140850182612a20565b50610160820151612e5f610160850182612d60565b50610180820151612e74610180850182612d60565b506101a0820151612e896101a0850182612d60565b506101c0820151612e9e6101c0850182612d60565b50505050565b6000612eb08383612d6f565b6101e08301905092915050565b6000602082019050919050565b6000612ed582612cbd565b612edf8185612cc8565b9350612eea83612cd9565b8060005b83811015612f1b578151612f028882612ea4565b9750612f0d83612ebd565b925050600181019050612eee565b5085935050505092915050565b600061010083016000830151612f41600086018261294f565b5060208301518482036020860152612f5982826129b5565b91505060408301518482036040860152612f7382826129b5565b91505060608301518482036060860152612f8d8282612eca565b9150506080830151612fa2608086018261294f565b5060a0830151612fb560a0860182612a20565b5060c0830151612fc860c0860182612d60565b5060e0830151612fdb60e0860182612d60565b508091505092915050565b600060208201905081810360008301526130008184612f28565b905092915050565b6000819050919050565b61301b81613008565b82525050565b60006020820190506130366000830184613012565b92915050565b60008060408385031215613053576130526126ff565b5b60006130618582860161284a565b92505060206130728582860161284a565b9150509250929050565b600081519050919050565b600082825260208201905092915050565b6000819050602082019050919050565b600060e0830160008301516130c0600086018261294f565b50602083015184820360208601526130d882826129b5565b91505060408301516130ed604086018261294f565b506060830151613100606086018261294f565b506080830151613113608086018261294f565b5060a083015161312660a086018261294f565b5060c083015161313960c0860182612a20565b508091505092915050565b600061315083836130a8565b905092915050565b6000602082019050919050565b60006131708261307c565b61317a8185613087565b93508360208202850161318c85613098565b8060005b858110156131c857848403895281516131a98582613144565b94506131b483613158565b925060208a01995050600181019050613190565b50829750879550505050505092915050565b600060208201905081810360008301526131f48184613165565b905092915050565b61320581613008565b811461321057600080fd5b50565b600081359050613222816131fc565b92915050565b60006020828403121561323e5761323d6126ff565b5b600061324c84828501613213565b91505092915050565b61325e81612a0e565b811461326957600080fd5b50565b60008135905061327b81613255565b92915050565b60008060408385031215613298576132976126ff565b5b60006132a685828601613213565b92505060206132b78582860161326c565b9150509250929050565b6000819050919050565b60006132e66132e16132dc846129ee565b6132c1565b6129ee565b9050919050565b60006132f8826132cb565b9050919050565b600061330a826132ed565b9050919050565b61331a816132ff565b82525050565b60006020820190506133356000830184613311565b92915050565b600080600060408486031215613354576133536126ff565b5b600084013567ffffffffffffffff81111561337257613371612704565b5b61337e868287016127d3565b935093505060206133918682870161284a565b9150509250925092565b600080fd5b7f4e487b7100000000000000000000000000000000000000000000000000000000600052604160045260246000fd5b6133d8826129a4565b810181811067ffffffffffffffff821117156133f7576133f66133a0565b5b80604052505050565b600061340a6126f5565b905061341682826133cf565b919050565b600067ffffffffffffffff821115613436576134356133a0565b5b61343f826129a4565b9050602081019050919050565b82818337600083830152505050565b600061346e6134698461341b565b613400565b90508281526020810184848401111561348a5761348961339b565b5b61349584828561344c565b509392505050565b600082601f8301126134b2576134b16127c4565b5b81356134c284826020860161345b565b91505092915050565b600067ffffffffffffffff8211156134e6576134e56133a0565b5b602082029050602081019050919050565b600080fd5b600080fd5b6002811061350e57600080fd5b50565b60008135905061352081613501565b92915050565b600060a0828403121561353c5761353b6134f7565b5b61354660a0613400565b9050600061355684828501613511565b600083015250602061356a8482850161284a565b602083015250604061357e8482850161284a565b60408301525060606135928482850161284a565b60608301525060806135a68482850161326c565b60808301525092915050565b60006135c56135c0846134cb565b613400565b90508083825260208201905060a084028301858111156135e8576135e76127ce565b5b835b8181101561361157806135fd8882613526565b84526020840193505060a0810190506135ea565b5050509392505050565b600082601f8301126136305761362f6127c4565b5b81356136408482602086016135b2565b91505092915050565b600080600060608486031215613662576136616126ff565b5b600084013567ffffffffffffffff8111156136805761367f612704565b5b61368c8682870161349d565b935050602084013567ffffffffffffffff8111156136ad576136ac612704565b5b6136b98682870161349d565b925050604084013567ffffffffffffffff8111156136da576136d9612704565b5b6136e68682870161361b565b9150509250925092565b600060e083016000830151613708600086018261294f565b506020830151848203602086015261372082826129b5565b9150506040830151613735604086018261294f565b506060830151613748606086018261294f565b50608083015161375b608086018261294f565b5060a083015161376e60a086018261294f565b5060c083015161378160c0860182612a20565b508091505092915050565b600060208201905081810360008301526137a681846136f0565b905092915050565b600081519050919050565b600082825260208201905092915050565b6000819050602082019050919050565b60006080830160008301516137f2600086018261294f565b506020830151848203602086015261380a82826129b5565b915050604083015161381f6040860182612a20565b506060830151613832606086018261294f565b508091505092915050565b600061384983836137da565b905092915050565b6000602082019050919050565b6000613869826137ae565b61387381856137b9565b935083602082028501613885856137ca565b8060005b858110156138c157848403895281516138a2858261383d565b94506138ad83613851565b925060208a01995050600181019050613889565b50829750879550505050505092915050565b600060208201905081810360008301526138ed818461385e565b905092915050565b600060e08301600083015161390d600086018261294f565b506020830151848203602086015261392582826129b5565b915050604083015161393a604086018261294f565b50606083015161394d606086018261294f565b506080830151613960608086018261294f565b5060a083015161397360a086018261294f565b5060c083015161398660c0860182612a20565b508091505092915050565b600060208201905081810360008301526139ab81846138f5565b905092915050565b600060e0830160008301516139cb600086018261294f565b50602083015184820360208601526139e382826129b5565b91505060408301516139f8604086018261294f565b506060830151613a0b606086018261294f565b506080830151613a1e608086018261294f565b5060a0830151613a3160a086018261294f565b5060c0830151613a4460c0860182612a20565b508091505092915050565b60006020820190508181036000830152613a6981846139b3565b905092915050565b600081519050919050565b600082825260208201905092915050565b6000819050602082019050919050565b600060e083016000830151613ab5600086018261294f565b5060208301518482036020860152613acd82826129b5565b9150506040830151613ae2604086018261294f565b506060830151613af5606086018261294f565b506080830151613b08608086018261294f565b5060a0830151613b1b60a086018261294f565b5060c0830151613b2e60c0860182612a20565b508091505092915050565b6000613b458383613a9d565b905092915050565b6000602082019050919050565b6000613b6582613a71565b613b6f8185613a7c565b935083602082028501613b8185613a8d565b8060005b85811015613bbd5784840389528151613b9e8582613b39565b9450613ba983613b4d565b925060208a01995050600181019050613b85565b50829750879550505050505092915050565b60006020820190508181036000830152613be98184613b5a565b905092915050565b600082825260208201905092915050565b6000613c0e8385613bf1565b9350613c1b83858461344c565b613c24836129a4565b840190509392505050565b600060a0820190508181036000830152613c4a81888a613c02565b9050613c5960208301876128f9565b613c6660408301866128f9565b613c7360608301856128f9565b613c8060808301846128f9565b979650505050505050565b600081519050613c9a81612833565b92915050565b600060208284031215613cb657613cb56126ff565b5b6000613cc484828501613c8b565b91505092915050565b600067ffffffffffffffff821115613ce857613ce76133a0565b5b602082029050602081019050919050565b6000613d0c613d078461341b565b613400565b905082815260208101848484011115613d2857613d2761339b565b5b613d3384828561297a565b509392505050565b600082601f830112613d5057613d4f6127c4565b5b8151613d60848260208601613cf9565b91505092915050565b600081519050613d7881613255565b92915050565b600060e08284031215613d9457613d936134f7565b5b613d9e60e0613400565b90506000613dae84828501613c8b565b600083015250602082015167ffffffffffffffff811115613dd257613dd16134fc565b5b613dde84828501613d3b565b6020830152506040613df284828501613c8b565b6040830152506060613e0684828501613c8b565b6060830152506080613e1a84828501613c8b565b60808301525060a0613e2e84828501613c8b565b60a08301525060c0613e4284828501613d69565b60c08301525092915050565b6000613e61613e5c84613ccd565b613400565b90508083825260208201905060208402830185811115613e8457613e836127ce565b5b835b81811015613ecb57805167ffffffffffffffff811115613ea957613ea86127c4565b5b808601613eb68982613d7e565b85526020850194505050602081019050613e86565b5050509392505050565b600082601f830112613eea57613ee96127c4565b5b8151613efa848260208601613e4e565b91505092915050565b600060208284031215613f1957613f186126ff565b5b600082015167ffffffffffffffff811115613f3757613f36612704565b5b613f4384828501613ed5565b91505092915050565b60006080820190508181036000830152613f67818789613c02565b9050613f7660208301866128f9565b613f8360408301856128f9565b613f9060608301846128f9565b9695505050505050565b600060808284031215613fb057613faf6134f7565b5b613fba6080613400565b90506000613fca84828501613c8b565b600083015250602082015167ffffffffffffffff811115613fee57613fed6134fc565b5b613ffa84828501613d3b565b602083015250604061400e84828501613d69565b604083015250606061402284828501613c8b565b60608301525092915050565b600060208284031215614044576140436126ff565b5b600082015167ffffffffffffffff81111561406257614061612704565b5b61406e84828501613f9a565b91505092915050565b600067ffffffffffffffff821115614092576140916133a0565b5b602082029050602081019050919050565b6000815190506140b281613501565b92915050565b6140c18161278e565b81146140cc57600080fd5b50565b6000815190506140de816140b8565b92915050565b60006101e082840312156140fb576140fa6134f7565b5b6141066101e0613400565b9050600061411684828501613c8b565b600083015250602061412a848285016140a3565b602083015250604061413e84828501613c8b565b604083015250606061415284828501613c8b565b606083015250608061416684828501613c8b565b60808301525060a061417a84828501613c8b565b60a08301525060c061418e84828501613c8b565b60c08301525060e06141a284828501613c8b565b60e0830152506101006141b784828501613d69565b610100830152506101206141cd84828501613d69565b610120830152506101406141e384828501613d69565b610140830152506101606141f9848285016140cf565b6101608301525061018061420f848285016140cf565b610180830152506101a0614225848285016140cf565b6101a0830152506101c061423b848285016140cf565b6101c08301525092915050565b600061425b61425684614077565b613400565b9050808382526020820190506101e0840283018581111561427f5761427e6127ce565b5b835b818110156142a9578061429488826140e4565b8452602084019350506101e081019050614281565b5050509392505050565b600082601f8301126142c8576142c76127c4565b5b81516142d8848260208601614248565b91505092915050565b600061010082840312156142f8576142f76134f7565b5b614303610100613400565b9050600061431384828501613c8b565b600083015250602082015167ffffffffffffffff811115614337576143366134fc565b5b61434384828501613d3b565b602083015250604082015167ffffffffffffffff811115614367576143666134fc565b5b61437384828501613d3b565b604083015250606082015167ffffffffffffffff811115614397576143966134fc565b5b6143a3848285016142b3565b60608301525060806143b784828501613c8b565b60808301525060a06143cb84828501613d69565b60a08301525060c06143df848285016140cf565b60c08301525060e06143f3848285016140cf565b60e08301525092915050565b600060208284031215614415576144146126ff565b5b600082015167ffffffffffffffff81111561443357614432612704565b5b61443f848285016142e1565b91505092915050565b61445181612a0e565b82525050565b7f556e617574686f72697a656420526f6c65000000000000000000000000000000815250565b60006040820190506144926000830184614448565b61449e60208301614457565b92915050565b60006040820190506144b960008301856128f9565b6144c660208301846128f9565b9392505050565b600067ffffffffffffffff8211156144e8576144e76133a0565b5b602082029050602081019050919050565b600060e0828403121561450f5761450e6134f7565b5b61451960e0613400565b9050600061452984828501613c8b565b600083015250602082015167ffffffffffffffff81111561454d5761454c6134fc565b5b61455984828501613d3b565b602083015250604061456d84828501613c8b565b604083015250606061458184828501613c8b565b606083015250608061459584828501613c8b565b60808301525060a06145a984828501613c8b565b60a08301525060c06145bd84828501613d69565b60c08301525092915050565b60006145dc6145d7846144cd565b613400565b905080838252602082019050602084028301858111156145ff576145fe6127ce565b5b835b8181101561464657805167ffffffffffffffff811115614624576146236127c4565b5b80860161463189826144f9565b85526020850194505050602081019050614601565b5050509392505050565b600082601f830112614665576146646127c4565b5b81516146758482602086016145c9565b91505092915050565b600060208284031215614694576146936126ff565b5b600082015167ffffffffffffffff8111156146b2576146b1612704565b5b6146be84828501614650565b91505092915050565b600060408201905081810360008301526146e2818587613c02565b90506146f160208301846128f9565b949350505050565b60006147048261295e565b61470e8185613bf1565b935061471e81856020860161297a565b614727816129a4565b840191505092915050565b600081519050919050565b600082825260208201905092915050565b6000819050602082019050919050565b60a0820160008201516147746000850182612d51565b506020820151614787602085018261294f565b50604082015161479a604085018261294f565b5060608201516147ad606085018261294f565b5060808201516147c06080850182612a20565b50505050565b60006147d2838361475e565b60a08301905092915050565b6000602082019050919050565b60006147f682614732565b614800818561473d565b935061480b8361474e565b8060005b8381101561483c57815161482388826147c6565b975061482e836147de565b92505060018101905061480f565b5085935050505092915050565b6000606082019050818103600083015261486381866146f9565b9050818103602083015261487781856146f9565b9050818103604083015261488b81846147eb565b9050949350505050565b600060e082840312156148ab576148aa6134f7565b5b6148b560e0613400565b905060006148c584828501613c8b565b600083015250602082015167ffffffffffffffff8111156148e9576148e86134fc565b5b6148f584828501613d3b565b602083015250604061490984828501613c8b565b604083015250606061491d84828501613c8b565b606083015250608061493184828501613c8b565b60808301525060a061494584828501613c8b565b60a08301525060c061495984828501613d69565b60c08301525092915050565b60006020828403121561497b5761497a6126ff565b5b600082015167ffffffffffffffff81111561499957614998612704565b5b6149a584828501614895565b91505092915050565b7f4e487b7100000000000000000000000000000000000000000000000000000000600052603260045260246000fd5b7f556e6175746f72697a6564204f6e776572000000000000000000000000000000600082015250565b6000614a13601183613bf1565b9150614a1e826149dd565b602082019050919050565b60006020820190508181036000830152614a4281614a06565b9050919050565b6000604082019050614a5e6000830185614448565b614a6b6020830184614448565b9392505050565b7f496e73756666696369656e7420416c6c6f77616e636500000000000000000000600082015250565b6000614aa8601683613bf1565b9150614ab382614a72565b602082019050919050565b60006020820190508181036000830152614ad781614a9b565b9050919050565b6000606082019050614af36000830186614448565b614b006020830185614448565b614b0d60408301846128f9565b949350505050565b600060208284031215614b2b57614b2a6126ff565b5b6000614b39848285016140cf565b91505092915050565b7f5061796d656e74204661696c6564000000000000000000000000000000000000600082015250565b6000614b78600e83613bf1565b9150614b8382614b42565b602082019050919050565b60006020820190508181036000830152614ba781614b6b565b9050919050565b600067ffffffffffffffff821115614bc957614bc86133a0565b5b602082029050602081019050919050565b6000614bed614be884614bae565b613400565b90508083825260208201905060208402830185811115614c1057614c0f6127ce565b5b835b81811015614c5757805167ffffffffffffffff811115614c3557614c346127c4565b5b808601614c428982613f9a565b85526020850194505050602081019050614c12565b5050509392505050565b600082601f830112614c7657614c756127c4565b5b8151614c86848260208601614bda565b91505092915050565b600060208284031215614ca557614ca46126ff565b5b600082015167ffffffffffffffff811115614cc357614cc2612704565b5b614ccf84828501614c61565b91505092915050565b600060208284031215614cee57614ced6126ff565b5b600082015167ffffffffffffffff811115614d0c57614d0b612704565b5b614d1884828501613d7e565b91505092915050565b600060208284031215614d3757614d366126ff565b5b600082015167ffffffffffffffff811115614d5557614d54612704565b5b614d61848285016144f9565b91505092915050565b600067ffffffffffffffff821115614d8557614d846133a0565b5b602082029050602081019050919050565b6000614da9614da484614d6a565b613400565b90508083825260208201905060208402830185811115614dcc57614dcb6127ce565b5b835b81811015614e1357805167ffffffffffffffff811115614df157614df06127c4565b5b808601614dfe8982614895565b85526020850194505050602081019050614dce565b5050509392505050565b600082601f830112614e3257614e316127c4565b5b8151614e42848260208601614d96565b91505092915050565b600060208284031215614e6157614e606126ff565b5b600082015167ffffffffffffffff811115614e7f57614e7e612704565b5b614e8b84828501614e1d565b91505092915050565b6101e082016000820151614eab600085018261294f565b506020820151614ebe6020850182612d51565b506040820151614ed1604085018261294f565b506060820151614ee4606085018261294f565b506080820151614ef7608085018261294f565b5060a0820151614f0a60a085018261294f565b5060c0820151614f1d60c085018261294f565b5060e0820151614f3060e085018261294f565b50610100820151614f45610100850182612a20565b50610120820151614f5a610120850182612a20565b50610140820151614f6f610140850182612a20565b50610160820151614f84610160850182612d60565b50610180820151614f99610180850182612d60565b506101a0820151614fae6101a0850182612d60565b506101c0820151614fc36101c0850182612d60565b50505050565b60006101e082019050614fdf6000830184614e94565b92915050565b7f5374657020636f6e6669726d6174696f6e7320696e636f6d706c657465000000600082015250565b600061501b601d83613bf1565b915061502682614fe5565b602082019050919050565b6000602082019050818103600083015261504a8161500e565b9050919050565b60006040820190506150666000830185614448565b61507360208301846128f9565b9392505050565b7f4661696c656420746f2072656c656173652066756e6473000000000000000000600082015250565b60006150b0601783613bf1565b91506150bb8261507a565b602082019050919050565b600060208201905081810360008301526150df816150a3565b9050919050565b60006040820190506150fb6000830185614448565b6151086020830184613012565b939250505056fea2646970667358221220aea4cdc1fd1112eddcf9499aa1b60a3e5342361927a838d86c6fcc916868a43964736f6c63430008180033",
  "linkReferences": {},
  "deployedLinkReferences": {}
}