{
  "_format": "hh-sol-artifact-1",
  "contractName": "SupplyChain",
  "sourceName": "contracts/SupplyChain.sol",
  "abi": [
    {
      "inputs": [
        {
          "internalType": "contract Logistics",
          "name": "_logistics",
          "type": "address"
        },
        {
          "internalType": "contract RawMaterials",
          "name": "_rawMaterials",
          "type": "address"
        },
        {
          "internalType": "contract Services",
          "name": "_services",
          "type": "address"
        }
      ],
      "stateMutability": "nonpayable",
      "type": "constructor"
    },
    {
      "inputs": [
        {
          "internalType": "uint256",
          "name": "supplyChainId",
          "type": "uint256"
        },
        {
          "internalType": "uint256",
          "name": "stepId",
          "type": "uint256"
        }
      ],
      "name": "_confirmReceiver",
      "outputs": [],
      "stateMutability": "nonpayable",
      "type": "function"
    },
    {
      "inputs": [
        {
          "internalType": "uint256",
          "name": "supplyChainId",
          "type": "uint256"
        },
        {
          "internalType": "uint256",
          "name": "stepId",
          "type": "uint256"
        }
      ],
      "name": "_confirmSender",
      "outputs": [],
      "stateMutability": "nonpayable",
      "type": "function"
    },
    {
      "inputs": [
        {
          "internalType": "uint256",
          "name": "supplyChainId",
          "type": "uint256"
        },
        {
          "internalType": "uint256",
          "name": "stepId",
          "type": "uint256"
        }
      ],
      "name": "_confirmTransporterDelivered",
      "outputs": [],
      "stateMutability": "nonpayable",
      "type": "function"
    },
    {
      "inputs": [
        {
          "internalType": "uint256",
          "name": "supplyChainId",
          "type": "uint256"
        },
        {
          "internalType": "uint256",
          "name": "stepId",
          "type": "uint256"
        }
      ],
      "name": "_confirmTransporterReceived",
      "outputs": [],
      "stateMutability": "nonpayable",
      "type": "function"
    },
    {
      "inputs": [
        {
          "components": [
            {
              "internalType": "uint256",
              "name": "stepId",
              "type": "uint256"
            },
            {
              "internalType": "enum SupplyChain.StepType",
              "name": "stepType",
              "type": "uint8"
            },
            {
              "internalType": "uint256",
              "name": "itemId",
              "type": "uint256"
            },
            {
              "internalType": "uint256",
              "name": "logisticsId",
              "type": "uint256"
            },
            {
              "internalType": "uint256",
              "name": "quantity",
              "type": "uint256"
            },
            {
              "internalType": "uint256",
              "name": "logisticsCost",
              "type": "uint256"
            },
            {
              "internalType": "uint256",
              "name": "itemCost",
              "type": "uint256"
            },
            {
              "internalType": "uint256",
              "name": "totalCost",
              "type": "uint256"
            },
            {
              "internalType": "address",
              "name": "sender",
              "type": "address"
            },
            {
              "internalType": "address",
              "name": "transporter",
              "type": "address"
            },
            {
              "internalType": "address",
              "name": "receiver",
              "type": "address"
            },
            {
              "internalType": "bool",
              "name": "senderConfirmed",
              "type": "bool"
            },
            {
              "internalType": "bool",
              "name": "transporterReceived",
              "type": "bool"
            },
            {
              "internalType": "bool",
              "name": "transporterDelivered",
              "type": "bool"
            },
            {
              "internalType": "bool",
              "name": "receiverConfirmed",
              "type": "bool"
            }
          ],
          "internalType": "struct SupplyChain.Step",
          "name": "step",
          "type": "tuple"
        }
      ],
      "name": "_isStepCompleted",
      "outputs": [
        {
          "internalType": "bool",
          "name": "",
          "type": "bool"
        }
      ],
      "stateMutability": "pure",
      "type": "function"
    },
    {
      "inputs": [
        {
          "internalType": "uint256",
          "name": "chainId",
          "type": "uint256"
        }
      ],
      "name": "_setFundChain",
      "outputs": [],
      "stateMutability": "nonpayable",
      "type": "function"
    },
    {
      "inputs": [],
      "name": "chainIdCounter",
      "outputs": [
        {
          "internalType": "uint256",
          "name": "_value",
          "type": "uint256"
        }
      ],
      "stateMutability": "view",
      "type": "function"
    },
    {
      "inputs": [
        {
          "internalType": "string",
          "name": "name",
          "type": "string"
        },
        {
          "internalType": "string",
          "name": "description",
          "type": "string"
        },
        {
          "components": [
            {
              "internalType": "enum SupplyChain.StepType",
              "name": "stepType",
              "type": "uint8"
            },
            {
              "internalType": "uint256",
              "name": "itemId",
              "type": "uint256"
            },
            {
              "internalType": "uint256",
              "name": "logisticsId",
              "type": "uint256"
            },
            {
              "internalType": "uint256",
              "name": "quantity",
              "type": "uint256"
            },
            {
              "internalType": "address",
              "name": "receiver",
              "type": "address"
            }
          ],
          "internalType": "struct SupplyChain.StepInput[]",
          "name": "_steps",
          "type": "tuple[]"
        }
      ],
      "name": "createSupplyChain",
      "outputs": [
        {
          "internalType": "uint256",
          "name": "",
          "type": "uint256"
        }
      ],
      "stateMutability": "nonpayable",
      "type": "function"
    },
    {
      "inputs": [
        {
          "internalType": "uint256",
          "name": "id",
          "type": "uint256"
        }
      ],
      "name": "getSupplyChain",
      "outputs": [
        {
          "components": [
            {
              "internalType": "uint256",
              "name": "id",
              "type": "uint256"
            },
            {
              "internalType": "string",
              "name": "name",
              "type": "string"
            },
            {
              "internalType": "string",
              "name": "description",
              "type": "string"
            },
            {
              "components": [
                {
                  "internalType": "uint256",
                  "name": "stepId",
                  "type": "uint256"
                },
                {
                  "internalType": "enum SupplyChain.StepType",
                  "name": "stepType",
                  "type": "uint8"
                },
                {
                  "internalType": "uint256",
                  "name": "itemId",
                  "type": "uint256"
                },
                {
                  "internalType": "uint256",
                  "name": "logisticsId",
                  "type": "uint256"
                },
                {
                  "internalType": "uint256",
                  "name": "quantity",
                  "type": "uint256"
                },
                {
                  "internalType": "uint256",
                  "name": "logisticsCost",
                  "type": "uint256"
                },
                {
                  "internalType": "uint256",
                  "name": "itemCost",
                  "type": "uint256"
                },
                {
                  "internalType": "uint256",
                  "name": "totalCost",
                  "type": "uint256"
                },
                {
                  "internalType": "address",
                  "name": "sender",
                  "type": "address"
                },
                {
                  "internalType": "address",
                  "name": "transporter",
                  "type": "address"
                },
                {
                  "internalType": "address",
                  "name": "receiver",
                  "type": "address"
                },
                {
                  "internalType": "bool",
                  "name": "senderConfirmed",
                  "type": "bool"
                },
                {
                  "internalType": "bool",
                  "name": "transporterReceived",
                  "type": "bool"
                },
                {
                  "internalType": "bool",
                  "name": "transporterDelivered",
                  "type": "bool"
                },
                {
                  "internalType": "bool",
                  "name": "receiverConfirmed",
                  "type": "bool"
                }
              ],
              "internalType": "struct SupplyChain.Step[]",
              "name": "steps",
              "type": "tuple[]"
            },
            {
              "internalType": "uint256",
              "name": "totalFundedAmount",
              "type": "uint256"
            },
            {
              "internalType": "address",
              "name": "owner",
              "type": "address"
            },
            {
              "internalType": "bool",
              "name": "isFunded",
              "type": "bool"
            },
            {
              "internalType": "bool",
              "name": "isActive",
              "type": "bool"
            }
          ],
          "internalType": "struct SupplyChain.Chain",
          "name": "",
          "type": "tuple"
        }
      ],
      "stateMutability": "view",
      "type": "function"
    },
    {
      "inputs": [
        {
          "internalType": "uint256",
          "name": "",
          "type": "uint256"
        }
      ],
      "name": "supplychains",
      "outputs": [
        {
          "internalType": "uint256",
          "name": "id",
          "type": "uint256"
        },
        {
          "internalType": "string",
          "name": "name",
          "type": "string"
        },
        {
          "internalType": "string",
          "name": "description",
          "type": "string"
        },
        {
          "internalType": "uint256",
          "name": "totalFundedAmount",
          "type": "uint256"
        },
        {
          "internalType": "address",
          "name": "owner",
          "type": "address"
        },
        {
          "internalType": "bool",
          "name": "isFunded",
          "type": "bool"
        },
        {
          "internalType": "bool",
          "name": "isActive",
          "type": "bool"
        }
      ],
      "stateMutability": "view",
      "type": "function"
    }
  ],
  "bytecode": "0x60806040523480156200001157600080fd5b50604051620029db380380620029db83398181016040528101906200003791906200020a565b826000806101000a81548173ffffffffffffffffffffffffffffffffffffffff021916908373ffffffffffffffffffffffffffffffffffffffff16021790555081600160006101000a81548173ffffffffffffffffffffffffffffffffffffffff021916908373ffffffffffffffffffffffffffffffffffffffff16021790555080600260006101000a81548173ffffffffffffffffffffffffffffffffffffffff021916908373ffffffffffffffffffffffffffffffffffffffff16021790555050505062000266565b600080fd5b600073ffffffffffffffffffffffffffffffffffffffff82169050919050565b6000620001348262000107565b9050919050565b6000620001488262000127565b9050919050565b6200015a816200013b565b81146200016657600080fd5b50565b6000815190506200017a816200014f565b92915050565b60006200018d8262000127565b9050919050565b6200019f8162000180565b8114620001ab57600080fd5b50565b600081519050620001bf8162000194565b92915050565b6000620001d28262000127565b9050919050565b620001e481620001c5565b8114620001f057600080fd5b50565b6000815190506200020481620001d9565b92915050565b60008060006060848603121562000226576200022562000102565b5b6000620002368682870162000169565b93505060206200024986828701620001ae565b92505060406200025c86828701620001f3565b9150509250925092565b61276580620002766000396000f3fe608060405234801561001057600080fd5b506004361061009e5760003560e01c806391c5bdee1161006657806391c5bdee1461016d5780639994580b146101895780639b74b775146101a5578063e9368de9146101c1578063ede208fd146101f75761009e565b806320fe1b36146100a357806359b281a6146100d35780636f6c93e0146101035780637f0aa9c91461012157806384a3492514610151575b600080fd5b6100bd60048036038101906100b8919061139e565b610213565b6040516100ca91906117e0565b60405180910390f35b6100ed60048036038101906100e89190611ae6565b6106a7565b6040516100fa9190611b9c565b60405180910390f35b61010b610e6c565b6040516101189190611b9c565b60405180910390f35b61013b60048036038101906101369190611d47565b610e78565b6040516101489190611d84565b60405180910390f35b61016b60048036038101906101669190611d9f565b610eb1565b005b61018760048036038101906101829190611d9f565b610f0d565b005b6101a3600480360381019061019e919061139e565b610f69565b005b6101bf60048036038101906101ba9190611d9f565b610fbe565b005b6101db60048036038101906101d6919061139e565b61101a565b6040516101ee9796959493929190611e38565b60405180910390f35b610211600480360381019061020c9190611d9f565b6111a6565b005b61021b6112f5565b61022f82600361120290919063ffffffff16565b61026e576040517f08c379a000000000000000000000000000000000000000000000000000000000815260040161026590611f01565b60405180910390fd5b6005600083815260200190815260200160002060405180610100016040529081600082015481526020016001820180546102a790611f50565b80601f01602080910402602001604051908101604052809291908181526020018280546102d390611f50565b80156103205780601f106102f557610100808354040283529160200191610320565b820191906000526020600020905b81548152906001019060200180831161030357829003601f168201915b5050505050815260200160028201805461033990611f50565b80601f016020809104026020016040519081016040528092919081815260200182805461036590611f50565b80156103b25780601f10610387576101008083540402835291602001916103b2565b820191906000526020600020905b81548152906001019060200180831161039557829003601f168201915b5050505050815260200160038201805480602002602001604051908101604052809291908181526020016000905b8282101561060257838290600052602060002090600b0201604051806101e0016040529081600082015481526020016001820160009054906101000a900460ff16600181111561043357610432611496565b5b600181111561044557610444611496565b5b81526020016002820154815260200160038201548152602001600482015481526020016005820154815260200160068201548152602001600782015481526020016008820160009054906101000a900473ffffffffffffffffffffffffffffffffffffffff1673ffffffffffffffffffffffffffffffffffffffff1673ffffffffffffffffffffffffffffffffffffffff1681526020016009820160009054906101000a900473ffffffffffffffffffffffffffffffffffffffff1673ffffffffffffffffffffffffffffffffffffffff1673ffffffffffffffffffffffffffffffffffffffff168152602001600a820160009054906101000a900473ffffffffffffffffffffffffffffffffffffffff1673ffffffffffffffffffffffffffffffffffffffff1673ffffffffffffffffffffffffffffffffffffffff168152602001600a820160149054906101000a900460ff16151515158152602001600a820160159054906101000a900460ff16151515158152602001600a820160169054906101000a900460ff16151515158152602001600a820160179054906101000a900460ff161515151581525050815260200190600101906103e0565b505050508152602001600482015481526020016005820160009054906101000a900473ffffffffffffffffffffffffffffffffffffffff1673ffffffffffffffffffffffffffffffffffffffff1673ffffffffffffffffffffffffffffffffffffffff1681526020016005820160149054906101000a900460ff161515151581526020016005820160159054906101000a900460ff1615151515815250509050919050565b60006106b3600661121c565b60006106bf6006611232565b90506000600560008381526020019081526020016000209050818160000181905550858160010190816106f2919061212d565b5084816002019081610704919061212d565b506000816004018190555060008160050160146101000a81548160ff02191690831515021790555060008160050160156101000a81548160ff021916908315150217905550610751611240565b8160050160006101000a81548173ffffffffffffffffffffffffffffffffffffffff021916908373ffffffffffffffffffffffffffffffffffffffff1602179055506000805b8551811015610e4957600082905082806107b09061222e565b9350506000806000806000808c88815181106107cf576107ce612276565b5b6020026020010151905060008060009054906101000a900473ffffffffffffffffffffffffffffffffffffffff1673ffffffffffffffffffffffffffffffffffffffff166313ded4c483604001516040518263ffffffff1660e01b81526004016108399190611b9c565b600060405180830381865afa158015610856573d6000803e3d6000fd5b505050506040513d6000823e3d601f19601f8201168201806040525081019061087f91906123d3565b90508060600151955080604001519350600060018111156108a3576108a2611496565b5b826000015160018111156108ba576108b9611496565b5b03610a34576000600160009054906101000a900473ffffffffffffffffffffffffffffffffffffffff1673ffffffffffffffffffffffffffffffffffffffff16635cb93e8484602001516040518263ffffffff1660e01b81526004016109209190611b9c565b600060405180830381865afa15801561093d573d6000803e3d6000fd5b505050506040513d6000823e3d601f19601f8201168201806040525081019061096691906124ec565b90508260600151816080015161097c9190612535565b95508060c001519350600160009054906101000a900473ffffffffffffffffffffffffffffffffffffffff1673ffffffffffffffffffffffffffffffffffffffff1663ef6bf697826000015185606001516040518363ffffffff1660e01b81526004016109ea929190612577565b6020604051808303816000875af1158015610a09573d6000803e3d6000fd5b505050506040513d601f19601f82011682018060405250810190610a2d91906125b5565b5050610b2c565b600180811115610a4757610a46611496565b5b82600001516001811115610a5e57610a5d611496565b5b03610b2b576000600260009054906101000a900473ffffffffffffffffffffffffffffffffffffffff1673ffffffffffffffffffffffffffffffffffffffff1663ef0e239b84602001516040518263ffffffff1660e01b8152600401610ac49190611b9c565b600060405180830381865afa158015610ae1573d6000803e3d6000fd5b505050506040513d6000823e3d601f19601f82011682018060405250810190610b0a91906126b2565b905082606001518160400151610b209190612535565b95508060c001519350505b5b8486610b3891906126fb565b96506000604051806101e001604052808a815260200184600001516001811115610b6557610b64611496565b5b81526020018460200151815260200184604001518152602001846060015181526020018881526020018781526020018981526020018573ffffffffffffffffffffffffffffffffffffffff1681526020018673ffffffffffffffffffffffffffffffffffffffff168152602001846080015173ffffffffffffffffffffffffffffffffffffffff1681526020016000151581526020016000151581526020016000151581526020016000151581525090508b6003018190806001815401808255809150506001900390600052602060002090600b02016000909190919091506000820151816000015560208201518160010160006101000a81548160ff02191690836001811115610c7957610c78611496565b5b021790555060408201518160020155606082015181600301556080820151816004015560a0820151816005015560c0820151816006015560e082015181600701556101008201518160080160006101000a81548173ffffffffffffffffffffffffffffffffffffffff021916908373ffffffffffffffffffffffffffffffffffffffff1602179055506101208201518160090160006101000a81548173ffffffffffffffffffffffffffffffffffffffff021916908373ffffffffffffffffffffffffffffffffffffffff16021790555061014082015181600a0160006101000a81548173ffffffffffffffffffffffffffffffffffffffff021916908373ffffffffffffffffffffffffffffffffffffffff16021790555061016082015181600a0160146101000a81548160ff02191690831515021790555061018082015181600a0160156101000a81548160ff0219169083151502179055506101a082015181600a0160166101000a81548160ff0219169083151502179055506101c082015181600a0160176101000a81548160ff0219169083151502179055505050878c6004016000828254610e2c91906126fb565b925050819055505050505050505050508080600101915050610797565b50610e5e83600361124890919063ffffffff16565b508293505050509392505050565b60068060000154905081565b60008161016001518015610e8e57508161018001515b8015610e9c5750816101a001515b8015610eaa5750816101c001515b9050919050565b6000600560008481526020019081526020016000206003018281548110610edb57610eda612276565b5b90600052602060002090600b02019050600181600a0160166101000a81548160ff021916908315150217905550505050565b6000600560008481526020019081526020016000206003018281548110610f3757610f36612276565b5b90600052602060002090600b02019050600181600a0160176101000a81548160ff021916908315150217905550505050565b600060056000838152602001908152602001600020905060018160050160146101000a81548160ff02191690831515021790555060018160050160156101000a81548160ff0219169083151502179055505050565b6000600560008481526020019081526020016000206003018281548110610fe857610fe7612276565b5b90600052602060002090600b02019050600181600a0160146101000a81548160ff021916908315150217905550505050565b600560205280600052604060002060009150905080600001549080600101805461104390611f50565b80601f016020809104026020016040519081016040528092919081815260200182805461106f90611f50565b80156110bc5780601f10611091576101008083540402835291602001916110bc565b820191906000526020600020905b81548152906001019060200180831161109f57829003601f168201915b5050505050908060020180546110d190611f50565b80601f01602080910402602001604051908101604052809291908181526020018280546110fd90611f50565b801561114a5780601f1061111f5761010080835404028352916020019161114a565b820191906000526020600020905b81548152906001019060200180831161112d57829003601f168201915b5050505050908060040154908060050160009054906101000a900473ffffffffffffffffffffffffffffffffffffffff16908060050160149054906101000a900460ff16908060050160159054906101000a900460ff16905087565b60006005600084815260200190815260200160002060030182815481106111d0576111cf612276565b5b90600052602060002090600b02019050600181600a0160156101000a81548160ff021916908315150217905550505050565b6000611214836000018360001b611262565b905092915050565b6001816000016000828254019250508190555050565b600081600001549050919050565b600032905090565b600061125a836000018360001b611285565b905092915050565b600080836001016000848152602001908152602001600020541415905092915050565b60006112918383611262565b6112ea5782600001829080600181540180825580915050600190039060005260206000200160009091909190915055826000018054905083600101600084815260200190815260200160002081905550600190506112ef565b600090505b92915050565b6040518061010001604052806000815260200160608152602001606081526020016060815260200160008152602001600073ffffffffffffffffffffffffffffffffffffffff1681526020016000151581526020016000151581525090565b6000604051905090565b600080fd5b600080fd5b6000819050919050565b61137b81611368565b811461138657600080fd5b50565b60008135905061139881611372565b92915050565b6000602082840312156113b4576113b361135e565b5b60006113c284828501611389565b91505092915050565b6113d481611368565b82525050565b600081519050919050565b600082825260208201905092915050565b60005b838110156114145780820151818401526020810190506113f9565b60008484015250505050565b6000601f19601f8301169050919050565b600061143c826113da565b61144681856113e5565b93506114568185602086016113f6565b61145f81611420565b840191505092915050565b600081519050919050565b600082825260208201905092915050565b6000819050602082019050919050565b7f4e487b7100000000000000000000000000000000000000000000000000000000600052602160045260246000fd5b600281106114d6576114d5611496565b5b50565b60008190506114e7826114c5565b919050565b60006114f7826114d9565b9050919050565b611507816114ec565b82525050565b600073ffffffffffffffffffffffffffffffffffffffff82169050919050565b60006115388261150d565b9050919050565b6115488161152d565b82525050565b60008115159050919050565b6115638161154e565b82525050565b6101e08201600082015161158060008501826113cb565b50602082015161159360208501826114fe565b5060408201516115a660408501826113cb565b5060608201516115b960608501826113cb565b5060808201516115cc60808501826113cb565b5060a08201516115df60a08501826113cb565b5060c08201516115f260c08501826113cb565b5060e082015161160560e08501826113cb565b5061010082015161161a61010085018261153f565b5061012082015161162f61012085018261153f565b5061014082015161164461014085018261153f565b5061016082015161165961016085018261155a565b5061018082015161166e61018085018261155a565b506101a08201516116836101a085018261155a565b506101c08201516116986101c085018261155a565b50505050565b60006116aa8383611569565b6101e08301905092915050565b6000602082019050919050565b60006116cf8261146a565b6116d98185611475565b93506116e483611486565b8060005b838110156117155781516116fc888261169e565b9750611707836116b7565b9250506001810190506116e8565b5085935050505092915050565b60006101008301600083015161173b60008601826113cb565b50602083015184820360208601526117538282611431565b9150506040830151848203604086015261176d8282611431565b9150506060830151848203606086015261178782826116c4565b915050608083015161179c60808601826113cb565b5060a08301516117af60a086018261153f565b5060c08301516117c260c086018261155a565b5060e08301516117d560e086018261155a565b508091505092915050565b600060208201905081810360008301526117fa8184611722565b905092915050565b600080fd5b600080fd5b7f4e487b7100000000000000000000000000000000000000000000000000000000600052604160045260246000fd5b61184482611420565b810181811067ffffffffffffffff821117156118635761186261180c565b5b80604052505050565b6000611876611354565b9050611882828261183b565b919050565b600067ffffffffffffffff8211156118a2576118a161180c565b5b6118ab82611420565b9050602081019050919050565b82818337600083830152505050565b60006118da6118d584611887565b61186c565b9050828152602081018484840111156118f6576118f5611807565b5b6119018482856118b8565b509392505050565b600082601f83011261191e5761191d611802565b5b813561192e8482602086016118c7565b91505092915050565b600067ffffffffffffffff8211156119525761195161180c565b5b602082029050602081019050919050565b600080fd5b600080fd5b600080fd5b6002811061197f57600080fd5b50565b60008135905061199181611972565b92915050565b6119a08161152d565b81146119ab57600080fd5b50565b6000813590506119bd81611997565b92915050565b600060a082840312156119d9576119d8611968565b5b6119e360a061186c565b905060006119f384828501611982565b6000830152506020611a0784828501611389565b6020830152506040611a1b84828501611389565b6040830152506060611a2f84828501611389565b6060830152506080611a43848285016119ae565b60808301525092915050565b6000611a62611a5d84611937565b61186c565b90508083825260208201905060a08402830185811115611a8557611a84611963565b5b835b81811015611aae5780611a9a88826119c3565b84526020840193505060a081019050611a87565b5050509392505050565b600082601f830112611acd57611acc611802565b5b8135611add848260208601611a4f565b91505092915050565b600080600060608486031215611aff57611afe61135e565b5b600084013567ffffffffffffffff811115611b1d57611b1c611363565b5b611b2986828701611909565b935050602084013567ffffffffffffffff811115611b4a57611b49611363565b5b611b5686828701611909565b925050604084013567ffffffffffffffff811115611b7757611b76611363565b5b611b8386828701611ab8565b9150509250925092565b611b9681611368565b82525050565b6000602082019050611bb16000830184611b8d565b92915050565b611bc08161154e565b8114611bcb57600080fd5b50565b600081359050611bdd81611bb7565b92915050565b60006101e08284031215611bfa57611bf9611968565b5b611c056101e061186c565b90506000611c1584828501611389565b6000830152506020611c2984828501611982565b6020830152506040611c3d84828501611389565b6040830152506060611c5184828501611389565b6060830152506080611c6584828501611389565b60808301525060a0611c7984828501611389565b60a08301525060c0611c8d84828501611389565b60c08301525060e0611ca184828501611389565b60e083015250610100611cb6848285016119ae565b61010083015250610120611ccc848285016119ae565b61012083015250610140611ce2848285016119ae565b61014083015250610160611cf884828501611bce565b61016083015250610180611d0e84828501611bce565b610180830152506101a0611d2484828501611bce565b6101a0830152506101c0611d3a84828501611bce565b6101c08301525092915050565b60006101e08284031215611d5e57611d5d61135e565b5b6000611d6c84828501611be3565b91505092915050565b611d7e8161154e565b82525050565b6000602082019050611d996000830184611d75565b92915050565b60008060408385031215611db657611db561135e565b5b6000611dc485828601611389565b9250506020611dd585828601611389565b9150509250929050565b600082825260208201905092915050565b6000611dfb826113da565b611e058185611ddf565b9350611e158185602086016113f6565b611e1e81611420565b840191505092915050565b611e328161152d565b82525050565b600060e082019050611e4d600083018a611b8d565b8181036020830152611e5f8189611df0565b90508181036040830152611e738188611df0565b9050611e826060830187611b8d565b611e8f6080830186611e29565b611e9c60a0830185611d75565b611ea960c0830184611d75565b98975050505050505050565b7f537570706c79436861696e20646f6573206e6f74206578697374000000000000600082015250565b6000611eeb601a83611ddf565b9150611ef682611eb5565b602082019050919050565b60006020820190508181036000830152611f1a81611ede565b9050919050565b7f4e487b7100000000000000000000000000000000000000000000000000000000600052602260045260246000fd5b60006002820490506001821680611f6857607f821691505b602082108103611f7b57611f7a611f21565b5b50919050565b60008190508160005260206000209050919050565b60006020601f8301049050919050565b600082821b905092915050565b600060088302611fe37fffffffffffffffffffffffffffffffffffffffffffffffffffffffffffffffff82611fa6565b611fed8683611fa6565b95508019841693508086168417925050509392505050565b6000819050919050565b600061202a61202561202084611368565b612005565b611368565b9050919050565b6000819050919050565b6120448361200f565b61205861205082612031565b848454611fb3565b825550505050565b600090565b61206d612060565b61207881848461203b565b505050565b5b8181101561209c57612091600082612065565b60018101905061207e565b5050565b601f8211156120e1576120b281611f81565b6120bb84611f96565b810160208510156120ca578190505b6120de6120d685611f96565b83018261207d565b50505b505050565b600082821c905092915050565b6000612104600019846008026120e6565b1980831691505092915050565b600061211d83836120f3565b9150826002028217905092915050565b612136826113da565b67ffffffffffffffff81111561214f5761214e61180c565b5b6121598254611f50565b6121648282856120a0565b600060209050601f8311600181146121975760008415612185578287015190505b61218f8582612111565b8655506121f7565b601f1984166121a586611f81565b60005b828110156121cd578489015182556001820191506020850194506020810190506121a8565b868310156121ea57848901516121e6601f8916826120f3565b8355505b6001600288020188555050505b505050505050565b7f4e487b7100000000000000000000000000000000000000000000000000000000600052601160045260246000fd5b600061223982611368565b91507fffffffffffffffffffffffffffffffffffffffffffffffffffffffffffffffff820361226b5761226a6121ff565b5b600182019050919050565b7f4e487b7100000000000000000000000000000000000000000000000000000000600052603260045260246000fd5b6000815190506122b481611372565b92915050565b60006122cd6122c884611887565b61186c565b9050828152602081018484840111156122e9576122e8611807565b5b6122f48482856113f6565b509392505050565b600082601f83011261231157612310611802565b5b81516123218482602086016122ba565b91505092915050565b60008151905061233981611997565b92915050565b60006080828403121561235557612354611968565b5b61235f608061186c565b9050600061236f848285016122a5565b600083015250602082015167ffffffffffffffff8111156123935761239261196d565b5b61239f848285016122fc565b60208301525060406123b38482850161232a565b60408301525060606123c7848285016122a5565b60608301525092915050565b6000602082840312156123e9576123e861135e565b5b600082015167ffffffffffffffff81111561240757612406611363565b5b6124138482850161233f565b91505092915050565b600060e0828403121561243257612431611968565b5b61243c60e061186c565b9050600061244c848285016122a5565b600083015250602082015167ffffffffffffffff8111156124705761246f61196d565b5b61247c848285016122fc565b6020830152506040612490848285016122a5565b60408301525060606124a4848285016122a5565b60608301525060806124b8848285016122a5565b60808301525060a06124cc848285016122a5565b60a08301525060c06124e08482850161232a565b60c08301525092915050565b6000602082840312156125025761250161135e565b5b600082015167ffffffffffffffff8111156125205761251f611363565b5b61252c8482850161241c565b91505092915050565b600061254082611368565b915061254b83611368565b925082820261255981611368565b915082820484148315176125705761256f6121ff565b5b5092915050565b600060408201905061258c6000830185611b8d565b6125996020830184611b8d565b9392505050565b6000815190506125af81611bb7565b92915050565b6000602082840312156125cb576125ca61135e565b5b60006125d9848285016125a0565b91505092915050565b600060e082840312156125f8576125f7611968565b5b61260260e061186c565b90506000612612848285016122a5565b600083015250602082015167ffffffffffffffff8111156126365761263561196d565b5b612642848285016122fc565b6020830152506040612656848285016122a5565b604083015250606061266a848285016122a5565b606083015250608061267e848285016122a5565b60808301525060a0612692848285016122a5565b60a08301525060c06126a68482850161232a565b60c08301525092915050565b6000602082840312156126c8576126c761135e565b5b600082015167ffffffffffffffff8111156126e6576126e5611363565b5b6126f2848285016125e2565b91505092915050565b600061270682611368565b915061271183611368565b9250828201905080821115612729576127286121ff565b5b9291505056fea26469706673582212208466e3b0625fe072256732293a83f2f4d2b6f1a1a369fce5205f6a8d7e50f5a064736f6c63430008180033",
  "linkReferences": {},
  "deployedLinkReferences": {}
}