{
  "_format": "hh-sol-artifact-1",
  "contractName": "SupplySphere",
  "sourceName": "contracts/SupplySphere.sol",
  "abi": [
    {
      "inputs": [
        {
          "internalType": "contract IERC20",
          "name": "_paymentToken",
          "type": "address"
        }
      ],
      "stateMutability": "nonpayable",
      "type": "constructor"
    },
    {
      "inputs": [],
      "name": "AccessControlBadConfirmation",
      "type": "error"
    },
    {
      "inputs": [
        {
          "internalType": "address",
          "name": "account",
          "type": "address"
        },
        {
          "internalType": "bytes32",
          "name": "neededRole",
          "type": "bytes32"
        }
      ],
      "name": "AccessControlUnauthorizedAccount",
      "type": "error"
    },
    {
      "anonymous": false,
      "inputs": [
        {
          "indexed": true,
          "internalType": "bytes32",
          "name": "role",
          "type": "bytes32"
        },
        {
          "indexed": true,
          "internalType": "bytes32",
          "name": "previousAdminRole",
          "type": "bytes32"
        },
        {
          "indexed": true,
          "internalType": "bytes32",
          "name": "newAdminRole",
          "type": "bytes32"
        }
      ],
      "name": "RoleAdminChanged",
      "type": "event"
    },
    {
      "anonymous": false,
      "inputs": [
        {
          "indexed": true,
          "internalType": "bytes32",
          "name": "role",
          "type": "bytes32"
        },
        {
          "indexed": true,
          "internalType": "address",
          "name": "account",
          "type": "address"
        },
        {
          "indexed": true,
          "internalType": "address",
          "name": "sender",
          "type": "address"
        }
      ],
      "name": "RoleGranted",
      "type": "event"
    },
    {
      "anonymous": false,
      "inputs": [
        {
          "indexed": true,
          "internalType": "bytes32",
          "name": "role",
          "type": "bytes32"
        },
        {
          "indexed": true,
          "internalType": "address",
          "name": "account",
          "type": "address"
        },
        {
          "indexed": true,
          "internalType": "address",
          "name": "sender",
          "type": "address"
        }
      ],
      "name": "RoleRevoked",
      "type": "event"
    },
    {
      "inputs": [],
      "name": "DEFAULT_ADMIN_ROLE",
      "outputs": [
        {
          "internalType": "bytes32",
          "name": "",
          "type": "bytes32"
        }
      ],
      "stateMutability": "view",
      "type": "function"
    },
    {
      "inputs": [],
      "name": "MANUFACTURER_ROLE",
      "outputs": [
        {
          "internalType": "bytes32",
          "name": "",
          "type": "bytes32"
        }
      ],
      "stateMutability": "view",
      "type": "function"
    },
    {
      "inputs": [],
      "name": "SELLER_ROLE",
      "outputs": [
        {
          "internalType": "bytes32",
          "name": "",
          "type": "bytes32"
        }
      ],
      "stateMutability": "view",
      "type": "function"
    },
    {
      "inputs": [],
      "name": "SUPPLIER_ROLE",
      "outputs": [
        {
          "internalType": "bytes32",
          "name": "",
          "type": "bytes32"
        }
      ],
      "stateMutability": "view",
      "type": "function"
    },
    {
      "inputs": [],
      "name": "TRANSPORTER_ROLE",
      "outputs": [
        {
          "internalType": "bytes32",
          "name": "",
          "type": "bytes32"
        }
      ],
      "stateMutability": "view",
      "type": "function"
    },
    {
      "inputs": [
        {
          "internalType": "string",
          "name": "name",
          "type": "string"
        },
        {
          "internalType": "uint256",
          "name": "price",
          "type": "uint256"
        }
      ],
      "name": "addLogistics",
      "outputs": [
        {
          "internalType": "uint256",
          "name": "",
          "type": "uint256"
        }
      ],
      "stateMutability": "nonpayable",
      "type": "function"
    },
    {
      "inputs": [
        {
          "internalType": "string",
          "name": "name",
          "type": "string"
        },
        {
          "internalType": "uint256",
          "name": "price",
          "type": "uint256"
        },
        {
          "internalType": "uint256",
          "name": "tax",
          "type": "uint256"
        },
        {
          "internalType": "uint256",
          "name": "quantity",
          "type": "uint256"
        }
      ],
      "name": "addProduct",
      "outputs": [
        {
          "internalType": "uint256",
          "name": "",
          "type": "uint256"
        }
      ],
      "stateMutability": "nonpayable",
      "type": "function"
    },
    {
      "inputs": [
        {
          "internalType": "string",
          "name": "name",
          "type": "string"
        },
        {
          "internalType": "uint256",
          "name": "price",
          "type": "uint256"
        },
        {
          "internalType": "uint256",
          "name": "tax",
          "type": "uint256"
        },
        {
          "internalType": "uint256",
          "name": "quantity",
          "type": "uint256"
        }
      ],
      "name": "addRawMaterial",
      "outputs": [
        {
          "internalType": "uint256",
          "name": "",
          "type": "uint256"
        }
      ],
      "stateMutability": "nonpayable",
      "type": "function"
    },
    {
      "inputs": [
        {
          "internalType": "string",
          "name": "name",
          "type": "string"
        },
        {
          "internalType": "uint256",
          "name": "price",
          "type": "uint256"
        },
        {
          "internalType": "uint256",
          "name": "tax",
          "type": "uint256"
        },
        {
          "internalType": "uint256",
          "name": "quantity",
          "type": "uint256"
        },
        {
          "internalType": "uint256",
          "name": "volume",
          "type": "uint256"
        }
      ],
      "name": "addService",
      "outputs": [
        {
          "internalType": "uint256",
          "name": "",
          "type": "uint256"
        }
      ],
      "stateMutability": "nonpayable",
      "type": "function"
    },
    {
      "inputs": [],
      "name": "chainIdCounter",
      "outputs": [
        {
          "internalType": "uint256",
          "name": "_value",
          "type": "uint256"
        }
      ],
      "stateMutability": "view",
      "type": "function"
    },
    {
      "inputs": [
        {
          "internalType": "uint256",
          "name": "supplyChainId",
          "type": "uint256"
        },
        {
          "internalType": "uint256",
          "name": "stepId",
          "type": "uint256"
        }
      ],
      "name": "confirmReceiver",
      "outputs": [],
      "stateMutability": "nonpayable",
      "type": "function"
    },
    {
      "inputs": [
        {
          "internalType": "uint256",
          "name": "supplyChainId",
          "type": "uint256"
        },
        {
          "internalType": "uint256",
          "name": "stepId",
          "type": "uint256"
        }
      ],
      "name": "confirmSender",
      "outputs": [],
      "stateMutability": "nonpayable",
      "type": "function"
    },
    {
      "inputs": [
        {
          "internalType": "uint256",
          "name": "supplyChainId",
          "type": "uint256"
        },
        {
          "internalType": "uint256",
          "name": "stepId",
          "type": "uint256"
        }
      ],
      "name": "confirmTransporterDelivered",
      "outputs": [],
      "stateMutability": "nonpayable",
      "type": "function"
    },
    {
      "inputs": [
        {
          "internalType": "uint256",
          "name": "supplyChainId",
          "type": "uint256"
        },
        {
          "internalType": "uint256",
          "name": "stepId",
          "type": "uint256"
        }
      ],
      "name": "confirmTransporterReceived",
      "outputs": [],
      "stateMutability": "nonpayable",
      "type": "function"
    },
    {
      "inputs": [
        {
          "internalType": "string",
          "name": "name",
          "type": "string"
        },
        {
          "internalType": "string",
          "name": "description",
          "type": "string"
        },
        {
          "components": [
            {
              "internalType": "enum SupplyChain.StepType",
              "name": "stepType",
              "type": "uint8"
            },
            {
              "internalType": "uint256",
              "name": "itemId",
              "type": "uint256"
            },
            {
              "internalType": "uint256",
              "name": "logisticsId",
              "type": "uint256"
            },
            {
              "internalType": "uint256",
              "name": "quantity",
              "type": "uint256"
            },
            {
              "internalType": "address",
              "name": "receiver",
              "type": "address"
            }
          ],
          "internalType": "struct SupplyChain.StepInput[]",
          "name": "_steps",
          "type": "tuple[]"
        }
      ],
      "name": "createSupplyChain",
      "outputs": [
        {
          "internalType": "uint256",
          "name": "",
          "type": "uint256"
        }
      ],
      "stateMutability": "nonpayable",
      "type": "function"
    },
    {
      "inputs": [
        {
          "internalType": "uint256",
          "name": "chainId",
          "type": "uint256"
        },
        {
          "internalType": "contract IERC20",
          "name": "paymentToken",
          "type": "address"
        }
      ],
      "name": "fundChain",
      "outputs": [
        {
          "internalType": "bool",
          "name": "",
          "type": "bool"
        }
      ],
      "stateMutability": "nonpayable",
      "type": "function"
    },
    {
      "inputs": [],
      "name": "getAllLogistics",
      "outputs": [
        {
          "components": [
            {
              "internalType": "uint256",
              "name": "id",
              "type": "uint256"
            },
            {
              "internalType": "string",
              "name": "name",
              "type": "string"
            },
            {
              "internalType": "address",
              "name": "owner",
              "type": "address"
            },
            {
              "internalType": "uint256",
              "name": "price",
              "type": "uint256"
            }
          ],
          "internalType": "struct Logistics.Logistic[]",
          "name": "",
          "type": "tuple[]"
        }
      ],
      "stateMutability": "view",
      "type": "function"
    },
    {
      "inputs": [],
      "name": "getAllProducts",
      "outputs": [
        {
          "components": [
            {
              "internalType": "uint256",
              "name": "id",
              "type": "uint256"
            },
            {
              "internalType": "string",
              "name": "name",
              "type": "string"
            },
            {
              "internalType": "uint256",
              "name": "quantity",
              "type": "uint256"
            },
            {
              "internalType": "uint256",
              "name": "available",
              "type": "uint256"
            },
            {
              "internalType": "uint256",
              "name": "price",
              "type": "uint256"
            },
            {
              "internalType": "uint256",
              "name": "tax",
              "type": "uint256"
            },
            {
              "internalType": "address",
              "name": "owner",
              "type": "address"
            }
          ],
          "internalType": "struct Products.Product[]",
          "name": "",
          "type": "tuple[]"
        }
      ],
      "stateMutability": "view",
      "type": "function"
    },
    {
      "inputs": [],
      "name": "getAllRawMaterials",
      "outputs": [
        {
          "components": [
            {
              "internalType": "uint256",
              "name": "id",
              "type": "uint256"
            },
            {
              "internalType": "string",
              "name": "name",
              "type": "string"
            },
            {
              "internalType": "uint256",
              "name": "quantity",
              "type": "uint256"
            },
            {
              "internalType": "uint256",
              "name": "available",
              "type": "uint256"
            },
            {
              "internalType": "uint256",
              "name": "price",
              "type": "uint256"
            },
            {
              "internalType": "uint256",
              "name": "tax",
              "type": "uint256"
            },
            {
              "internalType": "address",
              "name": "owner",
              "type": "address"
            }
          ],
          "internalType": "struct RawMaterials.RawMaterial[]",
          "name": "",
          "type": "tuple[]"
        }
      ],
      "stateMutability": "view",
      "type": "function"
    },
    {
      "inputs": [],
      "name": "getAllServices",
      "outputs": [
        {
          "components": [
            {
              "internalType": "uint256",
              "name": "id",
              "type": "uint256"
            },
            {
              "internalType": "string",
              "name": "name",
              "type": "string"
            },
            {
              "internalType": "uint256",
              "name": "price",
              "type": "uint256"
            },
            {
              "internalType": "uint256",
              "name": "tax",
              "type": "uint256"
            },
            {
              "internalType": "uint256",
              "name": "quantity",
              "type": "uint256"
            },
            {
              "internalType": "uint256",
              "name": "volume",
              "type": "uint256"
            },
            {
              "internalType": "address",
              "name": "owner",
              "type": "address"
            }
          ],
          "internalType": "struct Services.Service[]",
          "name": "",
          "type": "tuple[]"
        }
      ],
      "stateMutability": "view",
      "type": "function"
    },
    {
      "inputs": [
        {
          "internalType": "uint256",
          "name": "id",
          "type": "uint256"
        }
      ],
      "name": "getLogistic",
      "outputs": [
        {
          "components": [
            {
              "internalType": "uint256",
              "name": "id",
              "type": "uint256"
            },
            {
              "internalType": "string",
              "name": "name",
              "type": "string"
            },
            {
              "internalType": "address",
              "name": "owner",
              "type": "address"
            },
            {
              "internalType": "uint256",
              "name": "price",
              "type": "uint256"
            }
          ],
          "internalType": "struct Logistics.Logistic",
          "name": "",
          "type": "tuple"
        }
      ],
      "stateMutability": "view",
      "type": "function"
    },
    {
      "inputs": [
        {
          "internalType": "uint256",
          "name": "index",
          "type": "uint256"
        }
      ],
      "name": "getLogisticlAtIndex",
      "outputs": [
        {
          "components": [
            {
              "internalType": "uint256",
              "name": "id",
              "type": "uint256"
            },
            {
              "internalType": "string",
              "name": "name",
              "type": "string"
            },
            {
              "internalType": "address",
              "name": "owner",
              "type": "address"
            },
            {
              "internalType": "uint256",
              "name": "price",
              "type": "uint256"
            }
          ],
          "internalType": "struct Logistics.Logistic",
          "name": "",
          "type": "tuple"
        }
      ],
      "stateMutability": "view",
      "type": "function"
    },
    {
      "inputs": [
        {
          "internalType": "uint256",
          "name": "id",
          "type": "uint256"
        }
      ],
      "name": "getProduct",
      "outputs": [
        {
          "components": [
            {
              "internalType": "uint256",
              "name": "id",
              "type": "uint256"
            },
            {
              "internalType": "string",
              "name": "name",
              "type": "string"
            },
            {
              "internalType": "uint256",
              "name": "quantity",
              "type": "uint256"
            },
            {
              "internalType": "uint256",
              "name": "available",
              "type": "uint256"
            },
            {
              "internalType": "uint256",
              "name": "price",
              "type": "uint256"
            },
            {
              "internalType": "uint256",
              "name": "tax",
              "type": "uint256"
            },
            {
              "internalType": "address",
              "name": "owner",
              "type": "address"
            }
          ],
          "internalType": "struct Products.Product",
          "name": "",
          "type": "tuple"
        }
      ],
      "stateMutability": "view",
      "type": "function"
    },
    {
      "inputs": [
        {
          "internalType": "uint256",
          "name": "index",
          "type": "uint256"
        }
      ],
      "name": "getProductAtIndex",
      "outputs": [
        {
          "components": [
            {
              "internalType": "uint256",
              "name": "id",
              "type": "uint256"
            },
            {
              "internalType": "string",
              "name": "name",
              "type": "string"
            },
            {
              "internalType": "uint256",
              "name": "quantity",
              "type": "uint256"
            },
            {
              "internalType": "uint256",
              "name": "available",
              "type": "uint256"
            },
            {
              "internalType": "uint256",
              "name": "price",
              "type": "uint256"
            },
            {
              "internalType": "uint256",
              "name": "tax",
              "type": "uint256"
            },
            {
              "internalType": "address",
              "name": "owner",
              "type": "address"
            }
          ],
          "internalType": "struct Products.Product",
          "name": "",
          "type": "tuple"
        }
      ],
      "stateMutability": "view",
      "type": "function"
    },
    {
      "inputs": [
        {
          "internalType": "uint256",
          "name": "id",
          "type": "uint256"
        }
      ],
      "name": "getRawMaterial",
      "outputs": [
        {
          "components": [
            {
              "internalType": "uint256",
              "name": "id",
              "type": "uint256"
            },
            {
              "internalType": "string",
              "name": "name",
              "type": "string"
            },
            {
              "internalType": "uint256",
              "name": "quantity",
              "type": "uint256"
            },
            {
              "internalType": "uint256",
              "name": "available",
              "type": "uint256"
            },
            {
              "internalType": "uint256",
              "name": "price",
              "type": "uint256"
            },
            {
              "internalType": "uint256",
              "name": "tax",
              "type": "uint256"
            },
            {
              "internalType": "address",
              "name": "owner",
              "type": "address"
            }
          ],
          "internalType": "struct RawMaterials.RawMaterial",
          "name": "",
          "type": "tuple"
        }
      ],
      "stateMutability": "view",
      "type": "function"
    },
    {
      "inputs": [
        {
          "internalType": "uint256",
          "name": "index",
          "type": "uint256"
        }
      ],
      "name": "getRawMaterialAtIndex",
      "outputs": [
        {
          "components": [
            {
              "internalType": "uint256",
              "name": "id",
              "type": "uint256"
            },
            {
              "internalType": "string",
              "name": "name",
              "type": "string"
            },
            {
              "internalType": "uint256",
              "name": "quantity",
              "type": "uint256"
            },
            {
              "internalType": "uint256",
              "name": "available",
              "type": "uint256"
            },
            {
              "internalType": "uint256",
              "name": "price",
              "type": "uint256"
            },
            {
              "internalType": "uint256",
              "name": "tax",
              "type": "uint256"
            },
            {
              "internalType": "address",
              "name": "owner",
              "type": "address"
            }
          ],
          "internalType": "struct RawMaterials.RawMaterial",
          "name": "",
          "type": "tuple"
        }
      ],
      "stateMutability": "view",
      "type": "function"
    },
    {
      "inputs": [
        {
          "internalType": "bytes32",
          "name": "role",
          "type": "bytes32"
        }
      ],
      "name": "getRoleAdmin",
      "outputs": [
        {
          "internalType": "bytes32",
          "name": "",
          "type": "bytes32"
        }
      ],
      "stateMutability": "view",
      "type": "function"
    },
    {
      "inputs": [
        {
          "internalType": "uint256",
          "name": "id",
          "type": "uint256"
        }
      ],
      "name": "getService",
      "outputs": [
        {
          "components": [
            {
              "internalType": "uint256",
              "name": "id",
              "type": "uint256"
            },
            {
              "internalType": "string",
              "name": "name",
              "type": "string"
            },
            {
              "internalType": "uint256",
              "name": "price",
              "type": "uint256"
            },
            {
              "internalType": "uint256",
              "name": "tax",
              "type": "uint256"
            },
            {
              "internalType": "uint256",
              "name": "quantity",
              "type": "uint256"
            },
            {
              "internalType": "uint256",
              "name": "volume",
              "type": "uint256"
            },
            {
              "internalType": "address",
              "name": "owner",
              "type": "address"
            }
          ],
          "internalType": "struct Services.Service",
          "name": "",
          "type": "tuple"
        }
      ],
      "stateMutability": "view",
      "type": "function"
    },
    {
      "inputs": [
        {
          "internalType": "uint256",
          "name": "index",
          "type": "uint256"
        }
      ],
      "name": "getServiceAtIndex",
      "outputs": [
        {
          "components": [
            {
              "internalType": "uint256",
              "name": "id",
              "type": "uint256"
            },
            {
              "internalType": "string",
              "name": "name",
              "type": "string"
            },
            {
              "internalType": "uint256",
              "name": "price",
              "type": "uint256"
            },
            {
              "internalType": "uint256",
              "name": "tax",
              "type": "uint256"
            },
            {
              "internalType": "uint256",
              "name": "quantity",
              "type": "uint256"
            },
            {
              "internalType": "uint256",
              "name": "volume",
              "type": "uint256"
            },
            {
              "internalType": "address",
              "name": "owner",
              "type": "address"
            }
          ],
          "internalType": "struct Services.Service",
          "name": "",
          "type": "tuple"
        }
      ],
      "stateMutability": "view",
      "type": "function"
    },
    {
      "inputs": [
        {
          "internalType": "uint256",
          "name": "id",
          "type": "uint256"
        }
      ],
      "name": "getSupplyChain",
      "outputs": [
        {
          "components": [
            {
              "internalType": "uint256",
              "name": "id",
              "type": "uint256"
            },
            {
              "internalType": "string",
              "name": "name",
              "type": "string"
            },
            {
              "internalType": "string",
              "name": "description",
              "type": "string"
            },
            {
              "components": [
                {
                  "internalType": "uint256",
                  "name": "stepId",
                  "type": "uint256"
                },
                {
                  "internalType": "enum SupplyChain.StepType",
                  "name": "stepType",
                  "type": "uint8"
                },
                {
                  "internalType": "uint256",
                  "name": "itemId",
                  "type": "uint256"
                },
                {
                  "internalType": "uint256",
                  "name": "logisticsId",
                  "type": "uint256"
                },
                {
                  "internalType": "uint256",
                  "name": "quantity",
                  "type": "uint256"
                },
                {
                  "internalType": "uint256",
                  "name": "logisticsCost",
                  "type": "uint256"
                },
                {
                  "internalType": "uint256",
                  "name": "itemCost",
                  "type": "uint256"
                },
                {
                  "internalType": "uint256",
                  "name": "totalCost",
                  "type": "uint256"
                },
                {
                  "internalType": "address",
                  "name": "sender",
                  "type": "address"
                },
                {
                  "internalType": "address",
                  "name": "transporter",
                  "type": "address"
                },
                {
                  "internalType": "address",
                  "name": "receiver",
                  "type": "address"
                },
                {
                  "internalType": "bool",
                  "name": "senderConfirmed",
                  "type": "bool"
                },
                {
                  "internalType": "bool",
                  "name": "transporterReceived",
                  "type": "bool"
                },
                {
                  "internalType": "bool",
                  "name": "transporterDelivered",
                  "type": "bool"
                },
                {
                  "internalType": "bool",
                  "name": "receiverConfirmed",
                  "type": "bool"
                }
              ],
              "internalType": "struct SupplyChain.Step[]",
              "name": "steps",
              "type": "tuple[]"
            },
            {
              "internalType": "uint256",
              "name": "totalFundedAmount",
              "type": "uint256"
            },
            {
              "internalType": "address",
              "name": "owner",
              "type": "address"
            },
            {
              "internalType": "bool",
              "name": "isFunded",
              "type": "bool"
            },
            {
              "internalType": "bool",
              "name": "isActive",
              "type": "bool"
            }
          ],
          "internalType": "struct SupplyChain.Chain",
          "name": "",
          "type": "tuple"
        }
      ],
      "stateMutability": "view",
      "type": "function"
    },
    {
      "inputs": [
        {
          "internalType": "bytes32",
          "name": "role",
          "type": "bytes32"
        },
        {
          "internalType": "address",
          "name": "account",
          "type": "address"
        }
      ],
      "name": "grantRole",
      "outputs": [],
      "stateMutability": "nonpayable",
      "type": "function"
    },
    {
      "inputs": [
        {
          "internalType": "bytes32",
          "name": "role",
          "type": "bytes32"
        },
        {
          "internalType": "address",
          "name": "account",
          "type": "address"
        }
      ],
      "name": "hasRole",
      "outputs": [
        {
          "internalType": "bool",
          "name": "",
          "type": "bool"
        }
      ],
      "stateMutability": "view",
      "type": "function"
    },
    {
      "inputs": [
        {
          "internalType": "uint256",
          "name": "",
          "type": "uint256"
        }
      ],
      "name": "logistics",
      "outputs": [
        {
          "internalType": "uint256",
          "name": "id",
          "type": "uint256"
        },
        {
          "internalType": "string",
          "name": "name",
          "type": "string"
        },
        {
          "internalType": "address",
          "name": "owner",
          "type": "address"
        },
        {
          "internalType": "uint256",
          "name": "price",
          "type": "uint256"
        }
      ],
      "stateMutability": "view",
      "type": "function"
    },
    {
      "inputs": [],
      "name": "logisticsIdCounter",
      "outputs": [
        {
          "internalType": "uint256",
          "name": "_value",
          "type": "uint256"
        }
      ],
      "stateMutability": "view",
      "type": "function"
    },
    {
      "inputs": [],
      "name": "materialIdCounter",
      "outputs": [
        {
          "internalType": "uint256",
          "name": "_value",
          "type": "uint256"
        }
      ],
      "stateMutability": "view",
      "type": "function"
    },
    {
      "inputs": [
        {
          "internalType": "uint256",
          "name": "",
          "type": "uint256"
        }
      ],
      "name": "materials",
      "outputs": [
        {
          "internalType": "uint256",
          "name": "id",
          "type": "uint256"
        },
        {
          "internalType": "string",
          "name": "name",
          "type": "string"
        },
        {
          "internalType": "uint256",
          "name": "quantity",
          "type": "uint256"
        },
        {
          "internalType": "uint256",
          "name": "available",
          "type": "uint256"
        },
        {
          "internalType": "uint256",
          "name": "price",
          "type": "uint256"
        },
        {
          "internalType": "uint256",
          "name": "tax",
          "type": "uint256"
        },
        {
          "internalType": "address",
          "name": "owner",
          "type": "address"
        }
      ],
      "stateMutability": "view",
      "type": "function"
    },
    {
      "inputs": [],
      "name": "paymentToken",
      "outputs": [
        {
          "internalType": "contract IERC20",
          "name": "",
          "type": "address"
        }
      ],
      "stateMutability": "view",
      "type": "function"
    },
    {
      "inputs": [],
      "name": "productIdCounter",
      "outputs": [
        {
          "internalType": "uint256",
          "name": "_value",
          "type": "uint256"
        }
      ],
      "stateMutability": "view",
      "type": "function"
    },
    {
      "inputs": [
        {
          "internalType": "uint256",
          "name": "",
          "type": "uint256"
        }
      ],
      "name": "products",
      "outputs": [
        {
          "internalType": "uint256",
          "name": "id",
          "type": "uint256"
        },
        {
          "internalType": "string",
          "name": "name",
          "type": "string"
        },
        {
          "internalType": "uint256",
          "name": "quantity",
          "type": "uint256"
        },
        {
          "internalType": "uint256",
          "name": "available",
          "type": "uint256"
        },
        {
          "internalType": "uint256",
          "name": "price",
          "type": "uint256"
        },
        {
          "internalType": "uint256",
          "name": "tax",
          "type": "uint256"
        },
        {
          "internalType": "address",
          "name": "owner",
          "type": "address"
        }
      ],
      "stateMutability": "view",
      "type": "function"
    },
    {
      "inputs": [
        {
          "internalType": "bytes32",
          "name": "role",
          "type": "bytes32"
        }
      ],
      "name": "registerUser",
      "outputs": [
        {
          "internalType": "bool",
          "name": "",
          "type": "bool"
        }
      ],
      "stateMutability": "nonpayable",
      "type": "function"
    },
    {
      "inputs": [
        {
          "internalType": "uint256",
          "name": "id",
          "type": "uint256"
        }
      ],
      "name": "removeLogistic",
      "outputs": [],
      "stateMutability": "nonpayable",
      "type": "function"
    },
    {
      "inputs": [
        {
          "internalType": "uint256",
          "name": "id",
          "type": "uint256"
        }
      ],
      "name": "removeProduct",
      "outputs": [],
      "stateMutability": "nonpayable",
      "type": "function"
    },
    {
      "inputs": [
        {
          "internalType": "uint256",
          "name": "id",
          "type": "uint256"
        }
      ],
      "name": "removeRawMaterial",
      "outputs": [],
      "stateMutability": "nonpayable",
      "type": "function"
    },
    {
      "inputs": [
        {
          "internalType": "uint256",
          "name": "id",
          "type": "uint256"
        }
      ],
      "name": "removeService",
      "outputs": [],
      "stateMutability": "nonpayable",
      "type": "function"
    },
    {
      "inputs": [
        {
          "internalType": "bytes32",
          "name": "role",
          "type": "bytes32"
        },
        {
          "internalType": "address",
          "name": "callerConfirmation",
          "type": "address"
        }
      ],
      "name": "renounceRole",
      "outputs": [],
      "stateMutability": "nonpayable",
      "type": "function"
    },
    {
      "inputs": [
        {
          "internalType": "bytes32",
          "name": "role",
          "type": "bytes32"
        },
        {
          "internalType": "address",
          "name": "account",
          "type": "address"
        }
      ],
      "name": "revokeRole",
      "outputs": [],
      "stateMutability": "nonpayable",
      "type": "function"
    },
    {
      "inputs": [],
      "name": "serviceIdCounter",
      "outputs": [
        {
          "internalType": "uint256",
          "name": "_value",
          "type": "uint256"
        }
      ],
      "stateMutability": "view",
      "type": "function"
    },
    {
      "inputs": [
        {
          "internalType": "uint256",
          "name": "",
          "type": "uint256"
        }
      ],
      "name": "services",
      "outputs": [
        {
          "internalType": "uint256",
          "name": "id",
          "type": "uint256"
        },
        {
          "internalType": "string",
          "name": "name",
          "type": "string"
        },
        {
          "internalType": "uint256",
          "name": "price",
          "type": "uint256"
        },
        {
          "internalType": "uint256",
          "name": "tax",
          "type": "uint256"
        },
        {
          "internalType": "uint256",
          "name": "quantity",
          "type": "uint256"
        },
        {
          "internalType": "uint256",
          "name": "volume",
          "type": "uint256"
        },
        {
          "internalType": "address",
          "name": "owner",
          "type": "address"
        }
      ],
      "stateMutability": "view",
      "type": "function"
    },
    {
      "inputs": [
        {
          "internalType": "uint256",
          "name": "",
          "type": "uint256"
        }
      ],
      "name": "supplychains",
      "outputs": [
        {
          "internalType": "uint256",
          "name": "id",
          "type": "uint256"
        },
        {
          "internalType": "string",
          "name": "name",
          "type": "string"
        },
        {
          "internalType": "string",
          "name": "description",
          "type": "string"
        },
        {
          "internalType": "uint256",
          "name": "totalFundedAmount",
          "type": "uint256"
        },
        {
          "internalType": "address",
          "name": "owner",
          "type": "address"
        },
        {
          "internalType": "bool",
          "name": "isFunded",
          "type": "bool"
        },
        {
          "internalType": "bool",
          "name": "isActive",
          "type": "bool"
        }
      ],
      "stateMutability": "view",
      "type": "function"
    },
    {
      "inputs": [
        {
          "internalType": "bytes4",
          "name": "interfaceId",
          "type": "bytes4"
        }
      ],
      "name": "supportsInterface",
      "outputs": [
        {
          "internalType": "bool",
          "name": "",
          "type": "bool"
        }
      ],
      "stateMutability": "view",
      "type": "function"
    },
    {
      "inputs": [],
      "name": "totalLogistics",
      "outputs": [
        {
          "internalType": "uint256",
          "name": "",
          "type": "uint256"
        }
      ],
      "stateMutability": "view",
      "type": "function"
    },
    {
      "inputs": [],
      "name": "totalProducts",
      "outputs": [
        {
          "internalType": "uint256",
          "name": "",
          "type": "uint256"
        }
      ],
      "stateMutability": "view",
      "type": "function"
    },
    {
      "inputs": [],
      "name": "totalRawMaterials",
      "outputs": [
        {
          "internalType": "uint256",
          "name": "",
          "type": "uint256"
        }
      ],
      "stateMutability": "view",
      "type": "function"
    },
    {
      "inputs": [],
      "name": "totalServices",
      "outputs": [
        {
          "internalType": "uint256",
          "name": "",
          "type": "uint256"
        }
      ],
      "stateMutability": "view",
      "type": "function"
    }
  ],
  "bytecode": "0x60806040523480156200001157600080fd5b506040516200724a3803806200724a833981810160405281019062000037919062000297565b80601560006101000a81548173ffffffffffffffffffffffffffffffffffffffff021916908373ffffffffffffffffffffffffffffffffffffffff1602179055506200009c6000801b62000090620000a460201b60201c565b620000ac60201b60201c565b5050620002c9565b600033905090565b6000620000c08383620001af60201b60201c565b620001a457600160008085815260200190815260200160002060000160008473ffffffffffffffffffffffffffffffffffffffff1673ffffffffffffffffffffffffffffffffffffffff16815260200190815260200160002060006101000a81548160ff02191690831515021790555062000140620000a460201b60201c565b73ffffffffffffffffffffffffffffffffffffffff168273ffffffffffffffffffffffffffffffffffffffff16847f2f8788117e7eff1d82e926ec794901d17c78024a50270940304540a733656f0d60405160405180910390a460019050620001a9565b600090505b92915050565b600080600084815260200190815260200160002060000160008373ffffffffffffffffffffffffffffffffffffffff1673ffffffffffffffffffffffffffffffffffffffff16815260200190815260200160002060009054906101000a900460ff16905092915050565b600080fd5b600073ffffffffffffffffffffffffffffffffffffffff82169050919050565b60006200024b826200021e565b9050919050565b60006200025f826200023e565b9050919050565b620002718162000252565b81146200027d57600080fd5b50565b600081519050620002918162000266565b92915050565b600060208284031215620002b057620002af62000219565b5b6000620002c08482850162000280565b91505092915050565b616f7180620002d96000396000f3fe608060405234801561001057600080fd5b50600436106103415760003560e01c80637a8e8526116101b8578063b752653011610104578063dbe4613d116100a2578063eedb33481161007c578063eedb334814610ac7578063ef0e239b14610ae5578063fab4f7e714610b15578063fac0992d14610b3157610341565b8063dbe4613d14610a55578063e7d05db014610a73578063e9368de914610a9157610341565b8063c8012aa3116100de578063c8012aa3146109bb578063ceeb6b6d146109eb578063d547741f14610a1b578063da0e03e714610a3757610341565b8063b752653014610939578063b9db15b414610955578063c22c4f431461098557610341565b8063965288b0116101715780639d12d01c1161014b5780639d12d01c146108ac578063a217fddf146108df578063a29508fc146108fd578063b05b10e91461091b57610341565b8063965288b0146108545780639b66b139146108725780639b9d326d1461088e57610341565b80637a8e8526146107505780637acc0b20146107865780637c0bded0146107bc5780637c1df52e146107d857806380bca217146107f457806391d148541461082457610341565b80632f2ff15d116102925780635aff3e82116102305780636301ac8f1161020a5780636301ac8f146106c657806366a4d910146106e45780636f6c93e014610702578063776059ec1461072057610341565b80635aff3e821461065e5780635cb93e841461067a5780635ee95cae146106aa57610341565b806336568abe1161026c57806336568abe146105c45780634eabbe77146105e057806356a379d5146105fe57806359b281a61461062e57610341565b80632f2ff15d1461056c5780633013ce2914610588578063342ae8c6146105a657610341565b806315ce2329116102ff57806321fe0f30116102d957806321fe0f30146104be578063248a9ca3146104dc57806329984f391461050c5780632dc032591461053c57610341565b806315ce23291461044257806320fe1b361461047257806321ba7616146104a257610341565b8062da14871461034657806301ffc9a71461036457806302223c201461039457806302ee3a52146103c4578063094455c4146103e257806313ded4c414610412575b600080fd5b61034e610b4f565b60405161035b9190614e22565b60405180910390f35b61037e60048036038101906103799190614ea9565b610b5b565b60405161038b9190614ef1565b60405180910390f35b6103ae60048036038101906103a99190614f9d565b610bd5565b6040516103bb9190614e22565b60405180910390f35b6103cc610dc3565b6040516103d99190615275565b60405180910390f35b6103fc60048036038101906103f79190615297565b610fbb565b6040516104099190614e22565b60405180910390f35b61042c6004803603810190610427919061531f565b6111a8565b60405161043991906153af565b60405180910390f35b61045c6004803603810190610457919061531f565b611324565b60405161046991906153af565b60405180910390f35b61048c6004803603810190610487919061531f565b6114b1565b60405161049991906156fa565b60405180910390f35b6104bc60048036038101906104b7919061571c565b611945565b005b6104c6611a1a565b6040516104d391906158ba565b60405180910390f35b6104f660048036038101906104f19190615912565b611c12565b604051610503919061594e565b60405180910390f35b610526600480360381019061052191906159a7565b611c31565b6040516105339190614ef1565b60405180910390f35b61055660048036038101906105519190615912565b611e8b565b6040516105639190614ef1565b60405180910390f35b61058660048036038101906105819190615a13565b611ea5565b005b610590611ec7565b60405161059d9190615ab2565b60405180910390f35b6105ae611eed565b6040516105bb9190614e22565b60405180910390f35b6105de60048036038101906105d99190615a13565b611ef9565b005b6105e8611f74565b6040516105f5919061594e565b60405180910390f35b61061860048036038101906106139190615acd565b611f98565b6040516106259190614e22565b60405180910390f35b61064860048036038101906106439190615dd6565b61215a565b6040516106559190614e22565b60405180910390f35b6106786004803603810190610673919061531f565b6127c7565b005b610694600480360381019061068f919061531f565b6128d2565b6040516106a19190615f19565b60405180910390f35b6106c460048036038101906106bf919061531f565b612a6c565b005b6106ce612b77565b6040516106db9190614e22565b60405180910390f35b6106ec612b88565b6040516106f99190614e22565b60405180910390f35b61070a612b94565b6040516107179190614e22565b60405180910390f35b61073a6004803603810190610735919061531f565b612ba0565b6040516107479190615fd7565b60405180910390f35b61076a6004803603810190610765919061531f565b612d4b565b60405161077d9796959493929190616052565b60405180910390f35b6107a0600480360381019061079b919061531f565b612e35565b6040516107b39796959493929190616052565b60405180910390f35b6107d660048036038101906107d1919061571c565b612f1f565b005b6107f260048036038101906107ed919061531f565b613035565b005b61080e6004803603810190610809919061531f565b613128565b60405161081b9190615f19565b60405180910390f35b61083e60048036038101906108399190615a13565b6132d3565b60405161084b9190614ef1565b60405180910390f35b61085c61333d565b604051610869919061594e565b60405180910390f35b61088c6004803603810190610887919061531f565b613361565b005b61089661346c565b6040516108a39190614e22565b60405180910390f35b6108c660048036038101906108c1919061531f565b61347d565b6040516108d694939291906160c8565b60405180910390f35b6108e7613555565b6040516108f4919061594e565b60405180910390f35b61090561355c565b604051610912919061594e565b60405180910390f35b610923613580565b6040516109309190616239565b60405180910390f35b610953600480360381019061094e919061571c565b61375a565b005b61096f600480360381019061096a919061531f565b6137e1565b60405161097c9190615fd7565b60405180910390f35b61099f600480360381019061099a919061531f565b61397b565b6040516109b29796959493929190616052565b60405180910390f35b6109d560048036038101906109d09190615297565b613a65565b6040516109e29190614e22565b60405180910390f35b610a056004803603810190610a00919061531f565b613c52565b604051610a1291906162f7565b60405180910390f35b610a356004803603810190610a309190615a13565b613dfd565b005b610a3f613e1f565b604051610a4c9190614e22565b60405180910390f35b610a5d613e30565b604051610a6a919061594e565b60405180910390f35b610a7b613e54565b604051610a889190614e22565b60405180910390f35b610aab6004803603810190610aa6919061531f565b613e65565b604051610abe9796959493929190616319565b60405180910390f35b610acf613ff1565b604051610adc9190614e22565b60405180910390f35b610aff6004803603810190610afa919061531f565b613ffd565b604051610b0c91906162f7565b60405180910390f35b610b2f6004803603810190610b2a919061571c565b614197565b005b610b3961421e565b604051610b4691906164f4565b60405180910390f35b60048060000154905081565b60007f7965db0b000000000000000000000000000000000000000000000000000000007bffffffffffffffffffffffffffffffffffffffffffffffffffffffff1916827bffffffffffffffffffffffffffffffffffffffffffffffffffffffff19161480610bce5750610bcd82614416565b5b9050919050565b60007f43f25613eb2f15fb17222a5d424ca2655743e71265d98e4b93c05e5fb589ecde610c0181614480565b610c0b6010614494565b6000610c1760106144aa565b9050610c2d81600d6144b890919063ffffffff16565b15610c6d576040517f08c379a0000000000000000000000000000000000000000000000000000000008152600401610c6490616562565b60405180910390fd5b6040518060e001604052808281526020018a8a8080601f016020809104026020016040519081016040528093929190818152602001838380828437600081840152601f19601f8201169050808301925050505050505081526020018881526020018781526020018681526020018581526020013373ffffffffffffffffffffffffffffffffffffffff16815250600f6000838152602001908152602001600020600082015181600001556020820151816001019081610d2c9190616784565b5060408201518160020155606082015181600301556080820151816004015560a0820151816005015560c08201518160060160006101000a81548173ffffffffffffffffffffffffffffffffffffffff021916908373ffffffffffffffffffffffffffffffffffffffff160217905550905050610db381600d6144d290919063ffffffff16565b5080925050509695505050505050565b60606000610dd160056144ec565b905060008167ffffffffffffffff811115610def57610dee615b32565b5b604051908082528060200260200182016040528015610e2857816020015b610e15614c16565b815260200190600190039081610e0d5790505b50905060005b82811015610fb2576000610e4c82600561450190919063ffffffff16565b9050600860008281526020019081526020016000206040518060e001604052908160008201548152602001600182018054610e86906165b1565b80601f0160208091040260200160405190810160405280929190818152602001828054610eb2906165b1565b8015610eff5780601f10610ed457610100808354040283529160200191610eff565b820191906000526020600020905b815481529060010190602001808311610ee257829003601f168201915b50505050508152602001600282015481526020016003820154815260200160048201548152602001600582015481526020016006820160009054906101000a900473ffffffffffffffffffffffffffffffffffffffff1673ffffffffffffffffffffffffffffffffffffffff1673ffffffffffffffffffffffffffffffffffffffff1681525050838381518110610f9957610f98616856565b5b6020026020010181905250508080600101915050610e2e565b50809250505090565b60007feefb95e842a3287179d933b4460be539a1d5af11aa8b325bb45c5c8dc92de4ed610fe781614480565b610ff16007614494565b6000610ffd60076144aa565b90506110138160056144b890919063ffffffff16565b15611053576040517f08c379a000000000000000000000000000000000000000000000000000000000815260040161104a906168d1565b60405180910390fd5b6040518060e0016040528082815260200189898080601f016020809104026020016040519081016040528093929190818152602001838380828437600081840152601f19601f8201169050808301925050505050505081526020018581526020018581526020018781526020018681526020013373ffffffffffffffffffffffffffffffffffffffff16815250600860008381526020019081526020016000206000820151816000015560208201518160010190816111129190616784565b5060408201518160020155606082015181600301556080820151816004015560a0820151816005015560c08201518160060160006101000a81548173ffffffffffffffffffffffffffffffffffffffff021916908373ffffffffffffffffffffffffffffffffffffffff1602179055509050506111998160056144d290919063ffffffff16565b50809250505095945050505050565b6111b0614c69565b6111c48260016144b890919063ffffffff16565b611203576040517f08c379a00000000000000000000000000000000000000000000000000000000081526004016111fa9061693d565b60405180910390fd5b600360008381526020019081526020016000206040518060800160405290816000820154815260200160018201805461123b906165b1565b80601f0160208091040260200160405190810160405280929190818152602001828054611267906165b1565b80156112b45780601f10611289576101008083540402835291602001916112b4565b820191906000526020600020905b81548152906001019060200180831161129757829003601f168201915b505050505081526020016002820160009054906101000a900473ffffffffffffffffffffffffffffffffffffffff1673ffffffffffffffffffffffffffffffffffffffff1673ffffffffffffffffffffffffffffffffffffffff1681526020016003820154815250509050919050565b61132c614c69565b61133660016144ec565b8210611377576040517f08c379a000000000000000000000000000000000000000000000000000000000815260040161136e906169a9565b60405180910390fd5b600061138d83600161450190919063ffffffff16565b905060036000828152602001908152602001600020604051806080016040529081600082015481526020016001820180546113c7906165b1565b80601f01602080910402602001604051908101604052809291908181526020018280546113f3906165b1565b80156114405780601f1061141557610100808354040283529160200191611440565b820191906000526020600020905b81548152906001019060200180831161142357829003601f168201915b505050505081526020016002820160009054906101000a900473ffffffffffffffffffffffffffffffffffffffff1673ffffffffffffffffffffffffffffffffffffffff1673ffffffffffffffffffffffffffffffffffffffff168152602001600382015481525050915050919050565b6114b9614ca7565b6114cd8260116144b890919063ffffffff16565b61150c576040517f08c379a000000000000000000000000000000000000000000000000000000000815260040161150390616a15565b60405180910390fd5b601360008381526020019081526020016000206040518061010001604052908160008201548152602001600182018054611545906165b1565b80601f0160208091040260200160405190810160405280929190818152602001828054611571906165b1565b80156115be5780601f10611593576101008083540402835291602001916115be565b820191906000526020600020905b8154815290600101906020018083116115a157829003601f168201915b505050505081526020016002820180546115d7906165b1565b80601f0160208091040260200160405190810160405280929190818152602001828054611603906165b1565b80156116505780601f1061162557610100808354040283529160200191611650565b820191906000526020600020905b81548152906001019060200180831161163357829003601f168201915b5050505050815260200160038201805480602002602001604051908101604052809291908181526020016000905b828210156118a057838290600052602060002090600b0201604051806101e0016040529081600082015481526020016001820160009054906101000a900460ff1660018111156116d1576116d06153fd565b5b60018111156116e3576116e26153fd565b5b81526020016002820154815260200160038201548152602001600482015481526020016005820154815260200160068201548152602001600782015481526020016008820160009054906101000a900473ffffffffffffffffffffffffffffffffffffffff1673ffffffffffffffffffffffffffffffffffffffff1673ffffffffffffffffffffffffffffffffffffffff1681526020016009820160009054906101000a900473ffffffffffffffffffffffffffffffffffffffff1673ffffffffffffffffffffffffffffffffffffffff1673ffffffffffffffffffffffffffffffffffffffff168152602001600a820160009054906101000a900473ffffffffffffffffffffffffffffffffffffffff1673ffffffffffffffffffffffffffffffffffffffff1673ffffffffffffffffffffffffffffffffffffffff168152602001600a820160149054906101000a900460ff16151515158152602001600a820160159054906101000a900460ff16151515158152602001600a820160169054906101000a900460ff16151515158152602001600a820160179054906101000a900460ff1615151515815250508152602001906001019061167e565b505050508152602001600482015481526020016005820160009054906101000a900473ffffffffffffffffffffffffffffffffffffffff1673ffffffffffffffffffffffffffffffffffffffff1673ffffffffffffffffffffffffffffffffffffffff1681526020016005820160149054906101000a900460ff161515151581526020016005820160159054906101000a900460ff1615151515815250509050919050565b6119767f43f25613eb2f15fb17222a5d424ca2655743e71265d98e4b93c05e5fb589ecde61197161451b565b6132d3565b6119be5761198261451b565b6040517fe2517d3f0000000000000000000000000000000000000000000000000000000081526004016119b59190616a5b565b60405180910390fd5b60006013600084815260200190815260200160002060030182815481106119e8576119e7616856565b5b90600052602060002090600b02019050600181600a0160146101000a81548160ff021916908315150217905550505050565b60606000611a28600d6144ec565b905060008167ffffffffffffffff811115611a4657611a45615b32565b5b604051908082528060200260200182016040528015611a7f57816020015b611a6c614d06565b815260200190600190039081611a645790505b50905060005b82811015611c09576000611aa382600d61450190919063ffffffff16565b9050600f60008281526020019081526020016000206040518060e001604052908160008201548152602001600182018054611add906165b1565b80601f0160208091040260200160405190810160405280929190818152602001828054611b09906165b1565b8015611b565780601f10611b2b57610100808354040283529160200191611b56565b820191906000526020600020905b815481529060010190602001808311611b3957829003601f168201915b50505050508152602001600282015481526020016003820154815260200160048201548152602001600582015481526020016006820160009054906101000a900473ffffffffffffffffffffffffffffffffffffffff1673ffffffffffffffffffffffffffffffffffffffff1673ffffffffffffffffffffffffffffffffffffffff1681525050838381518110611bf057611bef616856565b5b6020026020010181905250508080600101915050611a85565b50809250505090565b6000806000838152602001908152602001600020600101549050919050565b600080601360008581526020019081526020016000209050611c5161451b565b73ffffffffffffffffffffffffffffffffffffffff168160050160009054906101000a900473ffffffffffffffffffffffffffffffffffffffff1673ffffffffffffffffffffffffffffffffffffffff1614611ce2576040517f08c379a0000000000000000000000000000000000000000000000000000000008152600401611cd990616ace565b60405180910390fd5b80600401548373ffffffffffffffffffffffffffffffffffffffff1663dd62ed3e611d0b61451b565b306040518363ffffffff1660e01b8152600401611d29929190616aee565b602060405180830381865afa158015611d46573d6000803e3d6000fd5b505050506040513d601f19601f82011682018060405250810190611d6a9190616b2c565b1015611dab576040517f08c379a0000000000000000000000000000000000000000000000000000000008152600401611da290616ba5565b60405180910390fd5b8273ffffffffffffffffffffffffffffffffffffffff166323b872dd611dcf61451b565b3084600401546040518463ffffffff1660e01b8152600401611df393929190616bc5565b6020604051808303816000875af1158015611e12573d6000803e3d6000fd5b505050506040513d601f19601f82011682018060405250810190611e369190616c28565b15611e7f5760018160050160146101000a81548160ff02191690831515021790555060018160050160156101000a81548160ff0219169083151502179055506001915050611e85565b60009150505b92915050565b6000611e9e82611e9961451b565b614523565b9050919050565b611eae82611c12565b611eb781614480565b611ec18383614523565b50505050565b601560009054906101000a900473ffffffffffffffffffffffffffffffffffffffff1681565b60078060000154905081565b611f0161451b565b73ffffffffffffffffffffffffffffffffffffffff168173ffffffffffffffffffffffffffffffffffffffff1614611f65576040517f6697b23200000000000000000000000000000000000000000000000000000000815260040160405180910390fd5b611f6f8282614614565b505050565b7fddaa901e2fe3bda354fe0ede2785152d5c109282a613fe024a056a3e66c41bb381565b60007fddaa901e2fe3bda354fe0ede2785152d5c109282a613fe024a056a3e66c41bb3611fc481614480565b611fce6004614494565b6000611fda60046144aa565b9050611ff08160016144b890919063ffffffff16565b15612030576040517f08c379a000000000000000000000000000000000000000000000000000000000815260040161202790616ca1565b60405180910390fd5b604051806080016040528082815260200187878080601f016020809104026020016040519081016040528093929190818152602001838380828437600081840152601f19601f82011690508083019250505050505050815260200161209361451b565b73ffffffffffffffffffffffffffffffffffffffff16815260200185815250600360008381526020019081526020016000206000820151816000015560208201518160010190816120e49190616784565b5060408201518160020160006101000a81548173ffffffffffffffffffffffffffffffffffffffff021916908373ffffffffffffffffffffffffffffffffffffffff1602179055506060820151816003015590505061214d8160016144d290919063ffffffff16565b5080925050509392505050565b60006121666014614494565b600061217260146144aa565b90506000601360008381526020019081526020016000209050818160000181905550858160010190816121a59190616784565b50848160020190816121b79190616784565b506000816004018190555060008160050160146101000a81548160ff02191690831515021790555060008160050160156101000a81548160ff02191690831515021790555061220461451b565b8160050160006101000a81548173ffffffffffffffffffffffffffffffffffffffff021916908373ffffffffffffffffffffffffffffffffffffffff1602179055506000805b85518110156127a4576000829050828061226390616cf0565b9350506000806000806000806122968d898151811061228557612284616856565b5b6020026020010151604001516111a8565b90508060600151945080604001519250600060018111156122ba576122b96153fd565b5b8d89815181106122cd576122cc616856565b5b60200260200101516000015160018111156122eb576122ea6153fd565b5b036123585760006123198e8a8151811061230857612307616856565b5b6020026020010151602001516137e1565b90508d898151811061232e5761232d616856565b5b60200260200101516060015181608001516123499190616d38565b94508060c00151925050612406565b60018081111561236b5761236a6153fd565b5b8d898151811061237e5761237d616856565b5b602002602001015160000151600181111561239c5761239b6153fd565b5b036124055760006123ca8e8a815181106123b9576123b8616856565b5b602002602001015160200151613ffd565b90508d89815181106123df576123de616856565b5b60200260200101516060015181604001516123fa9190616d38565b94508060c001519250505b5b83856124129190616d7a565b95506000604051806101e001604052808981526020018f8b8151811061243b5761243a616856565b5b6020026020010151600001516001811115612459576124586153fd565b5b81526020018f8b8151811061247157612470616856565b5b60200260200101516020015181526020018f8b8151811061249557612494616856565b5b60200260200101516040015181526020018f8b815181106124b9576124b8616856565b5b60200260200101516060015181526020018781526020018681526020018881526020018473ffffffffffffffffffffffffffffffffffffffff1681526020018573ffffffffffffffffffffffffffffffffffffffff1681526020018f8b8151811061252757612526616856565b5b60200260200101516080015173ffffffffffffffffffffffffffffffffffffffff1681526020016000151581526020016000151581526020016000151581526020016000151581525090508a6003018190806001815401808255809150506001900390600052602060002090600b02016000909190919091506000820151816000015560208201518160010160006101000a81548160ff021916908360018111156125d5576125d46153fd565b5b021790555060408201518160020155606082015181600301556080820151816004015560a0820151816005015560c0820151816006015560e082015181600701556101008201518160080160006101000a81548173ffffffffffffffffffffffffffffffffffffffff021916908373ffffffffffffffffffffffffffffffffffffffff1602179055506101208201518160090160006101000a81548173ffffffffffffffffffffffffffffffffffffffff021916908373ffffffffffffffffffffffffffffffffffffffff16021790555061014082015181600a0160006101000a81548173ffffffffffffffffffffffffffffffffffffffff021916908373ffffffffffffffffffffffffffffffffffffffff16021790555061016082015181600a0160146101000a81548160ff02191690831515021790555061018082015181600a0160156101000a81548160ff0219169083151502179055506101a082015181600a0160166101000a81548160ff0219169083151502179055506101c082015181600a0160176101000a81548160ff0219169083151502179055505050868b60040160008282546127889190616d7a565b925050819055505050505050505050808060010191505061224a565b506127b98360116144d290919063ffffffff16565b508293505050509392505050565b7f43f25613eb2f15fb17222a5d424ca2655743e71265d98e4b93c05e5fb589ecde6127f181614480565b6128058260096144b890919063ffffffff16565b612844576040517f08c379a000000000000000000000000000000000000000000000000000000000815260040161283b9061693d565b60405180910390fd5b61285882600961470690919063ffffffff16565b50600b60008381526020019081526020016000206000808201600090556001820160006128859190614d59565b60028201600090556003820160009055600482016000905560058201600090556006820160006101000a81549073ffffffffffffffffffffffffffffffffffffffff021916905550505050565b6128da614d99565b6128ee8260096144b890919063ffffffff16565b61292d576040517f08c379a00000000000000000000000000000000000000000000000000000000081526004016129249061693d565b60405180910390fd5b600b60008381526020019081526020016000206040518060e001604052908160008201548152602001600182018054612965906165b1565b80601f0160208091040260200160405190810160405280929190818152602001828054612991906165b1565b80156129de5780601f106129b3576101008083540402835291602001916129de565b820191906000526020600020905b8154815290600101906020018083116129c157829003601f168201915b50505050508152602001600282015481526020016003820154815260200160048201548152602001600582015481526020016006820160009054906101000a900473ffffffffffffffffffffffffffffffffffffffff1673ffffffffffffffffffffffffffffffffffffffff1673ffffffffffffffffffffffffffffffffffffffff16815250509050919050565b7feefb95e842a3287179d933b4460be539a1d5af11aa8b325bb45c5c8dc92de4ed612a9681614480565b612aaa8260056144b890919063ffffffff16565b612ae9576040517f08c379a0000000000000000000000000000000000000000000000000000000008152600401612ae09061693d565b60405180910390fd5b612afd82600561470690919063ffffffff16565b5060086000838152602001908152602001600020600080820160009055600182016000612b2a9190614d59565b60028201600090556003820160009055600482016000905560058201600090556006820160006101000a81549073ffffffffffffffffffffffffffffffffffffffff021916905550505050565b6000612b83600d6144ec565b905090565b60108060000154905081565b60148060000154905081565b612ba8614c16565b612bb260056144ec565b8210612bf3576040517f08c379a0000000000000000000000000000000000000000000000000000000008152600401612bea906169a9565b60405180910390fd5b6000612c0983600561450190919063ffffffff16565b9050600860008281526020019081526020016000206040518060e001604052908160008201548152602001600182018054612c43906165b1565b80601f0160208091040260200160405190810160405280929190818152602001828054612c6f906165b1565b8015612cbc5780601f10612c9157610100808354040283529160200191612cbc565b820191906000526020600020905b815481529060010190602001808311612c9f57829003601f168201915b50505050508152602001600282015481526020016003820154815260200160048201548152602001600582015481526020016006820160009054906101000a900473ffffffffffffffffffffffffffffffffffffffff1673ffffffffffffffffffffffffffffffffffffffff1673ffffffffffffffffffffffffffffffffffffffff1681525050915050919050565b600b602052806000526040600020600091509050806000015490806001018054612d74906165b1565b80601f0160208091040260200160405190810160405280929190818152602001828054612da0906165b1565b8015612ded5780601f10612dc257610100808354040283529160200191612ded565b820191906000526020600020905b815481529060010190602001808311612dd057829003601f168201915b5050505050908060020154908060030154908060040154908060050154908060060160009054906101000a900473ffffffffffffffffffffffffffffffffffffffff16905087565b6008602052806000526040600020600091509050806000015490806001018054612e5e906165b1565b80601f0160208091040260200160405190810160405280929190818152602001828054612e8a906165b1565b8015612ed75780601f10612eac57610100808354040283529160200191612ed7565b820191906000526020600020905b815481529060010190602001808311612eba57829003601f168201915b5050505050908060020154908060030154908060040154908060050154908060060160009054906101000a900473ffffffffffffffffffffffffffffffffffffffff16905087565b612f507f43f25613eb2f15fb17222a5d424ca2655743e71265d98e4b93c05e5fb589ecde612f4b61451b565b6132d3565b80612f885750612f877feefb95e842a3287179d933b4460be539a1d5af11aa8b325bb45c5c8dc92de4ed612f8261451b565b6132d3565b5b612fd057612f9461451b565b6040517fe2517d3f000000000000000000000000000000000000000000000000000000008152600401612fc79190616a5b565b60405180910390fd5b6000601360008481526020019081526020016000206003018281548110612ffa57612ff9616856565b5b90600052602060002090600b02019050600181600a0160176101000a81548160ff02191690831515021790555061303081614720565b505050565b7fddaa901e2fe3bda354fe0ede2785152d5c109282a613fe024a056a3e66c41bb361305f81614480565b6130738260016144b890919063ffffffff16565b6130b2576040517f08c379a00000000000000000000000000000000000000000000000000000000081526004016130a99061693d565b60405180910390fd5b6130c682600161470690919063ffffffff16565b50600360008381526020019081526020016000206000808201600090556001820160006130f39190614d59565b6002820160006101000a81549073ffffffffffffffffffffffffffffffffffffffff0219169055600382016000905550505050565b613130614d99565b61313a60096144ec565b821061317b576040517f08c379a0000000000000000000000000000000000000000000000000000000008152600401613172906169a9565b60405180910390fd5b600061319183600961450190919063ffffffff16565b9050600b60008281526020019081526020016000206040518060e0016040529081600082015481526020016001820180546131cb906165b1565b80601f01602080910402602001604051908101604052809291908181526020018280546131f7906165b1565b80156132445780601f1061321957610100808354040283529160200191613244565b820191906000526020600020905b81548152906001019060200180831161322757829003601f168201915b50505050508152602001600282015481526020016003820154815260200160048201548152602001600582015481526020016006820160009054906101000a900473ffffffffffffffffffffffffffffffffffffffff1673ffffffffffffffffffffffffffffffffffffffff1673ffffffffffffffffffffffffffffffffffffffff1681525050915050919050565b600080600084815260200190815260200160002060000160008373ffffffffffffffffffffffffffffffffffffffff1673ffffffffffffffffffffffffffffffffffffffff16815260200190815260200160002060009054906101000a900460ff16905092915050565b7feefb95e842a3287179d933b4460be539a1d5af11aa8b325bb45c5c8dc92de4ed81565b7f43f25613eb2f15fb17222a5d424ca2655743e71265d98e4b93c05e5fb589ecde61338b81614480565b61339f82600d6144b890919063ffffffff16565b6133de576040517f08c379a00000000000000000000000000000000000000000000000000000000081526004016133d59061693d565b60405180910390fd5b6133f282600d61470690919063ffffffff16565b50600f600083815260200190815260200160002060008082016000905560018201600061341f9190614d59565b60028201600090556003820160009055600482016000905560058201600090556006820160006101000a81549073ffffffffffffffffffffffffffffffffffffffff021916905550505050565b600061347860056144ec565b905090565b60036020528060005260406000206000915090508060000154908060010180546134a6906165b1565b80601f01602080910402602001604051908101604052809291908181526020018280546134d2906165b1565b801561351f5780601f106134f45761010080835404028352916020019161351f565b820191906000526020600020905b81548152906001019060200180831161350257829003601f168201915b5050505050908060020160009054906101000a900473ffffffffffffffffffffffffffffffffffffffff16908060030154905084565b6000801b81565b7f43f25613eb2f15fb17222a5d424ca2655743e71265d98e4b93c05e5fb589ecde81565b6060600061358e60016144ec565b905060008167ffffffffffffffff8111156135ac576135ab615b32565b5b6040519080825280602002602001820160405280156135e557816020015b6135d2614c69565b8152602001906001900390816135ca5790505b50905060005b8281101561375157600061360982600161450190919063ffffffff16565b90506003600082815260200190815260200160002060405180608001604052908160008201548152602001600182018054613643906165b1565b80601f016020809104026020016040519081016040528092919081815260200182805461366f906165b1565b80156136bc5780601f10613691576101008083540402835291602001916136bc565b820191906000526020600020905b81548152906001019060200180831161369f57829003601f168201915b505050505081526020016002820160009054906101000a900473ffffffffffffffffffffffffffffffffffffffff1673ffffffffffffffffffffffffffffffffffffffff1673ffffffffffffffffffffffffffffffffffffffff16815260200160038201548152505083838151811061373857613737616856565b5b60200260200101819052505080806001019150506135eb565b50809250505090565b7fddaa901e2fe3bda354fe0ede2785152d5c109282a613fe024a056a3e66c41bb361378481614480565b60006013600085815260200190815260200160002060030183815481106137ae576137ad616856565b5b90600052602060002090600b02019050600181600a0160166101000a81548160ff02191690831515021790555050505050565b6137e9614c16565b6137fd8260056144b890919063ffffffff16565b61383c576040517f08c379a00000000000000000000000000000000000000000000000000000000081526004016138339061693d565b60405180910390fd5b600860008381526020019081526020016000206040518060e001604052908160008201548152602001600182018054613874906165b1565b80601f01602080910402602001604051908101604052809291908181526020018280546138a0906165b1565b80156138ed5780601f106138c2576101008083540402835291602001916138ed565b820191906000526020600020905b8154815290600101906020018083116138d057829003601f168201915b50505050508152602001600282015481526020016003820154815260200160048201548152602001600582015481526020016006820160009054906101000a900473ffffffffffffffffffffffffffffffffffffffff1673ffffffffffffffffffffffffffffffffffffffff1673ffffffffffffffffffffffffffffffffffffffff16815250509050919050565b600f6020528060005260406000206000915090508060000154908060010180546139a4906165b1565b80601f01602080910402602001604051908101604052809291908181526020018280546139d0906165b1565b8015613a1d5780601f106139f257610100808354040283529160200191613a1d565b820191906000526020600020905b815481529060010190602001808311613a0057829003601f168201915b5050505050908060020154908060030154908060040154908060050154908060060160009054906101000a900473ffffffffffffffffffffffffffffffffffffffff16905087565b60007f43f25613eb2f15fb17222a5d424ca2655743e71265d98e4b93c05e5fb589ecde613a9181614480565b613a9b600c614494565b6000613aa7600c6144aa565b9050613abd8160096144b890919063ffffffff16565b15613afd576040517f08c379a0000000000000000000000000000000000000000000000000000000008152600401613af490616ca1565b60405180910390fd5b6040518060e0016040528082815260200189898080601f016020809104026020016040519081016040528093929190818152602001838380828437600081840152601f19601f8201169050808301925050505050505081526020018581526020018581526020018781526020018681526020013373ffffffffffffffffffffffffffffffffffffffff16815250600b6000838152602001908152602001600020600082015181600001556020820151816001019081613bbc9190616784565b5060408201518160020155606082015181600301556080820151816004015560a0820151816005015560c08201518160060160006101000a81548173ffffffffffffffffffffffffffffffffffffffff021916908373ffffffffffffffffffffffffffffffffffffffff160217905550905050613c438160096144d290919063ffffffff16565b50809250505095945050505050565b613c5a614d06565b613c64600d6144ec565b8210613ca5576040517f08c379a0000000000000000000000000000000000000000000000000000000008152600401613c9c906169a9565b60405180910390fd5b6000613cbb83600d61450190919063ffffffff16565b9050600f60008281526020019081526020016000206040518060e001604052908160008201548152602001600182018054613cf5906165b1565b80601f0160208091040260200160405190810160405280929190818152602001828054613d21906165b1565b8015613d6e5780601f10613d4357610100808354040283529160200191613d6e565b820191906000526020600020905b815481529060010190602001808311613d5157829003601f168201915b50505050508152602001600282015481526020016003820154815260200160048201548152602001600582015481526020016006820160009054906101000a900473ffffffffffffffffffffffffffffffffffffffff1673ffffffffffffffffffffffffffffffffffffffff1673ffffffffffffffffffffffffffffffffffffffff1681525050915050919050565b613e0682611c12565b613e0f81614480565b613e198383614614565b50505050565b6000613e2b60016144ec565b905090565b7f43f25613eb2f15fb17222a5d424ca2655743e71265d98e4b93c05e5fb589ecde81565b6000613e6060096144ec565b905090565b6013602052806000526040600020600091509050806000015490806001018054613e8e906165b1565b80601f0160208091040260200160405190810160405280929190818152602001828054613eba906165b1565b8015613f075780601f10613edc57610100808354040283529160200191613f07565b820191906000526020600020905b815481529060010190602001808311613eea57829003601f168201915b505050505090806002018054613f1c906165b1565b80601f0160208091040260200160405190810160405280929190818152602001828054613f48906165b1565b8015613f955780601f10613f6a57610100808354040283529160200191613f95565b820191906000526020600020905b815481529060010190602001808311613f7857829003601f168201915b5050505050908060040154908060050160009054906101000a900473ffffffffffffffffffffffffffffffffffffffff16908060050160149054906101000a900460ff16908060050160159054906101000a900460ff16905087565b600c8060000154905081565b614005614d06565b61401982600d6144b890919063ffffffff16565b614058576040517f08c379a000000000000000000000000000000000000000000000000000000000815260040161404f9061693d565b60405180910390fd5b600f60008381526020019081526020016000206040518060e001604052908160008201548152602001600182018054614090906165b1565b80601f01602080910402602001604051908101604052809291908181526020018280546140bc906165b1565b80156141095780601f106140de57610100808354040283529160200191614109565b820191906000526020600020905b8154815290600101906020018083116140ec57829003601f168201915b50505050508152602001600282015481526020016003820154815260200160048201548152602001600582015481526020016006820160009054906101000a900473ffffffffffffffffffffffffffffffffffffffff1673ffffffffffffffffffffffffffffffffffffffff1673ffffffffffffffffffffffffffffffffffffffff16815250509050919050565b7fddaa901e2fe3bda354fe0ede2785152d5c109282a613fe024a056a3e66c41bb36141c181614480565b60006013600085815260200190815260200160002060030183815481106141eb576141ea616856565b5b90600052602060002090600b02019050600181600a0160156101000a81548160ff02191690831515021790555050505050565b6060600061422c60096144ec565b905060008167ffffffffffffffff81111561424a57614249615b32565b5b60405190808252806020026020018201604052801561428357816020015b614270614d99565b8152602001906001900390816142685790505b50905060005b8281101561440d5760006142a782600961450190919063ffffffff16565b9050600b60008281526020019081526020016000206040518060e0016040529081600082015481526020016001820180546142e1906165b1565b80601f016020809104026020016040519081016040528092919081815260200182805461430d906165b1565b801561435a5780601f1061432f5761010080835404028352916020019161435a565b820191906000526020600020905b81548152906001019060200180831161433d57829003601f168201915b50505050508152602001600282015481526020016003820154815260200160048201548152602001600582015481526020016006820160009054906101000a900473ffffffffffffffffffffffffffffffffffffffff1673ffffffffffffffffffffffffffffffffffffffff1673ffffffffffffffffffffffffffffffffffffffff16815250508383815181106143f4576143f3616856565b5b6020026020010181905250508080600101915050614289565b50809250505090565b60007f01ffc9a7000000000000000000000000000000000000000000000000000000007bffffffffffffffffffffffffffffffffffffffffffffffffffffffff1916827bffffffffffffffffffffffffffffffffffffffffffffffffffffffff1916149050919050565b6144918161448c61451b565b614979565b50565b6001816000016000828254019250508190555050565b600081600001549050919050565b60006144ca836000018360001b6149ca565b905092915050565b60006144e4836000018360001b6149ed565b905092915050565b60006144fa82600001614a5d565b9050919050565b60006145108360000183614a6e565b60001c905092915050565b600033905090565b600061452f83836132d3565b61460957600160008085815260200190815260200160002060000160008473ffffffffffffffffffffffffffffffffffffffff1673ffffffffffffffffffffffffffffffffffffffff16815260200190815260200160002060006101000a81548160ff0219169083151502179055506145a661451b565b73ffffffffffffffffffffffffffffffffffffffff168273ffffffffffffffffffffffffffffffffffffffff16847f2f8788117e7eff1d82e926ec794901d17c78024a50270940304540a733656f0d60405160405180910390a46001905061460e565b600090505b92915050565b600061462083836132d3565b156146fb57600080600085815260200190815260200160002060000160008473ffffffffffffffffffffffffffffffffffffffff1673ffffffffffffffffffffffffffffffffffffffff16815260200190815260200160002060006101000a81548160ff02191690831515021790555061469861451b565b73ffffffffffffffffffffffffffffffffffffffff168273ffffffffffffffffffffffffffffffffffffffff16847ff6391f5c32d9c69d2a47ea670b442974b53935d1edc7fd64eb21e047a839171b60405160405180910390a460019050614700565b600090505b92915050565b6000614718836000018360001b614a99565b905092915050565b61472981614bad565b614768576040517f08c379a000000000000000000000000000000000000000000000000000000000815260040161475f90616dfa565b60405180910390fd5b601560009054906101000a900473ffffffffffffffffffffffffffffffffffffffff1673ffffffffffffffffffffffffffffffffffffffff1663a9059cbb8260090160009054906101000a900473ffffffffffffffffffffffffffffffffffffffff1683600501546040518363ffffffff1660e01b81526004016147ed929190616e1a565b6020604051808303816000875af115801561480c573d6000803e3d6000fd5b505050506040513d601f19601f820116820180604052508101906148309190616c28565b61486f576040517f08c379a000000000000000000000000000000000000000000000000000000000815260040161486690616e8f565b60405180910390fd5b601560009054906101000a900473ffffffffffffffffffffffffffffffffffffffff1673ffffffffffffffffffffffffffffffffffffffff1663a9059cbb8260080160009054906101000a900473ffffffffffffffffffffffffffffffffffffffff1683600601546040518363ffffffff1660e01b81526004016148f4929190616e1a565b6020604051808303816000875af1158015614913573d6000803e3d6000fd5b505050506040513d601f19601f820116820180604052508101906149379190616c28565b614976576040517f08c379a000000000000000000000000000000000000000000000000000000000815260040161496d90616e8f565b60405180910390fd5b50565b61498382826132d3565b6149c65780826040517fe2517d3f0000000000000000000000000000000000000000000000000000000081526004016149bd929190616eaf565b60405180910390fd5b5050565b600080836001016000848152602001908152602001600020541415905092915050565b60006149f983836149ca565b614a52578260000182908060018154018082558091505060019003906000526020600020016000909190919091505582600001805490508360010160008481526020019081526020016000208190555060019050614a57565b600090505b92915050565b600081600001805490509050919050565b6000826000018281548110614a8657614a85616856565b5b9060005260206000200154905092915050565b60008083600101600084815260200190815260200160002054905060008114614ba1576000600182614acb9190616ed8565b9050600060018660000180549050614ae39190616ed8565b9050808214614b52576000866000018281548110614b0457614b03616856565b5b9060005260206000200154905080876000018481548110614b2857614b27616856565b5b90600052602060002001819055508387600101600083815260200190815260200160002081905550505b85600001805480614b6657614b65616f0c565b5b600190038181906000526020600020016000905590558560010160008681526020019081526020016000206000905560019350505050614ba7565b60009150505b92915050565b600081600a0160149054906101000a900460ff168015614bdb575081600a0160159054906101000a900460ff165b8015614bf5575081600a0160169054906101000a900460ff165b8015614c0f575081600a0160179054906101000a900460ff165b9050919050565b6040518060e00160405280600081526020016060815260200160008152602001600081526020016000815260200160008152602001600073ffffffffffffffffffffffffffffffffffffffff1681525090565b60405180608001604052806000815260200160608152602001600073ffffffffffffffffffffffffffffffffffffffff168152602001600081525090565b6040518061010001604052806000815260200160608152602001606081526020016060815260200160008152602001600073ffffffffffffffffffffffffffffffffffffffff1681526020016000151581526020016000151581525090565b6040518060e00160405280600081526020016060815260200160008152602001600081526020016000815260200160008152602001600073ffffffffffffffffffffffffffffffffffffffff1681525090565b508054614d65906165b1565b6000825580601f10614d775750614d96565b601f016020900490600052602060002090810190614d959190614dec565b5b50565b6040518060e00160405280600081526020016060815260200160008152602001600081526020016000815260200160008152602001600073ffffffffffffffffffffffffffffffffffffffff1681525090565b5b80821115614e05576000816000905550600101614ded565b5090565b6000819050919050565b614e1c81614e09565b82525050565b6000602082019050614e376000830184614e13565b92915050565b6000604051905090565b600080fd5b600080fd5b60007fffffffff0000000000000000000000000000000000000000000000000000000082169050919050565b614e8681614e51565b8114614e9157600080fd5b50565b600081359050614ea381614e7d565b92915050565b600060208284031215614ebf57614ebe614e47565b5b6000614ecd84828501614e94565b91505092915050565b60008115159050919050565b614eeb81614ed6565b82525050565b6000602082019050614f066000830184614ee2565b92915050565b600080fd5b600080fd5b600080fd5b60008083601f840112614f3157614f30614f0c565b5b8235905067ffffffffffffffff811115614f4e57614f4d614f11565b5b602083019150836001820283011115614f6a57614f69614f16565b5b9250929050565b614f7a81614e09565b8114614f8557600080fd5b50565b600081359050614f9781614f71565b92915050565b60008060008060008060a08789031215614fba57614fb9614e47565b5b600087013567ffffffffffffffff811115614fd857614fd7614e4c565b5b614fe489828a01614f1b565b96509650506020614ff789828a01614f88565b945050604061500889828a01614f88565b935050606061501989828a01614f88565b925050608061502a89828a01614f88565b9150509295509295509295565b600081519050919050565b600082825260208201905092915050565b6000819050602082019050919050565b61506c81614e09565b82525050565b600081519050919050565b600082825260208201905092915050565b60005b838110156150ac578082015181840152602081019050615091565b60008484015250505050565b6000601f19601f8301169050919050565b60006150d482615072565b6150de818561507d565b93506150ee81856020860161508e565b6150f7816150b8565b840191505092915050565b600073ffffffffffffffffffffffffffffffffffffffff82169050919050565b600061512d82615102565b9050919050565b61513d81615122565b82525050565b600060e08301600083015161515b6000860182615063565b506020830151848203602086015261517382826150c9565b91505060408301516151886040860182615063565b50606083015161519b6060860182615063565b5060808301516151ae6080860182615063565b5060a08301516151c160a0860182615063565b5060c08301516151d460c0860182615134565b508091505092915050565b60006151eb8383615143565b905092915050565b6000602082019050919050565b600061520b82615037565b6152158185615042565b93508360208202850161522785615053565b8060005b85811015615263578484038952815161524485826151df565b945061524f836151f3565b925060208a0199505060018101905061522b565b50829750879550505050505092915050565b6000602082019050818103600083015261528f8184615200565b905092915050565b6000806000806000608086880312156152b3576152b2614e47565b5b600086013567ffffffffffffffff8111156152d1576152d0614e4c565b5b6152dd88828901614f1b565b955095505060206152f088828901614f88565b935050604061530188828901614f88565b925050606061531288828901614f88565b9150509295509295909350565b60006020828403121561533557615334614e47565b5b600061534384828501614f88565b91505092915050565b60006080830160008301516153646000860182615063565b506020830151848203602086015261537c82826150c9565b91505060408301516153916040860182615134565b5060608301516153a46060860182615063565b508091505092915050565b600060208201905081810360008301526153c9818461534c565b905092915050565b600081519050919050565b600082825260208201905092915050565b6000819050602082019050919050565b7f4e487b7100000000000000000000000000000000000000000000000000000000600052602160045260246000fd5b6002811061543d5761543c6153fd565b5b50565b600081905061544e8261542c565b919050565b600061545e82615440565b9050919050565b61546e81615453565b82525050565b61547d81614ed6565b82525050565b6101e08201600082015161549a6000850182615063565b5060208201516154ad6020850182615465565b5060408201516154c06040850182615063565b5060608201516154d36060850182615063565b5060808201516154e66080850182615063565b5060a08201516154f960a0850182615063565b5060c082015161550c60c0850182615063565b5060e082015161551f60e0850182615063565b50610100820151615534610100850182615134565b50610120820151615549610120850182615134565b5061014082015161555e610140850182615134565b50610160820151615573610160850182615474565b50610180820151615588610180850182615474565b506101a082015161559d6101a0850182615474565b506101c08201516155b26101c0850182615474565b50505050565b60006155c48383615483565b6101e08301905092915050565b6000602082019050919050565b60006155e9826153d1565b6155f381856153dc565b93506155fe836153ed565b8060005b8381101561562f57815161561688826155b8565b9750615621836155d1565b925050600181019050615602565b5085935050505092915050565b6000610100830160008301516156556000860182615063565b506020830151848203602086015261566d82826150c9565b9150506040830151848203604086015261568782826150c9565b915050606083015184820360608601526156a182826155de565b91505060808301516156b66080860182615063565b5060a08301516156c960a0860182615134565b5060c08301516156dc60c0860182615474565b5060e08301516156ef60e0860182615474565b508091505092915050565b60006020820190508181036000830152615714818461563c565b905092915050565b6000806040838503121561573357615732614e47565b5b600061574185828601614f88565b925050602061575285828601614f88565b9150509250929050565b600081519050919050565b600082825260208201905092915050565b6000819050602082019050919050565b600060e0830160008301516157a06000860182615063565b50602083015184820360208601526157b882826150c9565b91505060408301516157cd6040860182615063565b5060608301516157e06060860182615063565b5060808301516157f36080860182615063565b5060a083015161580660a0860182615063565b5060c083015161581960c0860182615134565b508091505092915050565b60006158308383615788565b905092915050565b6000602082019050919050565b60006158508261575c565b61585a8185615767565b93508360208202850161586c85615778565b8060005b858110156158a857848403895281516158898582615824565b945061589483615838565b925060208a01995050600181019050615870565b50829750879550505050505092915050565b600060208201905081810360008301526158d48184615845565b905092915050565b6000819050919050565b6158ef816158dc565b81146158fa57600080fd5b50565b60008135905061590c816158e6565b92915050565b60006020828403121561592857615927614e47565b5b6000615936848285016158fd565b91505092915050565b615948816158dc565b82525050565b6000602082019050615963600083018461593f565b92915050565b600061597482615122565b9050919050565b61598481615969565b811461598f57600080fd5b50565b6000813590506159a18161597b565b92915050565b600080604083850312156159be576159bd614e47565b5b60006159cc85828601614f88565b92505060206159dd85828601615992565b9150509250929050565b6159f081615122565b81146159fb57600080fd5b50565b600081359050615a0d816159e7565b92915050565b60008060408385031215615a2a57615a29614e47565b5b6000615a38858286016158fd565b9250506020615a49858286016159fe565b9150509250929050565b6000819050919050565b6000615a78615a73615a6e84615102565b615a53565b615102565b9050919050565b6000615a8a82615a5d565b9050919050565b6000615a9c82615a7f565b9050919050565b615aac81615a91565b82525050565b6000602082019050615ac76000830184615aa3565b92915050565b600080600060408486031215615ae657615ae5614e47565b5b600084013567ffffffffffffffff811115615b0457615b03614e4c565b5b615b1086828701614f1b565b93509350506020615b2386828701614f88565b9150509250925092565b600080fd5b7f4e487b7100000000000000000000000000000000000000000000000000000000600052604160045260246000fd5b615b6a826150b8565b810181811067ffffffffffffffff82111715615b8957615b88615b32565b5b80604052505050565b6000615b9c614e3d565b9050615ba88282615b61565b919050565b600067ffffffffffffffff821115615bc857615bc7615b32565b5b615bd1826150b8565b9050602081019050919050565b82818337600083830152505050565b6000615c00615bfb84615bad565b615b92565b905082815260208101848484011115615c1c57615c1b615b2d565b5b615c27848285615bde565b509392505050565b600082601f830112615c4457615c43614f0c565b5b8135615c54848260208601615bed565b91505092915050565b600067ffffffffffffffff821115615c7857615c77615b32565b5b602082029050602081019050919050565b600080fd5b60028110615c9b57600080fd5b50565b600081359050615cad81615c8e565b92915050565b600060a08284031215615cc957615cc8615c89565b5b615cd360a0615b92565b90506000615ce384828501615c9e565b6000830152506020615cf784828501614f88565b6020830152506040615d0b84828501614f88565b6040830152506060615d1f84828501614f88565b6060830152506080615d33848285016159fe565b60808301525092915050565b6000615d52615d4d84615c5d565b615b92565b90508083825260208201905060a08402830185811115615d7557615d74614f16565b5b835b81811015615d9e5780615d8a8882615cb3565b84526020840193505060a081019050615d77565b5050509392505050565b600082601f830112615dbd57615dbc614f0c565b5b8135615dcd848260208601615d3f565b91505092915050565b600080600060608486031215615def57615dee614e47565b5b600084013567ffffffffffffffff811115615e0d57615e0c614e4c565b5b615e1986828701615c2f565b935050602084013567ffffffffffffffff811115615e3a57615e39614e4c565b5b615e4686828701615c2f565b925050604084013567ffffffffffffffff811115615e6757615e66614e4c565b5b615e7386828701615da8565b9150509250925092565b600060e083016000830151615e956000860182615063565b5060208301518482036020860152615ead82826150c9565b9150506040830151615ec26040860182615063565b506060830151615ed56060860182615063565b506080830151615ee86080860182615063565b5060a0830151615efb60a0860182615063565b5060c0830151615f0e60c0860182615134565b508091505092915050565b60006020820190508181036000830152615f338184615e7d565b905092915050565b600060e083016000830151615f536000860182615063565b5060208301518482036020860152615f6b82826150c9565b9150506040830151615f806040860182615063565b506060830151615f936060860182615063565b506080830151615fa66080860182615063565b5060a0830151615fb960a0860182615063565b5060c0830151615fcc60c0860182615134565b508091505092915050565b60006020820190508181036000830152615ff18184615f3b565b905092915050565b600082825260208201905092915050565b600061601582615072565b61601f8185615ff9565b935061602f81856020860161508e565b616038816150b8565b840191505092915050565b61604c81615122565b82525050565b600060e082019050616067600083018a614e13565b8181036020830152616079818961600a565b90506160886040830188614e13565b6160956060830187614e13565b6160a26080830186614e13565b6160af60a0830185614e13565b6160bc60c0830184616043565b98975050505050505050565b60006080820190506160dd6000830187614e13565b81810360208301526160ef818661600a565b90506160fe6040830185616043565b61610b6060830184614e13565b95945050505050565b600081519050919050565b600082825260208201905092915050565b6000819050602082019050919050565b60006080830160008301516161586000860182615063565b506020830151848203602086015261617082826150c9565b91505060408301516161856040860182615134565b5060608301516161986060860182615063565b508091505092915050565b60006161af8383616140565b905092915050565b6000602082019050919050565b60006161cf82616114565b6161d9818561611f565b9350836020820285016161eb85616130565b8060005b85811015616227578484038952815161620885826161a3565b9450616213836161b7565b925060208a019950506001810190506161ef565b50829750879550505050505092915050565b6000602082019050818103600083015261625381846161c4565b905092915050565b600060e0830160008301516162736000860182615063565b506020830151848203602086015261628b82826150c9565b91505060408301516162a06040860182615063565b5060608301516162b36060860182615063565b5060808301516162c66080860182615063565b5060a08301516162d960a0860182615063565b5060c08301516162ec60c0860182615134565b508091505092915050565b60006020820190508181036000830152616311818461625b565b905092915050565b600060e08201905061632e600083018a614e13565b8181036020830152616340818961600a565b90508181036040830152616354818861600a565b90506163636060830187614e13565b6163706080830186616043565b61637d60a0830185614ee2565b61638a60c0830184614ee2565b98975050505050505050565b600081519050919050565b600082825260208201905092915050565b6000819050602082019050919050565b600060e0830160008301516163da6000860182615063565b50602083015184820360208601526163f282826150c9565b91505060408301516164076040860182615063565b50606083015161641a6060860182615063565b50608083015161642d6080860182615063565b5060a083015161644060a0860182615063565b5060c083015161645360c0860182615134565b508091505092915050565b600061646a83836163c2565b905092915050565b6000602082019050919050565b600061648a82616396565b61649481856163a1565b9350836020820285016164a6856163b2565b8060005b858110156164e257848403895281516164c3858261645e565b94506164ce83616472565b925060208a019950506001810190506164aa565b50829750879550505050505092915050565b6000602082019050818103600083015261650e818461647f565b905092915050565b7f5365727669636520616c726561647920726567697374657265642e0000000000600082015250565b600061654c601b83615ff9565b915061655782616516565b602082019050919050565b6000602082019050818103600083015261657b8161653f565b9050919050565b7f4e487b7100000000000000000000000000000000000000000000000000000000600052602260045260246000fd5b600060028204905060018216806165c957607f821691505b6020821081036165dc576165db616582565b5b50919050565b60008190508160005260206000209050919050565b60006020601f8301049050919050565b600082821b905092915050565b6000600883026166447fffffffffffffffffffffffffffffffffffffffffffffffffffffffffffffffff82616607565b61664e8683616607565b95508019841693508086168417925050509392505050565b600061668161667c61667784614e09565b615a53565b614e09565b9050919050565b6000819050919050565b61669b83616666565b6166af6166a782616688565b848454616614565b825550505050565b600090565b6166c46166b7565b6166cf818484616692565b505050565b5b818110156166f3576166e86000826166bc565b6001810190506166d5565b5050565b601f82111561673857616709816165e2565b616712846165f7565b81016020851015616721578190505b61673561672d856165f7565b8301826166d4565b50505b505050565b600082821c905092915050565b600061675b6000198460080261673d565b1980831691505092915050565b6000616774838361674a565b9150826002028217905092915050565b61678d82615072565b67ffffffffffffffff8111156167a6576167a5615b32565b5b6167b082546165b1565b6167bb8282856166f7565b600060209050601f8311600181146167ee57600084156167dc578287015190505b6167e68582616768565b86555061684e565b601f1984166167fc866165e2565b60005b82811015616824578489015182556001820191506020850194506020810190506167ff565b86831015616841578489015161683d601f89168261674a565b8355505b6001600288020188555050505b505050505050565b7f4e487b7100000000000000000000000000000000000000000000000000000000600052603260045260246000fd5b7f50726f6475637420616c726561647920726567697374657265642e0000000000600082015250565b60006168bb601b83615ff9565b91506168c682616885565b602082019050919050565b600060208201905081810360008301526168ea816168ae565b9050919050565b7f4d6174657269616c20646f6573206e6f742065786973742e0000000000000000600082015250565b6000616927601883615ff9565b9150616932826168f1565b602082019050919050565b600060208201905081810360008301526169568161691a565b9050919050565b7f496e646578206f7574206f6620626f756e64732e000000000000000000000000600082015250565b6000616993601483615ff9565b915061699e8261695d565b602082019050919050565b600060208201905081810360008301526169c281616986565b9050919050565b7f537570706c79436861696e20646f6573206e6f74206578697374000000000000600082015250565b60006169ff601a83615ff9565b9150616a0a826169c9565b602082019050919050565b60006020820190508181036000830152616a2e816169f2565b9050919050565b7f556e617574686f72697a656420526f6c65000000000000000000000000000000815250565b6000604082019050616a706000830184616043565b616a7c60208301616a35565b92915050565b7f556e6175746f72697a6564204f6e776572000000000000000000000000000000600082015250565b6000616ab8601183615ff9565b9150616ac382616a82565b602082019050919050565b60006020820190508181036000830152616ae781616aab565b9050919050565b6000604082019050616b036000830185616043565b616b106020830184616043565b9392505050565b600081519050616b2681614f71565b92915050565b600060208284031215616b4257616b41614e47565b5b6000616b5084828501616b17565b91505092915050565b7f496e73756666696369656e7420416c6c6f77616e636500000000000000000000600082015250565b6000616b8f601683615ff9565b9150616b9a82616b59565b602082019050919050565b60006020820190508181036000830152616bbe81616b82565b9050919050565b6000606082019050616bda6000830186616043565b616be76020830185616043565b616bf46040830184614e13565b949350505050565b616c0581614ed6565b8114616c1057600080fd5b50565b600081519050616c2281616bfc565b92915050565b600060208284031215616c3e57616c3d614e47565b5b6000616c4c84828501616c13565b91505092915050565b7f4d6174657269616c20616c726561647920726567697374657265642e00000000600082015250565b6000616c8b601c83615ff9565b9150616c9682616c55565b602082019050919050565b60006020820190508181036000830152616cba81616c7e565b9050919050565b7f4e487b7100000000000000000000000000000000000000000000000000000000600052601160045260246000fd5b6000616cfb82614e09565b91507fffffffffffffffffffffffffffffffffffffffffffffffffffffffffffffffff8203616d2d57616d2c616cc1565b5b600182019050919050565b6000616d4382614e09565b9150616d4e83614e09565b9250828202616d5c81614e09565b91508282048414831517616d7357616d72616cc1565b5b5092915050565b6000616d8582614e09565b9150616d9083614e09565b9250828201905080821115616da857616da7616cc1565b5b92915050565b7f5374657020636f6e6669726d6174696f6e7320696e636f6d706c657465000000600082015250565b6000616de4601d83615ff9565b9150616def82616dae565b602082019050919050565b60006020820190508181036000830152616e1381616dd7565b9050919050565b6000604082019050616e2f6000830185616043565b616e3c6020830184614e13565b9392505050565b7f4661696c656420746f2072656c656173652066756e6473000000000000000000600082015250565b6000616e79601783615ff9565b9150616e8482616e43565b602082019050919050565b60006020820190508181036000830152616ea881616e6c565b9050919050565b6000604082019050616ec46000830185616043565b616ed1602083018461593f565b9392505050565b6000616ee382614e09565b9150616eee83614e09565b9250828203905081811115616f0657616f05616cc1565b5b92915050565b7f4e487b7100000000000000000000000000000000000000000000000000000000600052603160045260246000fdfea264697066735822122087b9bde234a7f70963b8508666adfc28de0e4eba91f052262ecc538a5ef5f6d964736f6c63430008180033",
  "linkReferences": {},
  "deployedLinkReferences": {}
}